{
	"data": {
		"bytecode": {
			"linkReferences": {},
			"object": "6101606040526001600a55348015610015575f5ffd5b506040516160cb3803806160cb833981810160405281019061003791906104cf565b6040518060400160405280600b81526020017f536b696c6c4c65646765720000000000000000000000000000000000000000008152506040518060400160405280600181526020017f31000000000000000000000000000000000000000000000000000000000000008152506040518060400160405280601681526020017f536b696c6c4c65646765722043726564656e7469616c000000000000000000008152506040518060400160405280600a81526020017f534b494c4c2d4352454400000000000000000000000000000000000000000000815250815f908161011d9190610737565b50806001908161012d9190610737565b5050506101446007836101fb60201b90919060201c565b61012081815250506101606008826101fb60201b90919060201c565b6101408181525050818051906020012060e08181525050808051906020012061010081815250504660a0818152505061019d61024860201b60201c565b608081815250503073ffffffffffffffffffffffffffffffffffffffff1660c08173ffffffffffffffffffffffffffffffffffffffff1681525050505060016009819055506101f45f5f1b826102a260201b60201c565b50506109a6565b5f60208351101561021c576102158361039860201b60201c565b9050610242565b8261022c836103fd60201b60201c565b5f01908161023a9190610737565b5060ff5f1b90505b92915050565b5f7f8b73c3c69bb8fe3d512ecc4cf759cc79239f7b179b0ffacaa9a75d522b39400f60e05161010051463060405160200161028795949392919061083c565b60405160208183030381529060405280519060200120905090565b5f6102b3838361040660201b60201c565b61038e57600160065f8581526020019081526020015f205f015f8473ffffffffffffffffffffffffffffffffffffffff1673ffffffffffffffffffffffffffffffffffffffff1681526020019081526020015f205f6101000a81548160ff02191690831515021790555061032b61046a60201b60201c565b73ffffffffffffffffffffffffffffffffffffffff168273ffffffffffffffffffffffffffffffffffffffff16847f2f8788117e7eff1d82e926ec794901d17c78024a50270940304540a733656f0d60405160405180910390a460019050610392565b5f90505b92915050565b5f5f829050601f815111156103e457826040517f305a27a90000000000000000000000000000000000000000000000000000000081526004016103db91906108f3565b60405180910390fd5b8051816103f090610940565b5f1c175f1b915050919050565b5f819050919050565b5f60065f8481526020019081526020015f205f015f8373ffffffffffffffffffffffffffffffffffffffff1673ffffffffffffffffffffffffffffffffffffffff1681526020019081526020015f205f9054906101000a900460ff16905092915050565b5f33905090565b5f5ffd5b5f73ffffffffffffffffffffffffffffffffffffffff82169050919050565b5f61049e82610475565b9050919050565b6104ae81610494565b81146104b8575f5ffd5b50565b5f815190506104c9816104a5565b92915050565b5f602082840312156104e4576104e3610471565b5b5f6104f1848285016104bb565b91505092915050565b5f81519050919050565b7f4e487b71000000000000000000000000000000000000000000000000000000005f52604160045260245ffd5b7f4e487b71000000000000000000000000000000000000000000000000000000005f52602260045260245ffd5b5f600282049050600182168061057557607f821691505b60208210810361058857610587610531565b5b50919050565b5f819050815f5260205f209050919050565b5f6020601f8301049050919050565b5f82821b905092915050565b5f600883026105ea7fffffffffffffffffffffffffffffffffffffffffffffffffffffffffffffffff826105af565b6105f486836105af565b95508019841693508086168417925050509392505050565b5f819050919050565b5f819050919050565b5f61063861063361062e8461060c565b610615565b61060c565b9050919050565b5f819050919050565b6106518361061e565b61066561065d8261063f565b8484546105bb565b825550505050565b5f5f905090565b61067c61066d565b610687818484610648565b505050565b5b818110156106aa5761069f5f82610674565b60018101905061068d565b5050565b601f8211156106ef576106c08161058e565b6106c9846105a0565b810160208510156106d8578190505b6106ec6106e4856105a0565b83018261068c565b50505b505050565b5f82821c905092915050565b5f61070f5f19846008026106f4565b1980831691505092915050565b5f6107278383610700565b9150826002028217905092915050565b610740826104fa565b67ffffffffffffffff81111561075957610758610504565b5b610763825461055e565b61076e8282856106ae565b5f60209050601f83116001811461079f575f841561078d578287015190505b610797858261071c565b8655506107fe565b601f1984166107ad8661058e565b5f5b828110156107d4578489015182556001820191506020850194506020810190506107af565b868310156107f157848901516107ed601f891682610700565b8355505b6001600288020188555050505b505050505050565b5f819050919050565b61081881610806565b82525050565b6108278161060c565b82525050565b61083681610494565b82525050565b5f60a08201905061084f5f83018861080f565b61085c602083018761080f565b610869604083018661080f565b610876606083018561081e565b610883608083018461082d565b9695505050505050565b5f82825260208201905092915050565b8281835e5f83830152505050565b5f601f19601f8301169050919050565b5f6108c5826104fa565b6108cf818561088d565b93506108df81856020860161089d565b6108e8816108ab565b840191505092915050565b5f6020820190508181035f83015261090b81846108bb565b905092915050565b5f81519050919050565b5f819050602082019050919050565b5f6109378251610806565b80915050919050565b5f61094a82610913565b826109548461091d565b905061095f8161092c565b9250602082101561099f5761099a7fffffffffffffffffffffffffffffffffffffffffffffffffffffffffffffffff836020036008026105af565b831692505b5050919050565b60805160a05160c05160e0516101005161012051610140516156d46109f75f395f612ba801525f612b6d01525f613c4001525f613c1f01525f61337501525f6133cb01525f6133f401526156d45ff3fe608060405234801561000f575f5ffd5b5060043610610225575f3560e01c8063796ed77b1161012e578063b88d4fde116100b6578063d547741f1161007a578063d547741f146106e7578063d852b9a814610703578063e0574e3f1461071f578063e985e9c514610754578063f2a91b1c1461078457610225565b8063b88d4fde1461060b578063c1c2dbdd14610627578063c3171bf114610657578063c40c325014610687578063c87b56dd146106b757610225565b806395d89b41116100fd57806395d89b41146105675780639b35629514610585578063a217fddf146105b5578063a22cb465146105d3578063af5b2291146105ef57610225565b8063796ed77b146104db57806384b0196e146104f75780638747d5ed1461051b57806391d148541461053757610225565b80632f2ff15d116101b1578063532cdb5a11610180578063532cdb5a146103fd5780636352211e1461042d57806369989ffb1461045d57806370a082311461048d57806375b238fc146104bd57610225565b80632f2ff15d1461037957806336568abe1461039557806342842e0e146103b157806350d061cb146103cd57610225565b8063095ea7b3116101f8578063095ea7b3146102d75780631b87278d146102f35780631b929c211461030f57806323b872dd1461032d578063248a9ca31461034957610225565b806301ffc9a71461022957806305295cba1461025957806306fdde0314610289578063081812fc146102a7575b5f5ffd5b610243600480360381019061023e9190613f5d565b6107b8565b6040516102509190613fa2565b60405180910390f35b610273600480360381019061026e9190614015565b610831565b6040516102809190614058565b60405180910390f35b610291610846565b60405161029e91906140e1565b60405180910390f35b6102c160048036038101906102bc919061412b565b6108d5565b6040516102ce9190614165565b60405180910390f35b6102f160048036038101906102ec919061417e565b6108f0565b005b61030d6004803603810190610308919061412b565b61092b565b005b610317610c00565b60405161032491906141d4565b60405180910390f35b610347600480360381019061034291906141ed565b610c24565b005b610363600480360381019061035e9190614267565b610d23565b60405161037091906141d4565b60405180910390f35b610393600480360381019061038e9190614292565b610d40565b005b6103af60048036038101906103aa9190614292565b610d62565b005b6103cb60048036038101906103c691906141ed565b610ddd565b005b6103e760048036038101906103e29190614015565b610dfc565b6040516103f49190614058565b60405180910390f35b61041760048036038101906104129190614307565b610f1e565b6040516104249190614058565b60405180910390f35b6104476004803603810190610442919061412b565b611365565b6040516104549190614165565b60405180910390f35b61047760048036038101906104729190614015565b611376565b6040516104849190614058565b60405180910390f35b6104a760048036038101906104a29190614015565b61138b565b6040516104b49190614058565b60405180910390f35b6104c5611441565b6040516104d291906141d4565b60405180910390f35b6104f560048036038101906104f09190614442565b611447565b005b6104ff61192b565b60405161051297969594939291906145dd565b60405180910390f35b61053560048036038101906105309190614015565b6119d0565b005b610551600480360381019061054c9190614292565b611a4e565b60405161055e9190613fa2565b60405180910390f35b61056f611ab2565b60405161057c91906140e1565b60405180910390f35b61059f600480360381019061059a919061465f565b611b42565b6040516105ac9190613fa2565b60405180910390f35b6105bd611b6c565b6040516105ca91906141d4565b60405180910390f35b6105ed60048036038101906105e891906146c7565b611b72565b005b61060960048036038101906106049190614015565b611bad565b005b6106256004803603810190610620919061482d565b611c2b565b005b610641600480360381019061063c9190614015565b611c50565b60405161064e9190614058565b60405180910390f35b610671600480360381019061066c9190614015565b611c65565b60405161067e9190614058565b60405180910390f35b6106a1600480360381019061069c9190614015565b611c7a565b6040516106ae91906148ad565b60405180910390f35b6106d160048036038101906106cc919061412b565b611d0d565b6040516106de91906140e1565b60405180910390f35b61070160048036038101906106fc9190614292565b611ecc565b005b61071d600480360381019061071891906148cd565b611eee565b005b6107396004803603810190610734919061412b565b6122bd565b60405161074b9695949392919061494f565b60405180910390f35b61076e600480360381019061076991906149ae565b612350565b60405161077b9190613fa2565b60405180910390f35b61079e6004803603810190610799919061412b565b6123de565b6040516107af9594939291906149ec565b60405180910390f35b5f7fa2797ad7000000000000000000000000000000000000000000000000000000007bffffffffffffffffffffffffffffffffffffffffffffffffffffffff1916827bffffffffffffffffffffffffffffffffffffffffffffffffffffffff1916148061082a5750610829826125b0565b5b9050919050565b6010602052805f5260405f205f915090505481565b60605f805461085490614a6a565b80601f016020809104026020016040519081016040528092919081815260200182805461088090614a6a565b80156108cb5780601f106108a2576101008083540402835291602001916108cb565b820191905f5260205f20905b8154815290600101906020018083116108ae57829003601f168201915b5050505050905090565b5f6108df82612629565b506108e9826126af565b9050919050565b6040517f08c379a000000000000000000000000000000000000000000000000000000000815260040161092290614ae4565b60405180910390fd5b6109336126e8565b5f73ffffffffffffffffffffffffffffffffffffffff1661095382612737565b73ffffffffffffffffffffffffffffffffffffffff16036109a9576040517f08c379a00000000000000000000000000000000000000000000000000000000081526004016109a090614b4c565b60405180910390fd5b5f600b5f8381526020019081526020015f20905080600201600c9054906101000a900460ff1615610a0f576040517f08c379a0000000000000000000000000000000000000000000000000000000008152600401610a0690614bb4565b60405180910390fd5b805f015f9054906101000a900473ffffffffffffffffffffffffffffffffffffffff1673ffffffffffffffffffffffffffffffffffffffff163373ffffffffffffffffffffffffffffffffffffffff161480610a735750610a725f5f1b33611a4e565b5b610ab2576040517f08c379a0000000000000000000000000000000000000000000000000000000008152600401610aa990614c1c565b60405180910390fd5b600181600201600c6101000a81548160ff0219169083151502179055505f610ad983611365565b9050600a8260020160089054906101000a900461ffff1661ffff16610afe9190614c67565b600d5f8373ffffffffffffffffffffffffffffffffffffffff1673ffffffffffffffffffffffffffffffffffffffff1681526020019081526020015f205f828254610b499190614ca8565b925050819055506001600e5f8373ffffffffffffffffffffffffffffffffffffffff1673ffffffffffffffffffffffffffffffffffffffff1681526020019081526020015f205f828254610b9d9190614ca8565b925050819055503373ffffffffffffffffffffffffffffffffffffffff16837f6c493ff0566a070477058b7e0b09eb1fe5d23dcec3d8cd145be7a5680c53bdd342604051610beb9190614cdb565b60405180910390a35050610bfd612770565b50565b7f01f18e249044142f95a61b39bad5f99f3c70699c83bb85a1ad87fe9e68bd85d181565b5f73ffffffffffffffffffffffffffffffffffffffff168273ffffffffffffffffffffffffffffffffffffffff1603610c94575f6040517f64a0ae92000000000000000000000000000000000000000000000000000000008152600401610c8b9190614165565b60405180910390fd5b5f610ca78383610ca261277a565b612781565b90508373ffffffffffffffffffffffffffffffffffffffff168173ffffffffffffffffffffffffffffffffffffffff1614610d1d578382826040517f64283d7b000000000000000000000000000000000000000000000000000000008152600401610d1493929190614cf4565b60405180910390fd5b50505050565b5f60065f8381526020019081526020015f20600101549050919050565b610d4982610d23565b610d5281612849565b610d5c838361285d565b50505050565b610d6a61277a565b73ffffffffffffffffffffffffffffffffffffffff168173ffffffffffffffffffffffffffffffffffffffff1614610dce576040517f6697b23200000000000000000000000000000000000000000000000000000000815260040160405180910390fd5b610dd88282612947565b505050565b610df783838360405180602001604052805f815250611c2b565b505050565b5f5f5f600e5f8573ffffffffffffffffffffffffffffffffffffffff1673ffffffffffffffffffffffffffffffffffffffff1681526020019081526020015f205411610e48575f610e4b565b60c85b60ff1690505f600d5f8573ffffffffffffffffffffffffffffffffffffffff1673ffffffffffffffffffffffffffffffffffffffff1681526020019081526020015f205490505f6014610eda600f5f8873ffffffffffffffffffffffffffffffffffffffff1673ffffffffffffffffffffffffffffffffffffffff1681526020019081526020015f2054612a31565b610ee49190614c67565b90505f818385610ef49190614d29565b610efe9190614d29565b90506127108111610f0f5780610f13565b6127105b945050505050919050565b5f610f276126e8565b7f01f18e249044142f95a61b39bad5f99f3c70699c83bb85a1ad87fe9e68bd85d1610f5181612849565b5f73ffffffffffffffffffffffffffffffffffffffff168673ffffffffffffffffffffffffffffffffffffffff1603610fbf576040517f08c379a0000000000000000000000000000000000000000000000000000000008152600401610fb690614da6565b60405180910390fd5b5f5f1b8503611003576040517f08c379a0000000000000000000000000000000000000000000000000000000008152600401610ffa90614e0e565b60405180910390fd5b60018461ffff161015801561101d575060648461ffff1611155b61105c576040517f08c379a000000000000000000000000000000000000000000000000000000000815260040161105390614e76565b60405180910390fd5b600a5f81548092919061106e90614e94565b91905055915061107e8683612a9d565b5f4290506040518060c001604052803373ffffffffffffffffffffffffffffffffffffffff1681526020018781526020018267ffffffffffffffff1681526020018661ffff1681526020018561ffff1681526020015f1515815250600b5f8581526020019081526020015f205f820151815f015f6101000a81548173ffffffffffffffffffffffffffffffffffffffff021916908373ffffffffffffffffffffffffffffffffffffffff160217905550602082015181600101556040820151816002015f6101000a81548167ffffffffffffffff021916908367ffffffffffffffff16021790555060608201518160020160086101000a81548161ffff021916908361ffff160217905550608082015181600201600a6101000a81548161ffff021916908361ffff16021790555060a082015181600201600c6101000a81548160ff021916908315150217905550905050600c5f8873ffffffffffffffffffffffffffffffffffffffff1673ffffffffffffffffffffffffffffffffffffffff1681526020019081526020015f2083908060018154018082558091505060019003905f5260205f20015f9091909190915055600a8561ffff166112419190614c67565b600d5f8973ffffffffffffffffffffffffffffffffffffffff1673ffffffffffffffffffffffffffffffffffffffff1681526020019081526020015f205f82825461128c9190614d29565b925050819055506001600e5f8973ffffffffffffffffffffffffffffffffffffffff1673ffffffffffffffffffffffffffffffffffffffff1681526020019081526020015f205f8282546112e09190614d29565b925050819055503373ffffffffffffffffffffffffffffffffffffffff168773ffffffffffffffffffffffffffffffffffffffff16847f729355dcd049d755d96c32f3ac4095e920d6ca665d4cde54f957901928a491c48989898760405161134b9493929190614edb565b60405180910390a4505061135d612770565b949350505050565b5f61136f82612629565b9050919050565b600e602052805f5260405f205f915090505481565b5f5f73ffffffffffffffffffffffffffffffffffffffff168273ffffffffffffffffffffffffffffffffffffffff16036113fc575f6040517f89c62b640000000000000000000000000000000000000000000000000000000081526004016113f39190614165565b60405180910390fd5b60035f8373ffffffffffffffffffffffffffffffffffffffff1673ffffffffffffffffffffffffffffffffffffffff1681526020019081526020015f20549050919050565b5f5f1b81565b61144f6126e8565b5f73ffffffffffffffffffffffffffffffffffffffff168773ffffffffffffffffffffffffffffffffffffffff16036114bd576040517f08c379a00000000000000000000000000000000000000000000000000000000081526004016114b490614da6565b60405180910390fd5b5f5f1b8303611501576040517f08c379a00000000000000000000000000000000000000000000000000000000081526004016114f890614f68565b60405180910390fd5b60115f8873ffffffffffffffffffffffffffffffffffffffff1673ffffffffffffffffffffffffffffffffffffffff1681526020019081526020015f205f8481526020019081526020015f205f9054906101000a900460ff161561159a576040517f08c379a000000000000000000000000000000000000000000000000000000000815260040161159190614fd0565b60405180910390fd5b60018463ffffffff16101580156115b957506103e88463ffffffff1611155b6115f8576040517f08c379a00000000000000000000000000000000000000000000000000000000081526004016115ef90615038565b60405180910390fd5b610258426116069190615056565b67ffffffffffffffff168667ffffffffffffffff16111561165c576040517f08c379a0000000000000000000000000000000000000000000000000000000008152600401611653906150db565b60405180910390fd5b5f7fa6453a9d6ffefdc6248bdf03e06a5eb334fe11dc8e35a34d388aa902f86797d0888888888860405160200161169896959493929190615108565b6040516020818303038152906040528051906020012090505f6116ba82612aba565b90505f61171385858080601f0160208091040260200160405190810160405280939291908181526020018383808284375f81840152601f19601f8201169050808301925050505050505083612ad390919063ffffffff16565b90508973ffffffffffffffffffffffffffffffffffffffff168173ffffffffffffffffffffffffffffffffffffffff1614611783576040517f08c379a000000000000000000000000000000000000000000000000000000000815260040161177a906151b1565b60405180910390fd5b600160115f8c73ffffffffffffffffffffffffffffffffffffffff1673ffffffffffffffffffffffffffffffffffffffff1681526020019081526020015f205f8881526020019081526020015f205f6101000a81548160ff0219169083151502179055505f6117f189612afd565b8863ffffffff166118029190614c67565b905080600f5f8d73ffffffffffffffffffffffffffffffffffffffff1673ffffffffffffffffffffffffffffffffffffffff1681526020019081526020015f205f8282546118509190614d29565b92505081905550600160105f8d73ffffffffffffffffffffffffffffffffffffffff1673ffffffffffffffffffffffffffffffffffffffff1681526020019081526020015f205f8282546118a49190614d29565b925050819055503373ffffffffffffffffffffffffffffffffffffffff168b73ffffffffffffffffffffffffffffffffffffffff167f94258731b227953edd7e3bcd6098888aa4eafead455f8e2e15fcbb8669c60c2a8b8b8b8f60405161190e94939291906151cf565b60405180910390a350505050611922612770565b50505050505050565b5f6060805f5f5f606061193c612b64565b611944612b9f565b46305f5f1b5f67ffffffffffffffff81111561196357611962614709565b5b6040519080825280602002602001820160405280156119915781602001602082028036833780820191505090505b507f0f00000000000000000000000000000000000000000000000000000000000000959493929190965096509650965096509650965090919293949596565b5f5f1b6119dc81612849565b611a067f01f18e249044142f95a61b39bad5f99f3c70699c83bb85a1ad87fe9e68bd85d183612947565b508173ffffffffffffffffffffffffffffffffffffffff167f1b0b878d06167e60e076b932df41de2b519d804c80445961e705ffbc98091f8760405160405180910390a25050565b5f60065f8481526020019081526020015f205f015f8373ffffffffffffffffffffffffffffffffffffffff1673ffffffffffffffffffffffffffffffffffffffff1681526020019081526020015f205f9054906101000a900460ff16905092915050565b606060018054611ac190614a6a565b80601f0160208091040260200160405190810160405280929190818152602001828054611aed90614a6a565b8015611b385780601f10611b0f57610100808354040283529160200191611b38565b820191905f5260205f20905b815481529060010190602001808311611b1b57829003601f168201915b5050505050905090565b6011602052815f5260405f20602052805f5260405f205f915091509054906101000a900460ff1681565b5f5f1b81565b6040517f08c379a0000000000000000000000000000000000000000000000000000000008152600401611ba490614ae4565b60405180910390fd5b5f5f1b611bb981612849565b611be37f01f18e249044142f95a61b39bad5f99f3c70699c83bb85a1ad87fe9e68bd85d18361285d565b508173ffffffffffffffffffffffffffffffffffffffff167f0bfb62b1fbb00013554ed3ff21ca179a519aee08ccf015aed3482362436b6b3560405160405180910390a25050565b611c36848484610c24565b611c4a611c4161277a565b85858585612bda565b50505050565b600f602052805f5260405f205f915090505481565b600d602052805f5260405f205f915090505481565b6060600c5f8373ffffffffffffffffffffffffffffffffffffffff1673ffffffffffffffffffffffffffffffffffffffff1681526020019081526020015f20805480602002602001604051908101604052809291908181526020018280548015611d0157602002820191905f5260205f20905b815481526020019060010190808311611ced575b50505050509050919050565b60605f73ffffffffffffffffffffffffffffffffffffffff16611d2f83612737565b73ffffffffffffffffffffffffffffffffffffffff1603611d85576040517f08c379a0000000000000000000000000000000000000000000000000000000008152600401611d7c90614b4c565b60405180910390fd5b5f600b5f8481526020019081526020015f206040518060c00160405290815f82015f9054906101000a900473ffffffffffffffffffffffffffffffffffffffff1673ffffffffffffffffffffffffffffffffffffffff1673ffffffffffffffffffffffffffffffffffffffff16815260200160018201548152602001600282015f9054906101000a900467ffffffffffffffff1667ffffffffffffffff1667ffffffffffffffff1681526020016002820160089054906101000a900461ffff1661ffff1661ffff16815260200160028201600a9054906101000a900461ffff1661ffff1661ffff16815260200160028201600c9054906101000a900460ff1615151515815250509050611e9783612d86565b611ea48260200151612e50565b604051602001611eb5929190615306565b604051602081830303815290604052915050919050565b611ed582610d23565b611ede81612849565b611ee88383612947565b50505050565b611ef66126e8565b611f207f01f18e249044142f95a61b39bad5f99f3c70699c83bb85a1ad87fe9e68bd85d133611a4e565b80611f335750611f325f5f1b33611a4e565b5b611f72576040517f08c379a0000000000000000000000000000000000000000000000000000000008152600401611f6990614c1c565b60405180910390fd5b5f73ffffffffffffffffffffffffffffffffffffffff168473ffffffffffffffffffffffffffffffffffffffff1603611fe0576040517f08c379a0000000000000000000000000000000000000000000000000000000008152600401611fd790614da6565b60405180910390fd5b5f5f1b8103612024576040517f08c379a000000000000000000000000000000000000000000000000000000000815260040161201b90614f68565b60405180910390fd5b60115f8573ffffffffffffffffffffffffffffffffffffffff1673ffffffffffffffffffffffffffffffffffffffff1681526020019081526020015f205f8281526020019081526020015f205f9054906101000a900460ff16156120bd576040517f08c379a00000000000000000000000000000000000000000000000000000000081526004016120b490614fd0565b60405180910390fd5b60018263ffffffff16101580156120dc57506103e88263ffffffff1611155b61211b576040517f08c379a000000000000000000000000000000000000000000000000000000000815260040161211290615038565b60405180910390fd5b600160115f8673ffffffffffffffffffffffffffffffffffffffff1673ffffffffffffffffffffffffffffffffffffffff1681526020019081526020015f205f8381526020019081526020015f205f6101000a81548160ff0219169083151502179055505f61218984612afd565b8363ffffffff1661219a9190614c67565b905080600f5f8773ffffffffffffffffffffffffffffffffffffffff1673ffffffffffffffffffffffffffffffffffffffff1681526020019081526020015f205f8282546121e89190614d29565b92505081905550600160105f8773ffffffffffffffffffffffffffffffffffffffff1673ffffffffffffffffffffffffffffffffffffffff1681526020019081526020015f205f82825461223c9190614d29565b925050819055503373ffffffffffffffffffffffffffffffffffffffff168573ffffffffffffffffffffffffffffffffffffffff167f94258731b227953edd7e3bcd6098888aa4eafead455f8e2e15fcbb8669c60c2a868686426040516122a694939291906151cf565b60405180910390a3506122b7612770565b50505050565b600b602052805f5260405f205f91509050805f015f9054906101000a900473ffffffffffffffffffffffffffffffffffffffff1690806001015490806002015f9054906101000a900467ffffffffffffffff16908060020160089054906101000a900461ffff169080600201600a9054906101000a900461ffff169080600201600c9054906101000a900460ff16905086565b5f60055f8473ffffffffffffffffffffffffffffffffffffffff1673ffffffffffffffffffffffffffffffffffffffff1681526020019081526020015f205f8373ffffffffffffffffffffffffffffffffffffffff1673ffffffffffffffffffffffffffffffffffffffff1681526020019081526020015f205f9054906101000a900460ff16905092915050565b5f5f5f5f5f5f73ffffffffffffffffffffffffffffffffffffffff1661240387612737565b73ffffffffffffffffffffffffffffffffffffffff1603612434575f5f5f5f5f1b5f945094509450945094506125a7565b5f600b5f8881526020019081526020015f206040518060c00160405290815f82015f9054906101000a900473ffffffffffffffffffffffffffffffffffffffff1673ffffffffffffffffffffffffffffffffffffffff1673ffffffffffffffffffffffffffffffffffffffff16815260200160018201548152602001600282015f9054906101000a900467ffffffffffffffff1667ffffffffffffffff1667ffffffffffffffff1681526020016002820160089054906101000a900461ffff1661ffff1661ffff16815260200160028201600a9054906101000a900461ffff1661ffff1661ffff16815260200160028201600c9054906101000a900460ff161515151581525050905061254687611365565b94508060a0015115801561258957505f73ffffffffffffffffffffffffffffffffffffffff16815f015173ffffffffffffffffffffffffffffffffffffffff1614155b95508585825f01518360200151846040015195509550955095509550505b91939590929450565b5f7f7965db0b000000000000000000000000000000000000000000000000000000007bffffffffffffffffffffffffffffffffffffffffffffffffffffffff1916827bffffffffffffffffffffffffffffffffffffffffffffffffffffffff19161480612622575061262182613012565b5b9050919050565b5f5f61263483612737565b90505f73ffffffffffffffffffffffffffffffffffffffff168173ffffffffffffffffffffffffffffffffffffffff16036126a657826040517f7e27328900000000000000000000000000000000000000000000000000000000815260040161269d9190614058565b60405180910390fd5b80915050919050565b5f60045f8381526020019081526020015f205f9054906101000a900473ffffffffffffffffffffffffffffffffffffffff169050919050565b60026009540361272d576040517f08c379a000000000000000000000000000000000000000000000000000000000815260040161272490615389565b60405180910390fd5b6002600981905550565b5f60025f8381526020019081526020015f205f9054906101000a900473ffffffffffffffffffffffffffffffffffffffff169050919050565b6001600981905550565b5f33905090565b5f61278b83612737565b90505f73ffffffffffffffffffffffffffffffffffffffff168173ffffffffffffffffffffffffffffffffffffffff16141580156127f557505f73ffffffffffffffffffffffffffffffffffffffff168473ffffffffffffffffffffffffffffffffffffffff1614155b15612835576040517f08c379a000000000000000000000000000000000000000000000000000000000815260040161282c906153f1565b60405180910390fd5b6128408484846130f3565b90509392505050565b61285a8161285561277a565b6132fe565b50565b5f6128688383611a4e565b61293d57600160065f8581526020019081526020015f205f015f8473ffffffffffffffffffffffffffffffffffffffff1673ffffffffffffffffffffffffffffffffffffffff1681526020019081526020015f205f6101000a81548160ff0219169083151502179055506128da61277a565b73ffffffffffffffffffffffffffffffffffffffff168273ffffffffffffffffffffffffffffffffffffffff16847f2f8788117e7eff1d82e926ec794901d17c78024a50270940304540a733656f0d60405160405180910390a460019050612941565b5f90505b92915050565b5f6129528383611a4e565b15612a27575f60065f8581526020019081526020015f205f015f8473ffffffffffffffffffffffffffffffffffffffff1673ffffffffffffffffffffffffffffffffffffffff1681526020019081526020015f205f6101000a81548160ff0219169083151502179055506129c461277a565b73ffffffffffffffffffffffffffffffffffffffff168273ffffffffffffffffffffffffffffffffffffffff16847ff6391f5c32d9c69d2a47ea670b442974b53935d1edc7fd64eb21e047a839171b60405160405180910390a460019050612a2b565b5f90505b92915050565b5f5f8203612a41575f9050612a98565b5f6002600184612a519190614d29565b612a5b919061543c565b90508291505b81811015612a96578091506002818285612a7b919061543c565b612a859190614d29565b612a8f919061543c565b9050612a61565b505b919050565b612ab6828260405180602001604052805f81525061334f565b5050565b5f612acc612ac6613372565b83613428565b9050919050565b5f5f5f5f612ae18686613468565b925092509250612af182826134bd565b82935050505092915050565b5f60018263ffffffff1603612b155760039050612b5f565b60028263ffffffff1603612b2c5760049050612b5f565b60038263ffffffff1603612b435760059050612b5f565b60048263ffffffff1603612b5a5760059050612b5f565b600290505b919050565b6060612b9a60077f000000000000000000000000000000000000000000000000000000000000000061361f90919063ffffffff16565b905090565b6060612bd560087f000000000000000000000000000000000000000000000000000000000000000061361f90919063ffffffff16565b905090565b5f8373ffffffffffffffffffffffffffffffffffffffff163b1115612d7f578273ffffffffffffffffffffffffffffffffffffffff1663150b7a02868685856040518563ffffffff1660e01b8152600401612c3894939291906154be565b6020604051808303815f875af1925050508015612c7357506040513d601f19601f82011682018060405250810190612c70919061551c565b60015b612cf4573d805f8114612ca1576040519150601f19603f3d011682016040523d82523d5f602084013e612ca6565b606091505b505f815103612cec57836040517f64a0ae92000000000000000000000000000000000000000000000000000000008152600401612ce39190614165565b60405180910390fd5b805160208201fd5b63150b7a0260e01b7bffffffffffffffffffffffffffffffffffffffffffffffffffffffff1916817bffffffffffffffffffffffffffffffffffffffffffffffffffffffff191614612d7d57836040517f64a0ae92000000000000000000000000000000000000000000000000000000008152600401612d749190614165565b60405180910390fd5b505b5050505050565b60605f6001612d94846136cc565b0190505f8167ffffffffffffffff811115612db257612db1614709565b5b6040519080825280601f01601f191660200182016040528015612de45781602001600182028036833780820191505090505b5090505f82602083010190505b600115612e45578080600190039150507f3031323334353637383961626364656600000000000000000000000000000000600a86061a8153600a8581612e3a57612e3961540f565b5b0494505f8503612df1575b819350505050919050565b60605f6040518060400160405280601081526020017f303132333435363738396162636465660000000000000000000000000000000081525090505f604067ffffffffffffffff811115612ea757612ea6614709565b5b6040519080825280601f01601f191660200182016040528015612ed95781602001600182028036833780820191505090505b5090505f5f90505b6020811015613007575f858260208110612efe57612efd615547565b5b1a60f81b60f81c90508360048260ff16901c60ff1681518110612f2457612f23615547565b5b602001015160f81c60f81b83600284612f3d9190614c67565b81518110612f4e57612f4d615547565b5b60200101907effffffffffffffffffffffffffffffffffffffffffffffffffffffffffffff191690815f1a90535083600f821660ff1681518110612f9557612f94615547565b5b602001015160f81c60f81b836001600285612fb09190614c67565b612fba9190614d29565b81518110612fcb57612fca615547565b5b60200101907effffffffffffffffffffffffffffffffffffffffffffffffffffffffffffff191690815f1a905350508080600101915050612ee1565b508092505050919050565b5f7f80ac58cd000000000000000000000000000000000000000000000000000000007bffffffffffffffffffffffffffffffffffffffffffffffffffffffff1916827bffffffffffffffffffffffffffffffffffffffffffffffffffffffff191614806130dc57507f5b5e139f000000000000000000000000000000000000000000000000000000007bffffffffffffffffffffffffffffffffffffffffffffffffffffffff1916827bffffffffffffffffffffffffffffffffffffffffffffffffffffffff1916145b806130ec57506130eb8261381d565b5b9050919050565b5f5f6130fe84612737565b90505f73ffffffffffffffffffffffffffffffffffffffff168373ffffffffffffffffffffffffffffffffffffffff161461313f5761313e818486613886565b5b5f73ffffffffffffffffffffffffffffffffffffffff168173ffffffffffffffffffffffffffffffffffffffff16146131ca5761317e5f855f5f613949565b600160035f8373ffffffffffffffffffffffffffffffffffffffff1673ffffffffffffffffffffffffffffffffffffffff1681526020019081526020015f205f82825403925050819055505b5f73ffffffffffffffffffffffffffffffffffffffff168573ffffffffffffffffffffffffffffffffffffffff161461324957600160035f8773ffffffffffffffffffffffffffffffffffffffff1673ffffffffffffffffffffffffffffffffffffffff1681526020019081526020015f205f82825401925050819055505b8460025f8681526020019081526020015f205f6101000a81548173ffffffffffffffffffffffffffffffffffffffff021916908373ffffffffffffffffffffffffffffffffffffffff160217905550838573ffffffffffffffffffffffffffffffffffffffff168273ffffffffffffffffffffffffffffffffffffffff167fddf252ad1be2c89b69c2b068fc378daa952ba7f163c4a11628f55a4df523b3ef60405160405180910390a4809150509392505050565b6133088282611a4e565b61334b5780826040517fe2517d3f000000000000000000000000000000000000000000000000000000008152600401613342929190615574565b60405180910390fd5b5050565b6133598383613b08565b61336d61336461277a565b5f858585612bda565b505050565b5f7f000000000000000000000000000000000000000000000000000000000000000073ffffffffffffffffffffffffffffffffffffffff163073ffffffffffffffffffffffffffffffffffffffff161480156133ed57507f000000000000000000000000000000000000000000000000000000000000000046145b1561341a577f00000000000000000000000000000000000000000000000000000000000000009050613425565b613422613bfb565b90505b90565b5f6040517f190100000000000000000000000000000000000000000000000000000000000081528360028201528260228201526042812091505092915050565b5f5f5f60418451036134a8575f5f5f602087015192506040870151915060608701515f1a905061349a88828585613c90565b9550955095505050506134b6565b5f600285515f1b9250925092505b9250925092565b5f60038111156134d0576134cf61559b565b5b8260038111156134e3576134e261559b565b5b031561361b57600160038111156134fd576134fc61559b565b5b8260038111156135105761350f61559b565b5b03613547576040517ff645eedf00000000000000000000000000000000000000000000000000000000815260040160405180910390fd5b6002600381111561355b5761355a61559b565b5b82600381111561356e5761356d61559b565b5b036135b257805f1c6040517ffce698f70000000000000000000000000000000000000000000000000000000081526004016135a99190614058565b60405180910390fd5b6003808111156135c5576135c461559b565b5b8260038111156135d8576135d761559b565b5b0361361a57806040517fd78bce0c00000000000000000000000000000000000000000000000000000000815260040161361191906141d4565b60405180910390fd5b5b5050565b606060ff5f1b831461363b5761363483613d77565b90506136c6565b81805461364790614a6a565b80601f016020809104026020016040519081016040528092919081815260200182805461367390614a6a565b80156136be5780601f10613695576101008083540402835291602001916136be565b820191905f5260205f20905b8154815290600101906020018083116136a157829003601f168201915b505050505090505b92915050565b5f5f5f90507a184f03e93ff9f4daa797ed6e38ed64bf6a1f0100000000000000008310613728577a184f03e93ff9f4daa797ed6e38ed64bf6a1f010000000000000000838161371e5761371d61540f565b5b0492506040810190505b6d04ee2d6d415b85acef81000000008310613765576d04ee2d6d415b85acef8100000000838161375b5761375a61540f565b5b0492506020810190505b662386f26fc10000831061379457662386f26fc10000838161378a5761378961540f565b5b0492506010810190505b6305f5e10083106137bd576305f5e10083816137b3576137b261540f565b5b0492506008810190505b61271083106137e25761271083816137d8576137d761540f565b5b0492506004810190505b6064831061380557606483816137fb576137fa61540f565b5b0492506002810190505b600a8310613814576001810190505b80915050919050565b5f7f01ffc9a7000000000000000000000000000000000000000000000000000000007bffffffffffffffffffffffffffffffffffffffffffffffffffffffff1916827bffffffffffffffffffffffffffffffffffffffffffffffffffffffff1916149050919050565b613891838383613de9565b613944575f73ffffffffffffffffffffffffffffffffffffffff168373ffffffffffffffffffffffffffffffffffffffff160361390557806040517f7e2732890000000000000000000000000000000000000000000000000000000081526004016138fc9190614058565b60405180910390fd5b81816040517f177e802f00000000000000000000000000000000000000000000000000000000815260040161393b9291906155c8565b60405180910390fd5b505050565b808061398157505f73ffffffffffffffffffffffffffffffffffffffff168273ffffffffffffffffffffffffffffffffffffffff1614155b15613ab3575f61399084612629565b90505f73ffffffffffffffffffffffffffffffffffffffff168373ffffffffffffffffffffffffffffffffffffffff16141580156139fa57508273ffffffffffffffffffffffffffffffffffffffff168173ffffffffffffffffffffffffffffffffffffffff1614155b8015613a0d5750613a0b8184612350565b155b15613a4f57826040517fa9fbf51f000000000000000000000000000000000000000000000000000000008152600401613a469190614165565b60405180910390fd5b8115613ab157838573ffffffffffffffffffffffffffffffffffffffff168273ffffffffffffffffffffffffffffffffffffffff167f8c5be1e5ebec7d5bd14f71427d1e84f3dd0314c0f7b2291e5b200ac8c7c3b92560405160405180910390a45b505b8360045f8581526020019081526020015f205f6101000a81548173ffffffffffffffffffffffffffffffffffffffff021916908373ffffffffffffffffffffffffffffffffffffffff16021790555050505050565b5f73ffffffffffffffffffffffffffffffffffffffff168273ffffffffffffffffffffffffffffffffffffffff1603613b78575f6040517f64a0ae92000000000000000000000000000000000000000000000000000000008152600401613b6f9190614165565b60405180910390fd5b5f613b8483835f612781565b90505f73ffffffffffffffffffffffffffffffffffffffff168173ffffffffffffffffffffffffffffffffffffffff1614613bf6575f6040517f73c6ac6e000000000000000000000000000000000000000000000000000000008152600401613bed9190614165565b60405180910390fd5b505050565b5f7f8b73c3c69bb8fe3d512ecc4cf759cc79239f7b179b0ffacaa9a75d522b39400f7f00000000000000000000000000000000000000000000000000000000000000007f00000000000000000000000000000000000000000000000000000000000000004630604051602001613c759594939291906155ef565b60405160208183030381529060405280519060200120905090565b5f5f5f7f7fffffffffffffffffffffffffffffff5d576e7357a4501ddfe92f46681b20a0845f1c1115613ccc575f600385925092509250613d6d565b5f6001888888886040515f8152602001604052604051613cef949392919061565b565b6020604051602081039080840390855afa158015613d0f573d5f5f3e3d5ffd5b5050506020604051035190505f73ffffffffffffffffffffffffffffffffffffffff168173ffffffffffffffffffffffffffffffffffffffff1603613d60575f60015f5f1b93509350935050613d6d565b805f5f5f1b935093509350505b9450945094915050565b60605f613d8383613ea9565b90505f602067ffffffffffffffff811115613da157613da0614709565b5b6040519080825280601f01601f191660200182016040528015613dd35781602001600182028036833780820191505090505b5090508181528360208201528092505050919050565b5f5f73ffffffffffffffffffffffffffffffffffffffff168373ffffffffffffffffffffffffffffffffffffffff1614158015613ea057508273ffffffffffffffffffffffffffffffffffffffff168473ffffffffffffffffffffffffffffffffffffffff161480613e615750613e608484612350565b5b80613e9f57508273ffffffffffffffffffffffffffffffffffffffff16613e87836126af565b73ffffffffffffffffffffffffffffffffffffffff16145b5b90509392505050565b5f5f60ff835f1c169050601f811115613eee576040517fb3512b0c00000000000000000000000000000000000000000000000000000000815260040160405180910390fd5b80915050919050565b5f604051905090565b5f5ffd5b5f5ffd5b5f7fffffffff0000000000000000000000000000000000000000000000000000000082169050919050565b613f3c81613f08565b8114613f46575f5ffd5b50565b5f81359050613f5781613f33565b92915050565b5f60208284031215613f7257613f71613f00565b5b5f613f7f84828501613f49565b91505092915050565b5f8115159050919050565b613f9c81613f88565b82525050565b5f602082019050613fb55f830184613f93565b92915050565b5f73ffffffffffffffffffffffffffffffffffffffff82169050919050565b5f613fe482613fbb565b9050919050565b613ff481613fda565b8114613ffe575f5ffd5b50565b5f8135905061400f81613feb565b92915050565b5f6020828403121561402a57614029613f00565b5b5f61403784828501614001565b91505092915050565b5f819050919050565b61405281614040565b82525050565b5f60208201905061406b5f830184614049565b92915050565b5f81519050919050565b5f82825260208201905092915050565b8281835e5f83830152505050565b5f601f19601f8301169050919050565b5f6140b382614071565b6140bd818561407b565b93506140cd81856020860161408b565b6140d681614099565b840191505092915050565b5f6020820190508181035f8301526140f981846140a9565b905092915050565b61410a81614040565b8114614114575f5ffd5b50565b5f8135905061412581614101565b92915050565b5f602082840312156141405761413f613f00565b5b5f61414d84828501614117565b91505092915050565b61415f81613fda565b82525050565b5f6020820190506141785f830184614156565b92915050565b5f5f6040838503121561419457614193613f00565b5b5f6141a185828601614001565b92505060206141b285828601614117565b9150509250929050565b5f819050919050565b6141ce816141bc565b82525050565b5f6020820190506141e75f8301846141c5565b92915050565b5f5f5f6060848603121561420457614203613f00565b5b5f61421186828701614001565b935050602061422286828701614001565b925050604061423386828701614117565b9150509250925092565b614246816141bc565b8114614250575f5ffd5b50565b5f813590506142618161423d565b92915050565b5f6020828403121561427c5761427b613f00565b5b5f61428984828501614253565b91505092915050565b5f5f604083850312156142a8576142a7613f00565b5b5f6142b585828601614253565b92505060206142c685828601614001565b9150509250929050565b5f61ffff82169050919050565b6142e6816142d0565b81146142f0575f5ffd5b50565b5f81359050614301816142dd565b92915050565b5f5f5f5f6080858703121561431f5761431e613f00565b5b5f61432c87828801614001565b945050602061433d87828801614253565b935050604061434e878288016142f3565b925050606061435f878288016142f3565b91505092959194509250565b5f67ffffffffffffffff82169050919050565b6143878161436b565b8114614391575f5ffd5b50565b5f813590506143a28161437e565b92915050565b5f63ffffffff82169050919050565b6143c0816143a8565b81146143ca575f5ffd5b50565b5f813590506143db816143b7565b92915050565b5f5ffd5b5f5ffd5b5f5ffd5b5f5f83601f840112614402576144016143e1565b5b8235905067ffffffffffffffff81111561441f5761441e6143e5565b5b60208301915083600182028301111561443b5761443a6143e9565b5b9250929050565b5f5f5f5f5f5f5f60c0888a03121561445d5761445c613f00565b5b5f61446a8a828b01614001565b975050602061447b8a828b01614394565b965050604061448c8a828b016143cd565b955050606061449d8a828b016143cd565b94505060806144ae8a828b01614253565b93505060a088013567ffffffffffffffff8111156144cf576144ce613f04565b5b6144db8a828b016143ed565b925092505092959891949750929550565b5f7fff0000000000000000000000000000000000000000000000000000000000000082169050919050565b614520816144ec565b82525050565b5f81519050919050565b5f82825260208201905092915050565b5f819050602082019050919050565b61455881614040565b82525050565b5f614569838361454f565b60208301905092915050565b5f602082019050919050565b5f61458b82614526565b6145958185614530565b93506145a083614540565b805f5b838110156145d05781516145b7888261455e565b97506145c283614575565b9250506001810190506145a3565b5085935050505092915050565b5f60e0820190506145f05f83018a614517565b818103602083015261460281896140a9565b9050818103604083015261461681886140a9565b90506146256060830187614049565b6146326080830186614156565b61463f60a08301856141c5565b81810360c08301526146518184614581565b905098975050505050505050565b5f5f6040838503121561467557614674613f00565b5b5f61468285828601614001565b925050602061469385828601614253565b9150509250929050565b6146a681613f88565b81146146b0575f5ffd5b50565b5f813590506146c18161469d565b92915050565b5f5f604083850312156146dd576146dc613f00565b5b5f6146ea85828601614001565b92505060206146fb858286016146b3565b9150509250929050565b5f5ffd5b7f4e487b71000000000000000000000000000000000000000000000000000000005f52604160045260245ffd5b61473f82614099565b810181811067ffffffffffffffff8211171561475e5761475d614709565b5b80604052505050565b5f614770613ef7565b905061477c8282614736565b919050565b5f67ffffffffffffffff82111561479b5761479a614709565b5b6147a482614099565b9050602081019050919050565b828183375f83830152505050565b5f6147d16147cc84614781565b614767565b9050828152602081018484840111156147ed576147ec614705565b5b6147f88482856147b1565b509392505050565b5f82601f830112614814576148136143e1565b5b81356148248482602086016147bf565b91505092915050565b5f5f5f5f6080858703121561484557614844613f00565b5b5f61485287828801614001565b945050602061486387828801614001565b935050604061487487828801614117565b925050606085013567ffffffffffffffff81111561489557614894613f04565b5b6148a187828801614800565b91505092959194509250565b5f6020820190508181035f8301526148c58184614581565b905092915050565b5f5f5f5f608085870312156148e5576148e4613f00565b5b5f6148f287828801614001565b9450506020614903878288016143cd565b9350506040614914878288016143cd565b925050606061492587828801614253565b91505092959194509250565b61493a8161436b565b82525050565b614949816142d0565b82525050565b5f60c0820190506149625f830189614156565b61496f60208301886141c5565b61497c6040830187614931565b6149896060830186614940565b6149966080830185614940565b6149a360a0830184613f93565b979650505050505050565b5f5f604083850312156149c4576149c3613f00565b5b5f6149d185828601614001565b92505060206149e285828601614001565b9150509250929050565b5f60a0820190506149ff5f830188613f93565b614a0c6020830187614156565b614a196040830186614156565b614a2660608301856141c5565b614a336080830184614931565b9695505050505050565b7f4e487b71000000000000000000000000000000000000000000000000000000005f52602260045260245ffd5b5f6002820490506001821680614a8157607f821691505b602082108103614a9457614a93614a3d565b5b50919050565b7f5342543a20617070726f76616c732064697361626c65640000000000000000005f82015250565b5f614ace60178361407b565b9150614ad982614a9a565b602082019050919050565b5f6020820190508181035f830152614afb81614ac2565b9050919050565b7f6e6f20746f6b656e0000000000000000000000000000000000000000000000005f82015250565b5f614b3660088361407b565b9150614b4182614b02565b602082019050919050565b5f6020820190508181035f830152614b6381614b2a565b9050919050565b7f616c7265616479207265766f6b656400000000000000000000000000000000005f82015250565b5f614b9e600f8361407b565b9150614ba982614b6a565b602082019050919050565b5f6020820190508181035f830152614bcb81614b92565b9050919050565b7f6e6f2061757468000000000000000000000000000000000000000000000000005f82015250565b5f614c0660078361407b565b9150614c1182614bd2565b602082019050919050565b5f6020820190508181035f830152614c3381614bfa565b9050919050565b7f4e487b71000000000000000000000000000000000000000000000000000000005f52601160045260245ffd5b5f614c7182614040565b9150614c7c83614040565b9250828202614c8a81614040565b91508282048414831517614ca157614ca0614c3a565b5b5092915050565b5f614cb282614040565b9150614cbd83614040565b9250828203905081811115614cd557614cd4614c3a565b5b92915050565b5f602082019050614cee5f830184614931565b92915050565b5f606082019050614d075f830186614156565b614d146020830185614049565b614d216040830184614156565b949350505050565b5f614d3382614040565b9150614d3e83614040565b9250828201905080821115614d5657614d55614c3a565b5b92915050565b7f626164206c6561726e65720000000000000000000000000000000000000000005f82015250565b5f614d90600b8361407b565b9150614d9b82614d5c565b602082019050919050565b5f6020820190508181035f830152614dbd81614d84565b9050919050565b7f62616420686173680000000000000000000000000000000000000000000000005f82015250565b5f614df860088361407b565b9150614e0382614dc4565b602082019050919050565b5f6020820190508181035f830152614e2581614dec565b9050919050565b7f6c6576656c20312e2e31303000000000000000000000000000000000000000005f82015250565b5f614e60600c8361407b565b9150614e6b82614e2c565b602082019050919050565b5f6020820190508181035f830152614e8d81614e54565b9050919050565b5f614e9e82614040565b91507fffffffffffffffffffffffffffffffffffffffffffffffffffffffffffffffff8203614ed057614ecf614c3a565b5b600182019050919050565b5f608082019050614eee5f8301876141c5565b614efb6020830186614940565b614f086040830185614940565b614f156060830184614931565b95945050505050565b7f62616420726566000000000000000000000000000000000000000000000000005f82015250565b5f614f5260078361407b565b9150614f5d82614f1e565b602082019050919050565b5f6020820190508181035f830152614f7f81614f46565b9050919050565b7f72656620757365640000000000000000000000000000000000000000000000005f82015250565b5f614fba60088361407b565b9150614fc582614f86565b602082019050919050565b5f6020820190508181035f830152614fe781614fae565b9050919050565b7f77656967687420312e2e313030300000000000000000000000000000000000005f82015250565b5f615022600e8361407b565b915061502d82614fee565b602082019050919050565b5f6020820190508181035f83015261504f81615016565b9050919050565b5f6150608261436b565b915061506b8361436b565b9250828201905067ffffffffffffffff81111561508b5761508a614c3a565b5b92915050565b7f66757475726520747300000000000000000000000000000000000000000000005f82015250565b5f6150c560098361407b565b91506150d082615091565b602082019050919050565b5f6020820190508181035f8301526150f2816150b9565b9050919050565b615102816143a8565b82525050565b5f60c08201905061511b5f8301896141c5565b6151286020830188614156565b6151356040830187614931565b61514260608301866150f9565b61514f60808301856150f9565b61515c60a08301846141c5565b979650505050505050565b7f62616420736967000000000000000000000000000000000000000000000000005f82015250565b5f61519b60078361407b565b91506151a682615167565b602082019050919050565b5f6020820190508181035f8301526151c88161518f565b9050919050565b5f6080820190506151e25f8301876150f9565b6151ef60208301866150f9565b6151fc60408301856141c5565b6152096060830184614931565b95945050505050565b5f81905092915050565b7f646174613a746578742f706c61696e2c536b696c6c4c656467657225323043725f8201527f6564656e7469616c253230230000000000000000000000000000000000000000602082015250565b5f615276602c83615212565b91506152818261521c565b602c82019050919050565b5f61529682614071565b6152a08185615212565b93506152b081856020860161408b565b80840191505092915050565b7f25323068617368253341307800000000000000000000000000000000000000005f82015250565b5f6152f0600c83615212565b91506152fb826152bc565b600c82019050919050565b5f6153108261526a565b915061531c828561528c565b9150615327826152e4565b9150615333828461528c565b91508190509392505050565b7f5265656e7472616e637947756172643a207265656e7472616e742063616c6c005f82015250565b5f615373601f8361407b565b915061537e8261533f565b602082019050919050565b5f6020820190508181035f8301526153a081615367565b9050919050565b7f5342543a206e6f6e2d7472616e7366657261626c6500000000000000000000005f82015250565b5f6153db60158361407b565b91506153e6826153a7565b602082019050919050565b5f6020820190508181035f830152615408816153cf565b9050919050565b7f4e487b71000000000000000000000000000000000000000000000000000000005f52601260045260245ffd5b5f61544682614040565b915061545183614040565b9250826154615761546061540f565b5b828204905092915050565b5f81519050919050565b5f82825260208201905092915050565b5f6154908261546c565b61549a8185615476565b93506154aa81856020860161408b565b6154b381614099565b840191505092915050565b5f6080820190506154d15f830187614156565b6154de6020830186614156565b6154eb6040830185614049565b81810360608301526154fd8184615486565b905095945050505050565b5f8151905061551681613f33565b92915050565b5f6020828403121561553157615530613f00565b5b5f61553e84828501615508565b91505092915050565b7f4e487b71000000000000000000000000000000000000000000000000000000005f52603260045260245ffd5b5f6040820190506155875f830185614156565b61559460208301846141c5565b9392505050565b7f4e487b71000000000000000000000000000000000000000000000000000000005f52602160045260245ffd5b5f6040820190506155db5f830185614156565b6155e86020830184614049565b9392505050565b5f60a0820190506156025f8301886141c5565b61560f60208301876141c5565b61561c60408301866141c5565b6156296060830185614049565b6156366080830184614156565b9695505050505050565b5f60ff82169050919050565b61565581615640565b82525050565b5f60808201905061566e5f8301876141c5565b61567b602083018661564c565b61568860408301856141c5565b61569560608301846141c5565b9594505050505056fea2646970667358221220c10d135e3b11119345ebc9eaf5264ac6ae542bf4d709ad5d9c2aa94aeec52af964736f6c634300081e0033",
			"opcodes": "PUSH2 0x160 PUSH1 0x40 MSTORE PUSH1 0x1 PUSH1 0xA SSTORE CALLVALUE DUP1 ISZERO PUSH2 0x15 JUMPI PUSH0 PUSH0 REVERT JUMPDEST POP PUSH1 0x40 MLOAD PUSH2 0x60CB CODESIZE SUB DUP1 PUSH2 0x60CB DUP4 CODECOPY DUP2 DUP2 ADD PUSH1 0x40 MSTORE DUP2 ADD SWAP1 PUSH2 0x37 SWAP2 SWAP1 PUSH2 0x4CF JUMP JUMPDEST PUSH1 0x40 MLOAD DUP1 PUSH1 0x40 ADD PUSH1 0x40 MSTORE DUP1 PUSH1 0xB DUP2 MSTORE PUSH1 0x20 ADD PUSH32 0x536B696C6C4C6564676572000000000000000000000000000000000000000000 DUP2 MSTORE POP PUSH1 0x40 MLOAD DUP1 PUSH1 0x40 ADD PUSH1 0x40 MSTORE DUP1 PUSH1 0x1 DUP2 MSTORE PUSH1 0x20 ADD PUSH32 0x3100000000000000000000000000000000000000000000000000000000000000 DUP2 MSTORE POP PUSH1 0x40 MLOAD DUP1 PUSH1 0x40 ADD PUSH1 0x40 MSTORE DUP1 PUSH1 0x16 DUP2 MSTORE PUSH1 0x20 ADD PUSH32 0x536B696C6C4C65646765722043726564656E7469616C00000000000000000000 DUP2 MSTORE POP PUSH1 0x40 MLOAD DUP1 PUSH1 0x40 ADD PUSH1 0x40 MSTORE DUP1 PUSH1 0xA DUP2 MSTORE PUSH1 0x20 ADD PUSH32 0x534B494C4C2D4352454400000000000000000000000000000000000000000000 DUP2 MSTORE POP DUP2 PUSH0 SWAP1 DUP2 PUSH2 0x11D SWAP2 SWAP1 PUSH2 0x737 JUMP JUMPDEST POP DUP1 PUSH1 0x1 SWAP1 DUP2 PUSH2 0x12D SWAP2 SWAP1 PUSH2 0x737 JUMP JUMPDEST POP POP POP PUSH2 0x144 PUSH1 0x7 DUP4 PUSH2 0x1FB PUSH1 0x20 SHL SWAP1 SWAP2 SWAP1 PUSH1 0x20 SHR JUMP JUMPDEST PUSH2 0x120 DUP2 DUP2 MSTORE POP POP PUSH2 0x160 PUSH1 0x8 DUP3 PUSH2 0x1FB PUSH1 0x20 SHL SWAP1 SWAP2 SWAP1 PUSH1 0x20 SHR JUMP JUMPDEST PUSH2 0x140 DUP2 DUP2 MSTORE POP POP DUP2 DUP1 MLOAD SWAP1 PUSH1 0x20 ADD KECCAK256 PUSH1 0xE0 DUP2 DUP2 MSTORE POP POP DUP1 DUP1 MLOAD SWAP1 PUSH1 0x20 ADD KECCAK256 PUSH2 0x100 DUP2 DUP2 MSTORE POP POP CHAINID PUSH1 0xA0 DUP2 DUP2 MSTORE POP POP PUSH2 0x19D PUSH2 0x248 PUSH1 0x20 SHL PUSH1 0x20 SHR JUMP JUMPDEST PUSH1 0x80 DUP2 DUP2 MSTORE POP POP ADDRESS PUSH20 0xFFFFFFFFFFFFFFFFFFFFFFFFFFFFFFFFFFFFFFFF AND PUSH1 0xC0 DUP2 PUSH20 0xFFFFFFFFFFFFFFFFFFFFFFFFFFFFFFFFFFFFFFFF AND DUP2 MSTORE POP POP POP POP PUSH1 0x1 PUSH1 0x9 DUP2 SWAP1 SSTORE POP PUSH2 0x1F4 PUSH0 PUSH0 SHL DUP3 PUSH2 0x2A2 PUSH1 0x20 SHL PUSH1 0x20 SHR JUMP JUMPDEST POP POP PUSH2 0x9A6 JUMP JUMPDEST PUSH0 PUSH1 0x20 DUP4 MLOAD LT ISZERO PUSH2 0x21C JUMPI PUSH2 0x215 DUP4 PUSH2 0x398 PUSH1 0x20 SHL PUSH1 0x20 SHR JUMP JUMPDEST SWAP1 POP PUSH2 0x242 JUMP JUMPDEST DUP3 PUSH2 0x22C DUP4 PUSH2 0x3FD PUSH1 0x20 SHL PUSH1 0x20 SHR JUMP JUMPDEST PUSH0 ADD SWAP1 DUP2 PUSH2 0x23A SWAP2 SWAP1 PUSH2 0x737 JUMP JUMPDEST POP PUSH1 0xFF PUSH0 SHL SWAP1 POP JUMPDEST SWAP3 SWAP2 POP POP JUMP JUMPDEST PUSH0 PUSH32 0x8B73C3C69BB8FE3D512ECC4CF759CC79239F7B179B0FFACAA9A75D522B39400F PUSH1 0xE0 MLOAD PUSH2 0x100 MLOAD CHAINID ADDRESS PUSH1 0x40 MLOAD PUSH1 0x20 ADD PUSH2 0x287 SWAP6 SWAP5 SWAP4 SWAP3 SWAP2 SWAP1 PUSH2 0x83C JUMP JUMPDEST PUSH1 0x40 MLOAD PUSH1 0x20 DUP2 DUP4 SUB SUB DUP2 MSTORE SWAP1 PUSH1 0x40 MSTORE DUP1 MLOAD SWAP1 PUSH1 0x20 ADD KECCAK256 SWAP1 POP SWAP1 JUMP JUMPDEST PUSH0 PUSH2 0x2B3 DUP4 DUP4 PUSH2 0x406 PUSH1 0x20 SHL PUSH1 0x20 SHR JUMP JUMPDEST PUSH2 0x38E JUMPI PUSH1 0x1 PUSH1 0x6 PUSH0 DUP6 DUP2 MSTORE PUSH1 0x20 ADD SWAP1 DUP2 MSTORE PUSH1 0x20 ADD PUSH0 KECCAK256 PUSH0 ADD PUSH0 DUP5 PUSH20 0xFFFFFFFFFFFFFFFFFFFFFFFFFFFFFFFFFFFFFFFF AND PUSH20 0xFFFFFFFFFFFFFFFFFFFFFFFFFFFFFFFFFFFFFFFF AND DUP2 MSTORE PUSH1 0x20 ADD SWAP1 DUP2 MSTORE PUSH1 0x20 ADD PUSH0 KECCAK256 PUSH0 PUSH2 0x100 EXP DUP2 SLOAD DUP2 PUSH1 0xFF MUL NOT AND SWAP1 DUP4 ISZERO ISZERO MUL OR SWAP1 SSTORE POP PUSH2 0x32B PUSH2 0x46A PUSH1 0x20 SHL PUSH1 0x20 SHR JUMP JUMPDEST PUSH20 0xFFFFFFFFFFFFFFFFFFFFFFFFFFFFFFFFFFFFFFFF AND DUP3 PUSH20 0xFFFFFFFFFFFFFFFFFFFFFFFFFFFFFFFFFFFFFFFF AND DUP5 PUSH32 0x2F8788117E7EFF1D82E926EC794901D17C78024A50270940304540A733656F0D PUSH1 0x40 MLOAD PUSH1 0x40 MLOAD DUP1 SWAP2 SUB SWAP1 LOG4 PUSH1 0x1 SWAP1 POP PUSH2 0x392 JUMP JUMPDEST PUSH0 SWAP1 POP JUMPDEST SWAP3 SWAP2 POP POP JUMP JUMPDEST PUSH0 PUSH0 DUP3 SWAP1 POP PUSH1 0x1F DUP2 MLOAD GT ISZERO PUSH2 0x3E4 JUMPI DUP3 PUSH1 0x40 MLOAD PUSH32 0x305A27A900000000000000000000000000000000000000000000000000000000 DUP2 MSTORE PUSH1 0x4 ADD PUSH2 0x3DB SWAP2 SWAP1 PUSH2 0x8F3 JUMP JUMPDEST PUSH1 0x40 MLOAD DUP1 SWAP2 SUB SWAP1 REVERT JUMPDEST DUP1 MLOAD DUP2 PUSH2 0x3F0 SWAP1 PUSH2 0x940 JUMP JUMPDEST PUSH0 SHR OR PUSH0 SHL SWAP2 POP POP SWAP2 SWAP1 POP JUMP JUMPDEST PUSH0 DUP2 SWAP1 POP SWAP2 SWAP1 POP JUMP JUMPDEST PUSH0 PUSH1 0x6 PUSH0 DUP5 DUP2 MSTORE PUSH1 0x20 ADD SWAP1 DUP2 MSTORE PUSH1 0x20 ADD PUSH0 KECCAK256 PUSH0 ADD PUSH0 DUP4 PUSH20 0xFFFFFFFFFFFFFFFFFFFFFFFFFFFFFFFFFFFFFFFF AND PUSH20 0xFFFFFFFFFFFFFFFFFFFFFFFFFFFFFFFFFFFFFFFF AND DUP2 MSTORE PUSH1 0x20 ADD SWAP1 DUP2 MSTORE PUSH1 0x20 ADD PUSH0 KECCAK256 PUSH0 SWAP1 SLOAD SWAP1 PUSH2 0x100 EXP SWAP1 DIV PUSH1 0xFF AND SWAP1 POP SWAP3 SWAP2 POP POP JUMP JUMPDEST PUSH0 CALLER SWAP1 POP SWAP1 JUMP JUMPDEST PUSH0 PUSH0 REVERT JUMPDEST PUSH0 PUSH20 0xFFFFFFFFFFFFFFFFFFFFFFFFFFFFFFFFFFFFFFFF DUP3 AND SWAP1 POP SWAP2 SWAP1 POP JUMP JUMPDEST PUSH0 PUSH2 0x49E DUP3 PUSH2 0x475 JUMP JUMPDEST SWAP1 POP SWAP2 SWAP1 POP JUMP JUMPDEST PUSH2 0x4AE DUP2 PUSH2 0x494 JUMP JUMPDEST DUP2 EQ PUSH2 0x4B8 JUMPI PUSH0 PUSH0 REVERT JUMPDEST POP JUMP JUMPDEST PUSH0 DUP2 MLOAD SWAP1 POP PUSH2 0x4C9 DUP2 PUSH2 0x4A5 JUMP JUMPDEST SWAP3 SWAP2 POP POP JUMP JUMPDEST PUSH0 PUSH1 0x20 DUP3 DUP5 SUB SLT ISZERO PUSH2 0x4E4 JUMPI PUSH2 0x4E3 PUSH2 0x471 JUMP JUMPDEST JUMPDEST PUSH0 PUSH2 0x4F1 DUP5 DUP3 DUP6 ADD PUSH2 0x4BB JUMP JUMPDEST SWAP2 POP POP SWAP3 SWAP2 POP POP JUMP JUMPDEST PUSH0 DUP2 MLOAD SWAP1 POP SWAP2 SWAP1 POP JUMP JUMPDEST PUSH32 0x4E487B7100000000000000000000000000000000000000000000000000000000 PUSH0 MSTORE PUSH1 0x41 PUSH1 0x4 MSTORE PUSH1 0x24 PUSH0 REVERT JUMPDEST PUSH32 0x4E487B7100000000000000000000000000000000000000000000000000000000 PUSH0 MSTORE PUSH1 0x22 PUSH1 0x4 MSTORE PUSH1 0x24 PUSH0 REVERT JUMPDEST PUSH0 PUSH1 0x2 DUP3 DIV SWAP1 POP PUSH1 0x1 DUP3 AND DUP1 PUSH2 0x575 JUMPI PUSH1 0x7F DUP3 AND SWAP2 POP JUMPDEST PUSH1 0x20 DUP3 LT DUP2 SUB PUSH2 0x588 JUMPI PUSH2 0x587 PUSH2 0x531 JUMP JUMPDEST JUMPDEST POP SWAP2 SWAP1 POP JUMP JUMPDEST PUSH0 DUP2 SWAP1 POP DUP2 PUSH0 MSTORE PUSH1 0x20 PUSH0 KECCAK256 SWAP1 POP SWAP2 SWAP1 POP JUMP JUMPDEST PUSH0 PUSH1 0x20 PUSH1 0x1F DUP4 ADD DIV SWAP1 POP SWAP2 SWAP1 POP JUMP JUMPDEST PUSH0 DUP3 DUP3 SHL SWAP1 POP SWAP3 SWAP2 POP POP JUMP JUMPDEST PUSH0 PUSH1 0x8 DUP4 MUL PUSH2 0x5EA PUSH32 0xFFFFFFFFFFFFFFFFFFFFFFFFFFFFFFFFFFFFFFFFFFFFFFFFFFFFFFFFFFFFFFFF DUP3 PUSH2 0x5AF JUMP JUMPDEST PUSH2 0x5F4 DUP7 DUP4 PUSH2 0x5AF JUMP JUMPDEST SWAP6 POP DUP1 NOT DUP5 AND SWAP4 POP DUP1 DUP7 AND DUP5 OR SWAP3 POP POP POP SWAP4 SWAP3 POP POP POP JUMP JUMPDEST PUSH0 DUP2 SWAP1 POP SWAP2 SWAP1 POP JUMP JUMPDEST PUSH0 DUP2 SWAP1 POP SWAP2 SWAP1 POP JUMP JUMPDEST PUSH0 PUSH2 0x638 PUSH2 0x633 PUSH2 0x62E DUP5 PUSH2 0x60C JUMP JUMPDEST PUSH2 0x615 JUMP JUMPDEST PUSH2 0x60C JUMP JUMPDEST SWAP1 POP SWAP2 SWAP1 POP JUMP JUMPDEST PUSH0 DUP2 SWAP1 POP SWAP2 SWAP1 POP JUMP JUMPDEST PUSH2 0x651 DUP4 PUSH2 0x61E JUMP JUMPDEST PUSH2 0x665 PUSH2 0x65D DUP3 PUSH2 0x63F JUMP JUMPDEST DUP5 DUP5 SLOAD PUSH2 0x5BB JUMP JUMPDEST DUP3 SSTORE POP POP POP POP JUMP JUMPDEST PUSH0 PUSH0 SWAP1 POP SWAP1 JUMP JUMPDEST PUSH2 0x67C PUSH2 0x66D JUMP JUMPDEST PUSH2 0x687 DUP2 DUP5 DUP5 PUSH2 0x648 JUMP JUMPDEST POP POP POP JUMP JUMPDEST JUMPDEST DUP2 DUP2 LT ISZERO PUSH2 0x6AA JUMPI PUSH2 0x69F PUSH0 DUP3 PUSH2 0x674 JUMP JUMPDEST PUSH1 0x1 DUP2 ADD SWAP1 POP PUSH2 0x68D JUMP JUMPDEST POP POP JUMP JUMPDEST PUSH1 0x1F DUP3 GT ISZERO PUSH2 0x6EF JUMPI PUSH2 0x6C0 DUP2 PUSH2 0x58E JUMP JUMPDEST PUSH2 0x6C9 DUP5 PUSH2 0x5A0 JUMP JUMPDEST DUP2 ADD PUSH1 0x20 DUP6 LT ISZERO PUSH2 0x6D8 JUMPI DUP2 SWAP1 POP JUMPDEST PUSH2 0x6EC PUSH2 0x6E4 DUP6 PUSH2 0x5A0 JUMP JUMPDEST DUP4 ADD DUP3 PUSH2 0x68C JUMP JUMPDEST POP POP JUMPDEST POP POP POP JUMP JUMPDEST PUSH0 DUP3 DUP3 SHR SWAP1 POP SWAP3 SWAP2 POP POP JUMP JUMPDEST PUSH0 PUSH2 0x70F PUSH0 NOT DUP5 PUSH1 0x8 MUL PUSH2 0x6F4 JUMP JUMPDEST NOT DUP1 DUP4 AND SWAP2 POP POP SWAP3 SWAP2 POP POP JUMP JUMPDEST PUSH0 PUSH2 0x727 DUP4 DUP4 PUSH2 0x700 JUMP JUMPDEST SWAP2 POP DUP3 PUSH1 0x2 MUL DUP3 OR SWAP1 POP SWAP3 SWAP2 POP POP JUMP JUMPDEST PUSH2 0x740 DUP3 PUSH2 0x4FA JUMP JUMPDEST PUSH8 0xFFFFFFFFFFFFFFFF DUP2 GT ISZERO PUSH2 0x759 JUMPI PUSH2 0x758 PUSH2 0x504 JUMP JUMPDEST JUMPDEST PUSH2 0x763 DUP3 SLOAD PUSH2 0x55E JUMP JUMPDEST PUSH2 0x76E DUP3 DUP3 DUP6 PUSH2 0x6AE JUMP JUMPDEST PUSH0 PUSH1 0x20 SWAP1 POP PUSH1 0x1F DUP4 GT PUSH1 0x1 DUP2 EQ PUSH2 0x79F JUMPI PUSH0 DUP5 ISZERO PUSH2 0x78D JUMPI DUP3 DUP8 ADD MLOAD SWAP1 POP JUMPDEST PUSH2 0x797 DUP6 DUP3 PUSH2 0x71C JUMP JUMPDEST DUP7 SSTORE POP PUSH2 0x7FE JUMP JUMPDEST PUSH1 0x1F NOT DUP5 AND PUSH2 0x7AD DUP7 PUSH2 0x58E JUMP JUMPDEST PUSH0 JUMPDEST DUP3 DUP2 LT ISZERO PUSH2 0x7D4 JUMPI DUP5 DUP10 ADD MLOAD DUP3 SSTORE PUSH1 0x1 DUP3 ADD SWAP2 POP PUSH1 0x20 DUP6 ADD SWAP5 POP PUSH1 0x20 DUP2 ADD SWAP1 POP PUSH2 0x7AF JUMP JUMPDEST DUP7 DUP4 LT ISZERO PUSH2 0x7F1 JUMPI DUP5 DUP10 ADD MLOAD PUSH2 0x7ED PUSH1 0x1F DUP10 AND DUP3 PUSH2 0x700 JUMP JUMPDEST DUP4 SSTORE POP JUMPDEST PUSH1 0x1 PUSH1 0x2 DUP9 MUL ADD DUP9 SSTORE POP POP POP JUMPDEST POP POP POP POP POP POP JUMP JUMPDEST PUSH0 DUP2 SWAP1 POP SWAP2 SWAP1 POP JUMP JUMPDEST PUSH2 0x818 DUP2 PUSH2 0x806 JUMP JUMPDEST DUP3 MSTORE POP POP JUMP JUMPDEST PUSH2 0x827 DUP2 PUSH2 0x60C JUMP JUMPDEST DUP3 MSTORE POP POP JUMP JUMPDEST PUSH2 0x836 DUP2 PUSH2 0x494 JUMP JUMPDEST DUP3 MSTORE POP POP JUMP JUMPDEST PUSH0 PUSH1 0xA0 DUP3 ADD SWAP1 POP PUSH2 0x84F PUSH0 DUP4 ADD DUP9 PUSH2 0x80F JUMP JUMPDEST PUSH2 0x85C PUSH1 0x20 DUP4 ADD DUP8 PUSH2 0x80F JUMP JUMPDEST PUSH2 0x869 PUSH1 0x40 DUP4 ADD DUP7 PUSH2 0x80F JUMP JUMPDEST PUSH2 0x876 PUSH1 0x60 DUP4 ADD DUP6 PUSH2 0x81E JUMP JUMPDEST PUSH2 0x883 PUSH1 0x80 DUP4 ADD DUP5 PUSH2 0x82D JUMP JUMPDEST SWAP7 SWAP6 POP POP POP POP POP POP JUMP JUMPDEST PUSH0 DUP3 DUP3 MSTORE PUSH1 0x20 DUP3 ADD SWAP1 POP SWAP3 SWAP2 POP POP JUMP JUMPDEST DUP3 DUP2 DUP4 MCOPY PUSH0 DUP4 DUP4 ADD MSTORE POP POP POP JUMP JUMPDEST PUSH0 PUSH1 0x1F NOT PUSH1 0x1F DUP4 ADD AND SWAP1 POP SWAP2 SWAP1 POP JUMP JUMPDEST PUSH0 PUSH2 0x8C5 DUP3 PUSH2 0x4FA JUMP JUMPDEST PUSH2 0x8CF DUP2 DUP6 PUSH2 0x88D JUMP JUMPDEST SWAP4 POP PUSH2 0x8DF DUP2 DUP6 PUSH1 0x20 DUP7 ADD PUSH2 0x89D JUMP JUMPDEST PUSH2 0x8E8 DUP2 PUSH2 0x8AB JUMP JUMPDEST DUP5 ADD SWAP2 POP POP SWAP3 SWAP2 POP POP JUMP JUMPDEST PUSH0 PUSH1 0x20 DUP3 ADD SWAP1 POP DUP2 DUP2 SUB PUSH0 DUP4 ADD MSTORE PUSH2 0x90B DUP2 DUP5 PUSH2 0x8BB JUMP JUMPDEST SWAP1 POP SWAP3 SWAP2 POP POP JUMP JUMPDEST PUSH0 DUP2 MLOAD SWAP1 POP SWAP2 SWAP1 POP JUMP JUMPDEST PUSH0 DUP2 SWAP1 POP PUSH1 0x20 DUP3 ADD SWAP1 POP SWAP2 SWAP1 POP JUMP JUMPDEST PUSH0 PUSH2 0x937 DUP3 MLOAD PUSH2 0x806 JUMP JUMPDEST DUP1 SWAP2 POP POP SWAP2 SWAP1 POP JUMP JUMPDEST PUSH0 PUSH2 0x94A DUP3 PUSH2 0x913 JUMP JUMPDEST DUP3 PUSH2 0x954 DUP5 PUSH2 0x91D JUMP JUMPDEST SWAP1 POP PUSH2 0x95F DUP2 PUSH2 0x92C JUMP JUMPDEST SWAP3 POP PUSH1 0x20 DUP3 LT ISZERO PUSH2 0x99F JUMPI PUSH2 0x99A PUSH32 0xFFFFFFFFFFFFFFFFFFFFFFFFFFFFFFFFFFFFFFFFFFFFFFFFFFFFFFFFFFFFFFFF DUP4 PUSH1 0x20 SUB PUSH1 0x8 MUL PUSH2 0x5AF JUMP JUMPDEST DUP4 AND SWAP3 POP JUMPDEST POP POP SWAP2 SWAP1 POP JUMP JUMPDEST PUSH1 0x80 MLOAD PUSH1 0xA0 MLOAD PUSH1 0xC0 MLOAD PUSH1 0xE0 MLOAD PUSH2 0x100 MLOAD PUSH2 0x120 MLOAD PUSH2 0x140 MLOAD PUSH2 0x56D4 PUSH2 0x9F7 PUSH0 CODECOPY PUSH0 PUSH2 0x2BA8 ADD MSTORE PUSH0 PUSH2 0x2B6D ADD MSTORE PUSH0 PUSH2 0x3C40 ADD MSTORE PUSH0 PUSH2 0x3C1F ADD MSTORE PUSH0 PUSH2 0x3375 ADD MSTORE PUSH0 PUSH2 0x33CB ADD MSTORE PUSH0 PUSH2 0x33F4 ADD MSTORE PUSH2 0x56D4 PUSH0 RETURN INVALID PUSH1 0x80 PUSH1 0x40 MSTORE CALLVALUE DUP1 ISZERO PUSH2 0xF JUMPI PUSH0 PUSH0 REVERT JUMPDEST POP PUSH1 0x4 CALLDATASIZE LT PUSH2 0x225 JUMPI PUSH0 CALLDATALOAD PUSH1 0xE0 SHR DUP1 PUSH4 0x796ED77B GT PUSH2 0x12E JUMPI DUP1 PUSH4 0xB88D4FDE GT PUSH2 0xB6 JUMPI DUP1 PUSH4 0xD547741F GT PUSH2 0x7A JUMPI DUP1 PUSH4 0xD547741F EQ PUSH2 0x6E7 JUMPI DUP1 PUSH4 0xD852B9A8 EQ PUSH2 0x703 JUMPI DUP1 PUSH4 0xE0574E3F EQ PUSH2 0x71F JUMPI DUP1 PUSH4 0xE985E9C5 EQ PUSH2 0x754 JUMPI DUP1 PUSH4 0xF2A91B1C EQ PUSH2 0x784 JUMPI PUSH2 0x225 JUMP JUMPDEST DUP1 PUSH4 0xB88D4FDE EQ PUSH2 0x60B JUMPI DUP1 PUSH4 0xC1C2DBDD EQ PUSH2 0x627 JUMPI DUP1 PUSH4 0xC3171BF1 EQ PUSH2 0x657 JUMPI DUP1 PUSH4 0xC40C3250 EQ PUSH2 0x687 JUMPI DUP1 PUSH4 0xC87B56DD EQ PUSH2 0x6B7 JUMPI PUSH2 0x225 JUMP JUMPDEST DUP1 PUSH4 0x95D89B41 GT PUSH2 0xFD JUMPI DUP1 PUSH4 0x95D89B41 EQ PUSH2 0x567 JUMPI DUP1 PUSH4 0x9B356295 EQ PUSH2 0x585 JUMPI DUP1 PUSH4 0xA217FDDF EQ PUSH2 0x5B5 JUMPI DUP1 PUSH4 0xA22CB465 EQ PUSH2 0x5D3 JUMPI DUP1 PUSH4 0xAF5B2291 EQ PUSH2 0x5EF JUMPI PUSH2 0x225 JUMP JUMPDEST DUP1 PUSH4 0x796ED77B EQ PUSH2 0x4DB JUMPI DUP1 PUSH4 0x84B0196E EQ PUSH2 0x4F7 JUMPI DUP1 PUSH4 0x8747D5ED EQ PUSH2 0x51B JUMPI DUP1 PUSH4 0x91D14854 EQ PUSH2 0x537 JUMPI PUSH2 0x225 JUMP JUMPDEST DUP1 PUSH4 0x2F2FF15D GT PUSH2 0x1B1 JUMPI DUP1 PUSH4 0x532CDB5A GT PUSH2 0x180 JUMPI DUP1 PUSH4 0x532CDB5A EQ PUSH2 0x3FD JUMPI DUP1 PUSH4 0x6352211E EQ PUSH2 0x42D JUMPI DUP1 PUSH4 0x69989FFB EQ PUSH2 0x45D JUMPI DUP1 PUSH4 0x70A08231 EQ PUSH2 0x48D JUMPI DUP1 PUSH4 0x75B238FC EQ PUSH2 0x4BD JUMPI PUSH2 0x225 JUMP JUMPDEST DUP1 PUSH4 0x2F2FF15D EQ PUSH2 0x379 JUMPI DUP1 PUSH4 0x36568ABE EQ PUSH2 0x395 JUMPI DUP1 PUSH4 0x42842E0E EQ PUSH2 0x3B1 JUMPI DUP1 PUSH4 0x50D061CB EQ PUSH2 0x3CD JUMPI PUSH2 0x225 JUMP JUMPDEST DUP1 PUSH4 0x95EA7B3 GT PUSH2 0x1F8 JUMPI DUP1 PUSH4 0x95EA7B3 EQ PUSH2 0x2D7 JUMPI DUP1 PUSH4 0x1B87278D EQ PUSH2 0x2F3 JUMPI DUP1 PUSH4 0x1B929C21 EQ PUSH2 0x30F JUMPI DUP1 PUSH4 0x23B872DD EQ PUSH2 0x32D JUMPI DUP1 PUSH4 0x248A9CA3 EQ PUSH2 0x349 JUMPI PUSH2 0x225 JUMP JUMPDEST DUP1 PUSH4 0x1FFC9A7 EQ PUSH2 0x229 JUMPI DUP1 PUSH4 0x5295CBA EQ PUSH2 0x259 JUMPI DUP1 PUSH4 0x6FDDE03 EQ PUSH2 0x289 JUMPI DUP1 PUSH4 0x81812FC EQ PUSH2 0x2A7 JUMPI JUMPDEST PUSH0 PUSH0 REVERT JUMPDEST PUSH2 0x243 PUSH1 0x4 DUP1 CALLDATASIZE SUB DUP2 ADD SWAP1 PUSH2 0x23E SWAP2 SWAP1 PUSH2 0x3F5D JUMP JUMPDEST PUSH2 0x7B8 JUMP JUMPDEST PUSH1 0x40 MLOAD PUSH2 0x250 SWAP2 SWAP1 PUSH2 0x3FA2 JUMP JUMPDEST PUSH1 0x40 MLOAD DUP1 SWAP2 SUB SWAP1 RETURN JUMPDEST PUSH2 0x273 PUSH1 0x4 DUP1 CALLDATASIZE SUB DUP2 ADD SWAP1 PUSH2 0x26E SWAP2 SWAP1 PUSH2 0x4015 JUMP JUMPDEST PUSH2 0x831 JUMP JUMPDEST PUSH1 0x40 MLOAD PUSH2 0x280 SWAP2 SWAP1 PUSH2 0x4058 JUMP JUMPDEST PUSH1 0x40 MLOAD DUP1 SWAP2 SUB SWAP1 RETURN JUMPDEST PUSH2 0x291 PUSH2 0x846 JUMP JUMPDEST PUSH1 0x40 MLOAD PUSH2 0x29E SWAP2 SWAP1 PUSH2 0x40E1 JUMP JUMPDEST PUSH1 0x40 MLOAD DUP1 SWAP2 SUB SWAP1 RETURN JUMPDEST PUSH2 0x2C1 PUSH1 0x4 DUP1 CALLDATASIZE SUB DUP2 ADD SWAP1 PUSH2 0x2BC SWAP2 SWAP1 PUSH2 0x412B JUMP JUMPDEST PUSH2 0x8D5 JUMP JUMPDEST PUSH1 0x40 MLOAD PUSH2 0x2CE SWAP2 SWAP1 PUSH2 0x4165 JUMP JUMPDEST PUSH1 0x40 MLOAD DUP1 SWAP2 SUB SWAP1 RETURN JUMPDEST PUSH2 0x2F1 PUSH1 0x4 DUP1 CALLDATASIZE SUB DUP2 ADD SWAP1 PUSH2 0x2EC SWAP2 SWAP1 PUSH2 0x417E JUMP JUMPDEST PUSH2 0x8F0 JUMP JUMPDEST STOP JUMPDEST PUSH2 0x30D PUSH1 0x4 DUP1 CALLDATASIZE SUB DUP2 ADD SWAP1 PUSH2 0x308 SWAP2 SWAP1 PUSH2 0x412B JUMP JUMPDEST PUSH2 0x92B JUMP JUMPDEST STOP JUMPDEST PUSH2 0x317 PUSH2 0xC00 JUMP JUMPDEST PUSH1 0x40 MLOAD PUSH2 0x324 SWAP2 SWAP1 PUSH2 0x41D4 JUMP JUMPDEST PUSH1 0x40 MLOAD DUP1 SWAP2 SUB SWAP1 RETURN JUMPDEST PUSH2 0x347 PUSH1 0x4 DUP1 CALLDATASIZE SUB DUP2 ADD SWAP1 PUSH2 0x342 SWAP2 SWAP1 PUSH2 0x41ED JUMP JUMPDEST PUSH2 0xC24 JUMP JUMPDEST STOP JUMPDEST PUSH2 0x363 PUSH1 0x4 DUP1 CALLDATASIZE SUB DUP2 ADD SWAP1 PUSH2 0x35E SWAP2 SWAP1 PUSH2 0x4267 JUMP JUMPDEST PUSH2 0xD23 JUMP JUMPDEST PUSH1 0x40 MLOAD PUSH2 0x370 SWAP2 SWAP1 PUSH2 0x41D4 JUMP JUMPDEST PUSH1 0x40 MLOAD DUP1 SWAP2 SUB SWAP1 RETURN JUMPDEST PUSH2 0x393 PUSH1 0x4 DUP1 CALLDATASIZE SUB DUP2 ADD SWAP1 PUSH2 0x38E SWAP2 SWAP1 PUSH2 0x4292 JUMP JUMPDEST PUSH2 0xD40 JUMP JUMPDEST STOP JUMPDEST PUSH2 0x3AF PUSH1 0x4 DUP1 CALLDATASIZE SUB DUP2 ADD SWAP1 PUSH2 0x3AA SWAP2 SWAP1 PUSH2 0x4292 JUMP JUMPDEST PUSH2 0xD62 JUMP JUMPDEST STOP JUMPDEST PUSH2 0x3CB PUSH1 0x4 DUP1 CALLDATASIZE SUB DUP2 ADD SWAP1 PUSH2 0x3C6 SWAP2 SWAP1 PUSH2 0x41ED JUMP JUMPDEST PUSH2 0xDDD JUMP JUMPDEST STOP JUMPDEST PUSH2 0x3E7 PUSH1 0x4 DUP1 CALLDATASIZE SUB DUP2 ADD SWAP1 PUSH2 0x3E2 SWAP2 SWAP1 PUSH2 0x4015 JUMP JUMPDEST PUSH2 0xDFC JUMP JUMPDEST PUSH1 0x40 MLOAD PUSH2 0x3F4 SWAP2 SWAP1 PUSH2 0x4058 JUMP JUMPDEST PUSH1 0x40 MLOAD DUP1 SWAP2 SUB SWAP1 RETURN JUMPDEST PUSH2 0x417 PUSH1 0x4 DUP1 CALLDATASIZE SUB DUP2 ADD SWAP1 PUSH2 0x412 SWAP2 SWAP1 PUSH2 0x4307 JUMP JUMPDEST PUSH2 0xF1E JUMP JUMPDEST PUSH1 0x40 MLOAD PUSH2 0x424 SWAP2 SWAP1 PUSH2 0x4058 JUMP JUMPDEST PUSH1 0x40 MLOAD DUP1 SWAP2 SUB SWAP1 RETURN JUMPDEST PUSH2 0x447 PUSH1 0x4 DUP1 CALLDATASIZE SUB DUP2 ADD SWAP1 PUSH2 0x442 SWAP2 SWAP1 PUSH2 0x412B JUMP JUMPDEST PUSH2 0x1365 JUMP JUMPDEST PUSH1 0x40 MLOAD PUSH2 0x454 SWAP2 SWAP1 PUSH2 0x4165 JUMP JUMPDEST PUSH1 0x40 MLOAD DUP1 SWAP2 SUB SWAP1 RETURN JUMPDEST PUSH2 0x477 PUSH1 0x4 DUP1 CALLDATASIZE SUB DUP2 ADD SWAP1 PUSH2 0x472 SWAP2 SWAP1 PUSH2 0x4015 JUMP JUMPDEST PUSH2 0x1376 JUMP JUMPDEST PUSH1 0x40 MLOAD PUSH2 0x484 SWAP2 SWAP1 PUSH2 0x4058 JUMP JUMPDEST PUSH1 0x40 MLOAD DUP1 SWAP2 SUB SWAP1 RETURN JUMPDEST PUSH2 0x4A7 PUSH1 0x4 DUP1 CALLDATASIZE SUB DUP2 ADD SWAP1 PUSH2 0x4A2 SWAP2 SWAP1 PUSH2 0x4015 JUMP JUMPDEST PUSH2 0x138B JUMP JUMPDEST PUSH1 0x40 MLOAD PUSH2 0x4B4 SWAP2 SWAP1 PUSH2 0x4058 JUMP JUMPDEST PUSH1 0x40 MLOAD DUP1 SWAP2 SUB SWAP1 RETURN JUMPDEST PUSH2 0x4C5 PUSH2 0x1441 JUMP JUMPDEST PUSH1 0x40 MLOAD PUSH2 0x4D2 SWAP2 SWAP1 PUSH2 0x41D4 JUMP JUMPDEST PUSH1 0x40 MLOAD DUP1 SWAP2 SUB SWAP1 RETURN JUMPDEST PUSH2 0x4F5 PUSH1 0x4 DUP1 CALLDATASIZE SUB DUP2 ADD SWAP1 PUSH2 0x4F0 SWAP2 SWAP1 PUSH2 0x4442 JUMP JUMPDEST PUSH2 0x1447 JUMP JUMPDEST STOP JUMPDEST PUSH2 0x4FF PUSH2 0x192B JUMP JUMPDEST PUSH1 0x40 MLOAD PUSH2 0x512 SWAP8 SWAP7 SWAP6 SWAP5 SWAP4 SWAP3 SWAP2 SWAP1 PUSH2 0x45DD JUMP JUMPDEST PUSH1 0x40 MLOAD DUP1 SWAP2 SUB SWAP1 RETURN JUMPDEST PUSH2 0x535 PUSH1 0x4 DUP1 CALLDATASIZE SUB DUP2 ADD SWAP1 PUSH2 0x530 SWAP2 SWAP1 PUSH2 0x4015 JUMP JUMPDEST PUSH2 0x19D0 JUMP JUMPDEST STOP JUMPDEST PUSH2 0x551 PUSH1 0x4 DUP1 CALLDATASIZE SUB DUP2 ADD SWAP1 PUSH2 0x54C SWAP2 SWAP1 PUSH2 0x4292 JUMP JUMPDEST PUSH2 0x1A4E JUMP JUMPDEST PUSH1 0x40 MLOAD PUSH2 0x55E SWAP2 SWAP1 PUSH2 0x3FA2 JUMP JUMPDEST PUSH1 0x40 MLOAD DUP1 SWAP2 SUB SWAP1 RETURN JUMPDEST PUSH2 0x56F PUSH2 0x1AB2 JUMP JUMPDEST PUSH1 0x40 MLOAD PUSH2 0x57C SWAP2 SWAP1 PUSH2 0x40E1 JUMP JUMPDEST PUSH1 0x40 MLOAD DUP1 SWAP2 SUB SWAP1 RETURN JUMPDEST PUSH2 0x59F PUSH1 0x4 DUP1 CALLDATASIZE SUB DUP2 ADD SWAP1 PUSH2 0x59A SWAP2 SWAP1 PUSH2 0x465F JUMP JUMPDEST PUSH2 0x1B42 JUMP JUMPDEST PUSH1 0x40 MLOAD PUSH2 0x5AC SWAP2 SWAP1 PUSH2 0x3FA2 JUMP JUMPDEST PUSH1 0x40 MLOAD DUP1 SWAP2 SUB SWAP1 RETURN JUMPDEST PUSH2 0x5BD PUSH2 0x1B6C JUMP JUMPDEST PUSH1 0x40 MLOAD PUSH2 0x5CA SWAP2 SWAP1 PUSH2 0x41D4 JUMP JUMPDEST PUSH1 0x40 MLOAD DUP1 SWAP2 SUB SWAP1 RETURN JUMPDEST PUSH2 0x5ED PUSH1 0x4 DUP1 CALLDATASIZE SUB DUP2 ADD SWAP1 PUSH2 0x5E8 SWAP2 SWAP1 PUSH2 0x46C7 JUMP JUMPDEST PUSH2 0x1B72 JUMP JUMPDEST STOP JUMPDEST PUSH2 0x609 PUSH1 0x4 DUP1 CALLDATASIZE SUB DUP2 ADD SWAP1 PUSH2 0x604 SWAP2 SWAP1 PUSH2 0x4015 JUMP JUMPDEST PUSH2 0x1BAD JUMP JUMPDEST STOP JUMPDEST PUSH2 0x625 PUSH1 0x4 DUP1 CALLDATASIZE SUB DUP2 ADD SWAP1 PUSH2 0x620 SWAP2 SWAP1 PUSH2 0x482D JUMP JUMPDEST PUSH2 0x1C2B JUMP JUMPDEST STOP JUMPDEST PUSH2 0x641 PUSH1 0x4 DUP1 CALLDATASIZE SUB DUP2 ADD SWAP1 PUSH2 0x63C SWAP2 SWAP1 PUSH2 0x4015 JUMP JUMPDEST PUSH2 0x1C50 JUMP JUMPDEST PUSH1 0x40 MLOAD PUSH2 0x64E SWAP2 SWAP1 PUSH2 0x4058 JUMP JUMPDEST PUSH1 0x40 MLOAD DUP1 SWAP2 SUB SWAP1 RETURN JUMPDEST PUSH2 0x671 PUSH1 0x4 DUP1 CALLDATASIZE SUB DUP2 ADD SWAP1 PUSH2 0x66C SWAP2 SWAP1 PUSH2 0x4015 JUMP JUMPDEST PUSH2 0x1C65 JUMP JUMPDEST PUSH1 0x40 MLOAD PUSH2 0x67E SWAP2 SWAP1 PUSH2 0x4058 JUMP JUMPDEST PUSH1 0x40 MLOAD DUP1 SWAP2 SUB SWAP1 RETURN JUMPDEST PUSH2 0x6A1 PUSH1 0x4 DUP1 CALLDATASIZE SUB DUP2 ADD SWAP1 PUSH2 0x69C SWAP2 SWAP1 PUSH2 0x4015 JUMP JUMPDEST PUSH2 0x1C7A JUMP JUMPDEST PUSH1 0x40 MLOAD PUSH2 0x6AE SWAP2 SWAP1 PUSH2 0x48AD JUMP JUMPDEST PUSH1 0x40 MLOAD DUP1 SWAP2 SUB SWAP1 RETURN JUMPDEST PUSH2 0x6D1 PUSH1 0x4 DUP1 CALLDATASIZE SUB DUP2 ADD SWAP1 PUSH2 0x6CC SWAP2 SWAP1 PUSH2 0x412B JUMP JUMPDEST PUSH2 0x1D0D JUMP JUMPDEST PUSH1 0x40 MLOAD PUSH2 0x6DE SWAP2 SWAP1 PUSH2 0x40E1 JUMP JUMPDEST PUSH1 0x40 MLOAD DUP1 SWAP2 SUB SWAP1 RETURN JUMPDEST PUSH2 0x701 PUSH1 0x4 DUP1 CALLDATASIZE SUB DUP2 ADD SWAP1 PUSH2 0x6FC SWAP2 SWAP1 PUSH2 0x4292 JUMP JUMPDEST PUSH2 0x1ECC JUMP JUMPDEST STOP JUMPDEST PUSH2 0x71D PUSH1 0x4 DUP1 CALLDATASIZE SUB DUP2 ADD SWAP1 PUSH2 0x718 SWAP2 SWAP1 PUSH2 0x48CD JUMP JUMPDEST PUSH2 0x1EEE JUMP JUMPDEST STOP JUMPDEST PUSH2 0x739 PUSH1 0x4 DUP1 CALLDATASIZE SUB DUP2 ADD SWAP1 PUSH2 0x734 SWAP2 SWAP1 PUSH2 0x412B JUMP JUMPDEST PUSH2 0x22BD JUMP JUMPDEST PUSH1 0x40 MLOAD PUSH2 0x74B SWAP7 SWAP6 SWAP5 SWAP4 SWAP3 SWAP2 SWAP1 PUSH2 0x494F JUMP JUMPDEST PUSH1 0x40 MLOAD DUP1 SWAP2 SUB SWAP1 RETURN JUMPDEST PUSH2 0x76E PUSH1 0x4 DUP1 CALLDATASIZE SUB DUP2 ADD SWAP1 PUSH2 0x769 SWAP2 SWAP1 PUSH2 0x49AE JUMP JUMPDEST PUSH2 0x2350 JUMP JUMPDEST PUSH1 0x40 MLOAD PUSH2 0x77B SWAP2 SWAP1 PUSH2 0x3FA2 JUMP JUMPDEST PUSH1 0x40 MLOAD DUP1 SWAP2 SUB SWAP1 RETURN JUMPDEST PUSH2 0x79E PUSH1 0x4 DUP1 CALLDATASIZE SUB DUP2 ADD SWAP1 PUSH2 0x799 SWAP2 SWAP1 PUSH2 0x412B JUMP JUMPDEST PUSH2 0x23DE JUMP JUMPDEST PUSH1 0x40 MLOAD PUSH2 0x7AF SWAP6 SWAP5 SWAP4 SWAP3 SWAP2 SWAP1 PUSH2 0x49EC JUMP JUMPDEST PUSH1 0x40 MLOAD DUP1 SWAP2 SUB SWAP1 RETURN JUMPDEST PUSH0 PUSH32 0xA2797AD700000000000000000000000000000000000000000000000000000000 PUSH28 0xFFFFFFFFFFFFFFFFFFFFFFFFFFFFFFFFFFFFFFFFFFFFFFFFFFFFFFFF NOT AND DUP3 PUSH28 0xFFFFFFFFFFFFFFFFFFFFFFFFFFFFFFFFFFFFFFFFFFFFFFFFFFFFFFFF NOT AND EQ DUP1 PUSH2 0x82A JUMPI POP PUSH2 0x829 DUP3 PUSH2 0x25B0 JUMP JUMPDEST JUMPDEST SWAP1 POP SWAP2 SWAP1 POP JUMP JUMPDEST PUSH1 0x10 PUSH1 0x20 MSTORE DUP1 PUSH0 MSTORE PUSH1 0x40 PUSH0 KECCAK256 PUSH0 SWAP2 POP SWAP1 POP SLOAD DUP2 JUMP JUMPDEST PUSH1 0x60 PUSH0 DUP1 SLOAD PUSH2 0x854 SWAP1 PUSH2 0x4A6A JUMP JUMPDEST DUP1 PUSH1 0x1F ADD PUSH1 0x20 DUP1 SWAP2 DIV MUL PUSH1 0x20 ADD PUSH1 0x40 MLOAD SWAP1 DUP2 ADD PUSH1 0x40 MSTORE DUP1 SWAP3 SWAP2 SWAP1 DUP2 DUP2 MSTORE PUSH1 0x20 ADD DUP3 DUP1 SLOAD PUSH2 0x880 SWAP1 PUSH2 0x4A6A JUMP JUMPDEST DUP1 ISZERO PUSH2 0x8CB JUMPI DUP1 PUSH1 0x1F LT PUSH2 0x8A2 JUMPI PUSH2 0x100 DUP1 DUP4 SLOAD DIV MUL DUP4 MSTORE SWAP2 PUSH1 0x20 ADD SWAP2 PUSH2 0x8CB JUMP JUMPDEST DUP3 ADD SWAP2 SWAP1 PUSH0 MSTORE PUSH1 0x20 PUSH0 KECCAK256 SWAP1 JUMPDEST DUP2 SLOAD DUP2 MSTORE SWAP1 PUSH1 0x1 ADD SWAP1 PUSH1 0x20 ADD DUP1 DUP4 GT PUSH2 0x8AE JUMPI DUP3 SWAP1 SUB PUSH1 0x1F AND DUP3 ADD SWAP2 JUMPDEST POP POP POP POP POP SWAP1 POP SWAP1 JUMP JUMPDEST PUSH0 PUSH2 0x8DF DUP3 PUSH2 0x2629 JUMP JUMPDEST POP PUSH2 0x8E9 DUP3 PUSH2 0x26AF JUMP JUMPDEST SWAP1 POP SWAP2 SWAP1 POP JUMP JUMPDEST PUSH1 0x40 MLOAD PUSH32 0x8C379A000000000000000000000000000000000000000000000000000000000 DUP2 MSTORE PUSH1 0x4 ADD PUSH2 0x922 SWAP1 PUSH2 0x4AE4 JUMP JUMPDEST PUSH1 0x40 MLOAD DUP1 SWAP2 SUB SWAP1 REVERT JUMPDEST PUSH2 0x933 PUSH2 0x26E8 JUMP JUMPDEST PUSH0 PUSH20 0xFFFFFFFFFFFFFFFFFFFFFFFFFFFFFFFFFFFFFFFF AND PUSH2 0x953 DUP3 PUSH2 0x2737 JUMP JUMPDEST PUSH20 0xFFFFFFFFFFFFFFFFFFFFFFFFFFFFFFFFFFFFFFFF AND SUB PUSH2 0x9A9 JUMPI PUSH1 0x40 MLOAD PUSH32 0x8C379A000000000000000000000000000000000000000000000000000000000 DUP2 MSTORE PUSH1 0x4 ADD PUSH2 0x9A0 SWAP1 PUSH2 0x4B4C JUMP JUMPDEST PUSH1 0x40 MLOAD DUP1 SWAP2 SUB SWAP1 REVERT JUMPDEST PUSH0 PUSH1 0xB PUSH0 DUP4 DUP2 MSTORE PUSH1 0x20 ADD SWAP1 DUP2 MSTORE PUSH1 0x20 ADD PUSH0 KECCAK256 SWAP1 POP DUP1 PUSH1 0x2 ADD PUSH1 0xC SWAP1 SLOAD SWAP1 PUSH2 0x100 EXP SWAP1 DIV PUSH1 0xFF AND ISZERO PUSH2 0xA0F JUMPI PUSH1 0x40 MLOAD PUSH32 0x8C379A000000000000000000000000000000000000000000000000000000000 DUP2 MSTORE PUSH1 0x4 ADD PUSH2 0xA06 SWAP1 PUSH2 0x4BB4 JUMP JUMPDEST PUSH1 0x40 MLOAD DUP1 SWAP2 SUB SWAP1 REVERT JUMPDEST DUP1 PUSH0 ADD PUSH0 SWAP1 SLOAD SWAP1 PUSH2 0x100 EXP SWAP1 DIV PUSH20 0xFFFFFFFFFFFFFFFFFFFFFFFFFFFFFFFFFFFFFFFF AND PUSH20 0xFFFFFFFFFFFFFFFFFFFFFFFFFFFFFFFFFFFFFFFF AND CALLER PUSH20 0xFFFFFFFFFFFFFFFFFFFFFFFFFFFFFFFFFFFFFFFF AND EQ DUP1 PUSH2 0xA73 JUMPI POP PUSH2 0xA72 PUSH0 PUSH0 SHL CALLER PUSH2 0x1A4E JUMP JUMPDEST JUMPDEST PUSH2 0xAB2 JUMPI PUSH1 0x40 MLOAD PUSH32 0x8C379A000000000000000000000000000000000000000000000000000000000 DUP2 MSTORE PUSH1 0x4 ADD PUSH2 0xAA9 SWAP1 PUSH2 0x4C1C JUMP JUMPDEST PUSH1 0x40 MLOAD DUP1 SWAP2 SUB SWAP1 REVERT JUMPDEST PUSH1 0x1 DUP2 PUSH1 0x2 ADD PUSH1 0xC PUSH2 0x100 EXP DUP2 SLOAD DUP2 PUSH1 0xFF MUL NOT AND SWAP1 DUP4 ISZERO ISZERO MUL OR SWAP1 SSTORE POP PUSH0 PUSH2 0xAD9 DUP4 PUSH2 0x1365 JUMP JUMPDEST SWAP1 POP PUSH1 0xA DUP3 PUSH1 0x2 ADD PUSH1 0x8 SWAP1 SLOAD SWAP1 PUSH2 0x100 EXP SWAP1 DIV PUSH2 0xFFFF AND PUSH2 0xFFFF AND PUSH2 0xAFE SWAP2 SWAP1 PUSH2 0x4C67 JUMP JUMPDEST PUSH1 0xD PUSH0 DUP4 PUSH20 0xFFFFFFFFFFFFFFFFFFFFFFFFFFFFFFFFFFFFFFFF AND PUSH20 0xFFFFFFFFFFFFFFFFFFFFFFFFFFFFFFFFFFFFFFFF AND DUP2 MSTORE PUSH1 0x20 ADD SWAP1 DUP2 MSTORE PUSH1 0x20 ADD PUSH0 KECCAK256 PUSH0 DUP3 DUP3 SLOAD PUSH2 0xB49 SWAP2 SWAP1 PUSH2 0x4CA8 JUMP JUMPDEST SWAP3 POP POP DUP2 SWAP1 SSTORE POP PUSH1 0x1 PUSH1 0xE PUSH0 DUP4 PUSH20 0xFFFFFFFFFFFFFFFFFFFFFFFFFFFFFFFFFFFFFFFF AND PUSH20 0xFFFFFFFFFFFFFFFFFFFFFFFFFFFFFFFFFFFFFFFF AND DUP2 MSTORE PUSH1 0x20 ADD SWAP1 DUP2 MSTORE PUSH1 0x20 ADD PUSH0 KECCAK256 PUSH0 DUP3 DUP3 SLOAD PUSH2 0xB9D SWAP2 SWAP1 PUSH2 0x4CA8 JUMP JUMPDEST SWAP3 POP POP DUP2 SWAP1 SSTORE POP CALLER PUSH20 0xFFFFFFFFFFFFFFFFFFFFFFFFFFFFFFFFFFFFFFFF AND DUP4 PUSH32 0x6C493FF0566A070477058B7E0B09EB1FE5D23DCEC3D8CD145BE7A5680C53BDD3 TIMESTAMP PUSH1 0x40 MLOAD PUSH2 0xBEB SWAP2 SWAP1 PUSH2 0x4CDB JUMP JUMPDEST PUSH1 0x40 MLOAD DUP1 SWAP2 SUB SWAP1 LOG3 POP POP PUSH2 0xBFD PUSH2 0x2770 JUMP JUMPDEST POP JUMP JUMPDEST PUSH32 0x1F18E249044142F95A61B39BAD5F99F3C70699C83BB85A1AD87FE9E68BD85D1 DUP2 JUMP JUMPDEST PUSH0 PUSH20 0xFFFFFFFFFFFFFFFFFFFFFFFFFFFFFFFFFFFFFFFF AND DUP3 PUSH20 0xFFFFFFFFFFFFFFFFFFFFFFFFFFFFFFFFFFFFFFFF AND SUB PUSH2 0xC94 JUMPI PUSH0 PUSH1 0x40 MLOAD PUSH32 0x64A0AE9200000000000000000000000000000000000000000000000000000000 DUP2 MSTORE PUSH1 0x4 ADD PUSH2 0xC8B SWAP2 SWAP1 PUSH2 0x4165 JUMP JUMPDEST PUSH1 0x40 MLOAD DUP1 SWAP2 SUB SWAP1 REVERT JUMPDEST PUSH0 PUSH2 0xCA7 DUP4 DUP4 PUSH2 0xCA2 PUSH2 0x277A JUMP JUMPDEST PUSH2 0x2781 JUMP JUMPDEST SWAP1 POP DUP4 PUSH20 0xFFFFFFFFFFFFFFFFFFFFFFFFFFFFFFFFFFFFFFFF AND DUP2 PUSH20 0xFFFFFFFFFFFFFFFFFFFFFFFFFFFFFFFFFFFFFFFF AND EQ PUSH2 0xD1D JUMPI DUP4 DUP3 DUP3 PUSH1 0x40 MLOAD PUSH32 0x64283D7B00000000000000000000000000000000000000000000000000000000 DUP2 MSTORE PUSH1 0x4 ADD PUSH2 0xD14 SWAP4 SWAP3 SWAP2 SWAP1 PUSH2 0x4CF4 JUMP JUMPDEST PUSH1 0x40 MLOAD DUP1 SWAP2 SUB SWAP1 REVERT JUMPDEST POP POP POP POP JUMP JUMPDEST PUSH0 PUSH1 0x6 PUSH0 DUP4 DUP2 MSTORE PUSH1 0x20 ADD SWAP1 DUP2 MSTORE PUSH1 0x20 ADD PUSH0 KECCAK256 PUSH1 0x1 ADD SLOAD SWAP1 POP SWAP2 SWAP1 POP JUMP JUMPDEST PUSH2 0xD49 DUP3 PUSH2 0xD23 JUMP JUMPDEST PUSH2 0xD52 DUP2 PUSH2 0x2849 JUMP JUMPDEST PUSH2 0xD5C DUP4 DUP4 PUSH2 0x285D JUMP JUMPDEST POP POP POP POP JUMP JUMPDEST PUSH2 0xD6A PUSH2 0x277A JUMP JUMPDEST PUSH20 0xFFFFFFFFFFFFFFFFFFFFFFFFFFFFFFFFFFFFFFFF AND DUP2 PUSH20 0xFFFFFFFFFFFFFFFFFFFFFFFFFFFFFFFFFFFFFFFF AND EQ PUSH2 0xDCE JUMPI PUSH1 0x40 MLOAD PUSH32 0x6697B23200000000000000000000000000000000000000000000000000000000 DUP2 MSTORE PUSH1 0x4 ADD PUSH1 0x40 MLOAD DUP1 SWAP2 SUB SWAP1 REVERT JUMPDEST PUSH2 0xDD8 DUP3 DUP3 PUSH2 0x2947 JUMP JUMPDEST POP POP POP JUMP JUMPDEST PUSH2 0xDF7 DUP4 DUP4 DUP4 PUSH1 0x40 MLOAD DUP1 PUSH1 0x20 ADD PUSH1 0x40 MSTORE DUP1 PUSH0 DUP2 MSTORE POP PUSH2 0x1C2B JUMP JUMPDEST POP POP POP JUMP JUMPDEST PUSH0 PUSH0 PUSH0 PUSH1 0xE PUSH0 DUP6 PUSH20 0xFFFFFFFFFFFFFFFFFFFFFFFFFFFFFFFFFFFFFFFF AND PUSH20 0xFFFFFFFFFFFFFFFFFFFFFFFFFFFFFFFFFFFFFFFF AND DUP2 MSTORE PUSH1 0x20 ADD SWAP1 DUP2 MSTORE PUSH1 0x20 ADD PUSH0 KECCAK256 SLOAD GT PUSH2 0xE48 JUMPI PUSH0 PUSH2 0xE4B JUMP JUMPDEST PUSH1 0xC8 JUMPDEST PUSH1 0xFF AND SWAP1 POP PUSH0 PUSH1 0xD PUSH0 DUP6 PUSH20 0xFFFFFFFFFFFFFFFFFFFFFFFFFFFFFFFFFFFFFFFF AND PUSH20 0xFFFFFFFFFFFFFFFFFFFFFFFFFFFFFFFFFFFFFFFF AND DUP2 MSTORE PUSH1 0x20 ADD SWAP1 DUP2 MSTORE PUSH1 0x20 ADD PUSH0 KECCAK256 SLOAD SWAP1 POP PUSH0 PUSH1 0x14 PUSH2 0xEDA PUSH1 0xF PUSH0 DUP9 PUSH20 0xFFFFFFFFFFFFFFFFFFFFFFFFFFFFFFFFFFFFFFFF AND PUSH20 0xFFFFFFFFFFFFFFFFFFFFFFFFFFFFFFFFFFFFFFFF AND DUP2 MSTORE PUSH1 0x20 ADD SWAP1 DUP2 MSTORE PUSH1 0x20 ADD PUSH0 KECCAK256 SLOAD PUSH2 0x2A31 JUMP JUMPDEST PUSH2 0xEE4 SWAP2 SWAP1 PUSH2 0x4C67 JUMP JUMPDEST SWAP1 POP PUSH0 DUP2 DUP4 DUP6 PUSH2 0xEF4 SWAP2 SWAP1 PUSH2 0x4D29 JUMP JUMPDEST PUSH2 0xEFE SWAP2 SWAP1 PUSH2 0x4D29 JUMP JUMPDEST SWAP1 POP PUSH2 0x2710 DUP2 GT PUSH2 0xF0F JUMPI DUP1 PUSH2 0xF13 JUMP JUMPDEST PUSH2 0x2710 JUMPDEST SWAP5 POP POP POP POP POP SWAP2 SWAP1 POP JUMP JUMPDEST PUSH0 PUSH2 0xF27 PUSH2 0x26E8 JUMP JUMPDEST PUSH32 0x1F18E249044142F95A61B39BAD5F99F3C70699C83BB85A1AD87FE9E68BD85D1 PUSH2 0xF51 DUP2 PUSH2 0x2849 JUMP JUMPDEST PUSH0 PUSH20 0xFFFFFFFFFFFFFFFFFFFFFFFFFFFFFFFFFFFFFFFF AND DUP7 PUSH20 0xFFFFFFFFFFFFFFFFFFFFFFFFFFFFFFFFFFFFFFFF AND SUB PUSH2 0xFBF JUMPI PUSH1 0x40 MLOAD PUSH32 0x8C379A000000000000000000000000000000000000000000000000000000000 DUP2 MSTORE PUSH1 0x4 ADD PUSH2 0xFB6 SWAP1 PUSH2 0x4DA6 JUMP JUMPDEST PUSH1 0x40 MLOAD DUP1 SWAP2 SUB SWAP1 REVERT JUMPDEST PUSH0 PUSH0 SHL DUP6 SUB PUSH2 0x1003 JUMPI PUSH1 0x40 MLOAD PUSH32 0x8C379A000000000000000000000000000000000000000000000000000000000 DUP2 MSTORE PUSH1 0x4 ADD PUSH2 0xFFA SWAP1 PUSH2 0x4E0E JUMP JUMPDEST PUSH1 0x40 MLOAD DUP1 SWAP2 SUB SWAP1 REVERT JUMPDEST PUSH1 0x1 DUP5 PUSH2 0xFFFF AND LT ISZERO DUP1 ISZERO PUSH2 0x101D JUMPI POP PUSH1 0x64 DUP5 PUSH2 0xFFFF AND GT ISZERO JUMPDEST PUSH2 0x105C JUMPI PUSH1 0x40 MLOAD PUSH32 0x8C379A000000000000000000000000000000000000000000000000000000000 DUP2 MSTORE PUSH1 0x4 ADD PUSH2 0x1053 SWAP1 PUSH2 0x4E76 JUMP JUMPDEST PUSH1 0x40 MLOAD DUP1 SWAP2 SUB SWAP1 REVERT JUMPDEST PUSH1 0xA PUSH0 DUP2 SLOAD DUP1 SWAP3 SWAP2 SWAP1 PUSH2 0x106E SWAP1 PUSH2 0x4E94 JUMP JUMPDEST SWAP2 SWAP1 POP SSTORE SWAP2 POP PUSH2 0x107E DUP7 DUP4 PUSH2 0x2A9D JUMP JUMPDEST PUSH0 TIMESTAMP SWAP1 POP PUSH1 0x40 MLOAD DUP1 PUSH1 0xC0 ADD PUSH1 0x40 MSTORE DUP1 CALLER PUSH20 0xFFFFFFFFFFFFFFFFFFFFFFFFFFFFFFFFFFFFFFFF AND DUP2 MSTORE PUSH1 0x20 ADD DUP8 DUP2 MSTORE PUSH1 0x20 ADD DUP3 PUSH8 0xFFFFFFFFFFFFFFFF AND DUP2 MSTORE PUSH1 0x20 ADD DUP7 PUSH2 0xFFFF AND DUP2 MSTORE PUSH1 0x20 ADD DUP6 PUSH2 0xFFFF AND DUP2 MSTORE PUSH1 0x20 ADD PUSH0 ISZERO ISZERO DUP2 MSTORE POP PUSH1 0xB PUSH0 DUP6 DUP2 MSTORE PUSH1 0x20 ADD SWAP1 DUP2 MSTORE PUSH1 0x20 ADD PUSH0 KECCAK256 PUSH0 DUP3 ADD MLOAD DUP2 PUSH0 ADD PUSH0 PUSH2 0x100 EXP DUP2 SLOAD DUP2 PUSH20 0xFFFFFFFFFFFFFFFFFFFFFFFFFFFFFFFFFFFFFFFF MUL NOT AND SWAP1 DUP4 PUSH20 0xFFFFFFFFFFFFFFFFFFFFFFFFFFFFFFFFFFFFFFFF AND MUL OR SWAP1 SSTORE POP PUSH1 0x20 DUP3 ADD MLOAD DUP2 PUSH1 0x1 ADD SSTORE PUSH1 0x40 DUP3 ADD MLOAD DUP2 PUSH1 0x2 ADD PUSH0 PUSH2 0x100 EXP DUP2 SLOAD DUP2 PUSH8 0xFFFFFFFFFFFFFFFF MUL NOT AND SWAP1 DUP4 PUSH8 0xFFFFFFFFFFFFFFFF AND MUL OR SWAP1 SSTORE POP PUSH1 0x60 DUP3 ADD MLOAD DUP2 PUSH1 0x2 ADD PUSH1 0x8 PUSH2 0x100 EXP DUP2 SLOAD DUP2 PUSH2 0xFFFF MUL NOT AND SWAP1 DUP4 PUSH2 0xFFFF AND MUL OR SWAP1 SSTORE POP PUSH1 0x80 DUP3 ADD MLOAD DUP2 PUSH1 0x2 ADD PUSH1 0xA PUSH2 0x100 EXP DUP2 SLOAD DUP2 PUSH2 0xFFFF MUL NOT AND SWAP1 DUP4 PUSH2 0xFFFF AND MUL OR SWAP1 SSTORE POP PUSH1 0xA0 DUP3 ADD MLOAD DUP2 PUSH1 0x2 ADD PUSH1 0xC PUSH2 0x100 EXP DUP2 SLOAD DUP2 PUSH1 0xFF MUL NOT AND SWAP1 DUP4 ISZERO ISZERO MUL OR SWAP1 SSTORE POP SWAP1 POP POP PUSH1 0xC PUSH0 DUP9 PUSH20 0xFFFFFFFFFFFFFFFFFFFFFFFFFFFFFFFFFFFFFFFF AND PUSH20 0xFFFFFFFFFFFFFFFFFFFFFFFFFFFFFFFFFFFFFFFF AND DUP2 MSTORE PUSH1 0x20 ADD SWAP1 DUP2 MSTORE PUSH1 0x20 ADD PUSH0 KECCAK256 DUP4 SWAP1 DUP1 PUSH1 0x1 DUP2 SLOAD ADD DUP1 DUP3 SSTORE DUP1 SWAP2 POP POP PUSH1 0x1 SWAP1 SUB SWAP1 PUSH0 MSTORE PUSH1 0x20 PUSH0 KECCAK256 ADD PUSH0 SWAP1 SWAP2 SWAP1 SWAP2 SWAP1 SWAP2 POP SSTORE PUSH1 0xA DUP6 PUSH2 0xFFFF AND PUSH2 0x1241 SWAP2 SWAP1 PUSH2 0x4C67 JUMP JUMPDEST PUSH1 0xD PUSH0 DUP10 PUSH20 0xFFFFFFFFFFFFFFFFFFFFFFFFFFFFFFFFFFFFFFFF AND PUSH20 0xFFFFFFFFFFFFFFFFFFFFFFFFFFFFFFFFFFFFFFFF AND DUP2 MSTORE PUSH1 0x20 ADD SWAP1 DUP2 MSTORE PUSH1 0x20 ADD PUSH0 KECCAK256 PUSH0 DUP3 DUP3 SLOAD PUSH2 0x128C SWAP2 SWAP1 PUSH2 0x4D29 JUMP JUMPDEST SWAP3 POP POP DUP2 SWAP1 SSTORE POP PUSH1 0x1 PUSH1 0xE PUSH0 DUP10 PUSH20 0xFFFFFFFFFFFFFFFFFFFFFFFFFFFFFFFFFFFFFFFF AND PUSH20 0xFFFFFFFFFFFFFFFFFFFFFFFFFFFFFFFFFFFFFFFF AND DUP2 MSTORE PUSH1 0x20 ADD SWAP1 DUP2 MSTORE PUSH1 0x20 ADD PUSH0 KECCAK256 PUSH0 DUP3 DUP3 SLOAD PUSH2 0x12E0 SWAP2 SWAP1 PUSH2 0x4D29 JUMP JUMPDEST SWAP3 POP POP DUP2 SWAP1 SSTORE POP CALLER PUSH20 0xFFFFFFFFFFFFFFFFFFFFFFFFFFFFFFFFFFFFFFFF AND DUP8 PUSH20 0xFFFFFFFFFFFFFFFFFFFFFFFFFFFFFFFFFFFFFFFF AND DUP5 PUSH32 0x729355DCD049D755D96C32F3AC4095E920D6CA665D4CDE54F957901928A491C4 DUP10 DUP10 DUP10 DUP8 PUSH1 0x40 MLOAD PUSH2 0x134B SWAP5 SWAP4 SWAP3 SWAP2 SWAP1 PUSH2 0x4EDB JUMP JUMPDEST PUSH1 0x40 MLOAD DUP1 SWAP2 SUB SWAP1 LOG4 POP POP PUSH2 0x135D PUSH2 0x2770 JUMP JUMPDEST SWAP5 SWAP4 POP POP POP POP JUMP JUMPDEST PUSH0 PUSH2 0x136F DUP3 PUSH2 0x2629 JUMP JUMPDEST SWAP1 POP SWAP2 SWAP1 POP JUMP JUMPDEST PUSH1 0xE PUSH1 0x20 MSTORE DUP1 PUSH0 MSTORE PUSH1 0x40 PUSH0 KECCAK256 PUSH0 SWAP2 POP SWAP1 POP SLOAD DUP2 JUMP JUMPDEST PUSH0 PUSH0 PUSH20 0xFFFFFFFFFFFFFFFFFFFFFFFFFFFFFFFFFFFFFFFF AND DUP3 PUSH20 0xFFFFFFFFFFFFFFFFFFFFFFFFFFFFFFFFFFFFFFFF AND SUB PUSH2 0x13FC JUMPI PUSH0 PUSH1 0x40 MLOAD PUSH32 0x89C62B6400000000000000000000000000000000000000000000000000000000 DUP2 MSTORE PUSH1 0x4 ADD PUSH2 0x13F3 SWAP2 SWAP1 PUSH2 0x4165 JUMP JUMPDEST PUSH1 0x40 MLOAD DUP1 SWAP2 SUB SWAP1 REVERT JUMPDEST PUSH1 0x3 PUSH0 DUP4 PUSH20 0xFFFFFFFFFFFFFFFFFFFFFFFFFFFFFFFFFFFFFFFF AND PUSH20 0xFFFFFFFFFFFFFFFFFFFFFFFFFFFFFFFFFFFFFFFF AND DUP2 MSTORE PUSH1 0x20 ADD SWAP1 DUP2 MSTORE PUSH1 0x20 ADD PUSH0 KECCAK256 SLOAD SWAP1 POP SWAP2 SWAP1 POP JUMP JUMPDEST PUSH0 PUSH0 SHL DUP2 JUMP JUMPDEST PUSH2 0x144F PUSH2 0x26E8 JUMP JUMPDEST PUSH0 PUSH20 0xFFFFFFFFFFFFFFFFFFFFFFFFFFFFFFFFFFFFFFFF AND DUP8 PUSH20 0xFFFFFFFFFFFFFFFFFFFFFFFFFFFFFFFFFFFFFFFF AND SUB PUSH2 0x14BD JUMPI PUSH1 0x40 MLOAD PUSH32 0x8C379A000000000000000000000000000000000000000000000000000000000 DUP2 MSTORE PUSH1 0x4 ADD PUSH2 0x14B4 SWAP1 PUSH2 0x4DA6 JUMP JUMPDEST PUSH1 0x40 MLOAD DUP1 SWAP2 SUB SWAP1 REVERT JUMPDEST PUSH0 PUSH0 SHL DUP4 SUB PUSH2 0x1501 JUMPI PUSH1 0x40 MLOAD PUSH32 0x8C379A000000000000000000000000000000000000000000000000000000000 DUP2 MSTORE PUSH1 0x4 ADD PUSH2 0x14F8 SWAP1 PUSH2 0x4F68 JUMP JUMPDEST PUSH1 0x40 MLOAD DUP1 SWAP2 SUB SWAP1 REVERT JUMPDEST PUSH1 0x11 PUSH0 DUP9 PUSH20 0xFFFFFFFFFFFFFFFFFFFFFFFFFFFFFFFFFFFFFFFF AND PUSH20 0xFFFFFFFFFFFFFFFFFFFFFFFFFFFFFFFFFFFFFFFF AND DUP2 MSTORE PUSH1 0x20 ADD SWAP1 DUP2 MSTORE PUSH1 0x20 ADD PUSH0 KECCAK256 PUSH0 DUP5 DUP2 MSTORE PUSH1 0x20 ADD SWAP1 DUP2 MSTORE PUSH1 0x20 ADD PUSH0 KECCAK256 PUSH0 SWAP1 SLOAD SWAP1 PUSH2 0x100 EXP SWAP1 DIV PUSH1 0xFF AND ISZERO PUSH2 0x159A JUMPI PUSH1 0x40 MLOAD PUSH32 0x8C379A000000000000000000000000000000000000000000000000000000000 DUP2 MSTORE PUSH1 0x4 ADD PUSH2 0x1591 SWAP1 PUSH2 0x4FD0 JUMP JUMPDEST PUSH1 0x40 MLOAD DUP1 SWAP2 SUB SWAP1 REVERT JUMPDEST PUSH1 0x1 DUP5 PUSH4 0xFFFFFFFF AND LT ISZERO DUP1 ISZERO PUSH2 0x15B9 JUMPI POP PUSH2 0x3E8 DUP5 PUSH4 0xFFFFFFFF AND GT ISZERO JUMPDEST PUSH2 0x15F8 JUMPI PUSH1 0x40 MLOAD PUSH32 0x8C379A000000000000000000000000000000000000000000000000000000000 DUP2 MSTORE PUSH1 0x4 ADD PUSH2 0x15EF SWAP1 PUSH2 0x5038 JUMP JUMPDEST PUSH1 0x40 MLOAD DUP1 SWAP2 SUB SWAP1 REVERT JUMPDEST PUSH2 0x258 TIMESTAMP PUSH2 0x1606 SWAP2 SWAP1 PUSH2 0x5056 JUMP JUMPDEST PUSH8 0xFFFFFFFFFFFFFFFF AND DUP7 PUSH8 0xFFFFFFFFFFFFFFFF AND GT ISZERO PUSH2 0x165C JUMPI PUSH1 0x40 MLOAD PUSH32 0x8C379A000000000000000000000000000000000000000000000000000000000 DUP2 MSTORE PUSH1 0x4 ADD PUSH2 0x1653 SWAP1 PUSH2 0x50DB JUMP JUMPDEST PUSH1 0x40 MLOAD DUP1 SWAP2 SUB SWAP1 REVERT JUMPDEST PUSH0 PUSH32 0xA6453A9D6FFEFDC6248BDF03E06A5EB334FE11DC8E35A34D388AA902F86797D0 DUP9 DUP9 DUP9 DUP9 DUP9 PUSH1 0x40 MLOAD PUSH1 0x20 ADD PUSH2 0x1698 SWAP7 SWAP6 SWAP5 SWAP4 SWAP3 SWAP2 SWAP1 PUSH2 0x5108 JUMP JUMPDEST PUSH1 0x40 MLOAD PUSH1 0x20 DUP2 DUP4 SUB SUB DUP2 MSTORE SWAP1 PUSH1 0x40 MSTORE DUP1 MLOAD SWAP1 PUSH1 0x20 ADD KECCAK256 SWAP1 POP PUSH0 PUSH2 0x16BA DUP3 PUSH2 0x2ABA JUMP JUMPDEST SWAP1 POP PUSH0 PUSH2 0x1713 DUP6 DUP6 DUP1 DUP1 PUSH1 0x1F ADD PUSH1 0x20 DUP1 SWAP2 DIV MUL PUSH1 0x20 ADD PUSH1 0x40 MLOAD SWAP1 DUP2 ADD PUSH1 0x40 MSTORE DUP1 SWAP4 SWAP3 SWAP2 SWAP1 DUP2 DUP2 MSTORE PUSH1 0x20 ADD DUP4 DUP4 DUP1 DUP3 DUP5 CALLDATACOPY PUSH0 DUP2 DUP5 ADD MSTORE PUSH1 0x1F NOT PUSH1 0x1F DUP3 ADD AND SWAP1 POP DUP1 DUP4 ADD SWAP3 POP POP POP POP POP POP POP DUP4 PUSH2 0x2AD3 SWAP1 SWAP2 SWAP1 PUSH4 0xFFFFFFFF AND JUMP JUMPDEST SWAP1 POP DUP10 PUSH20 0xFFFFFFFFFFFFFFFFFFFFFFFFFFFFFFFFFFFFFFFF AND DUP2 PUSH20 0xFFFFFFFFFFFFFFFFFFFFFFFFFFFFFFFFFFFFFFFF AND EQ PUSH2 0x1783 JUMPI PUSH1 0x40 MLOAD PUSH32 0x8C379A000000000000000000000000000000000000000000000000000000000 DUP2 MSTORE PUSH1 0x4 ADD PUSH2 0x177A SWAP1 PUSH2 0x51B1 JUMP JUMPDEST PUSH1 0x40 MLOAD DUP1 SWAP2 SUB SWAP1 REVERT JUMPDEST PUSH1 0x1 PUSH1 0x11 PUSH0 DUP13 PUSH20 0xFFFFFFFFFFFFFFFFFFFFFFFFFFFFFFFFFFFFFFFF AND PUSH20 0xFFFFFFFFFFFFFFFFFFFFFFFFFFFFFFFFFFFFFFFF AND DUP2 MSTORE PUSH1 0x20 ADD SWAP1 DUP2 MSTORE PUSH1 0x20 ADD PUSH0 KECCAK256 PUSH0 DUP9 DUP2 MSTORE PUSH1 0x20 ADD SWAP1 DUP2 MSTORE PUSH1 0x20 ADD PUSH0 KECCAK256 PUSH0 PUSH2 0x100 EXP DUP2 SLOAD DUP2 PUSH1 0xFF MUL NOT AND SWAP1 DUP4 ISZERO ISZERO MUL OR SWAP1 SSTORE POP PUSH0 PUSH2 0x17F1 DUP10 PUSH2 0x2AFD JUMP JUMPDEST DUP9 PUSH4 0xFFFFFFFF AND PUSH2 0x1802 SWAP2 SWAP1 PUSH2 0x4C67 JUMP JUMPDEST SWAP1 POP DUP1 PUSH1 0xF PUSH0 DUP14 PUSH20 0xFFFFFFFFFFFFFFFFFFFFFFFFFFFFFFFFFFFFFFFF AND PUSH20 0xFFFFFFFFFFFFFFFFFFFFFFFFFFFFFFFFFFFFFFFF AND DUP2 MSTORE PUSH1 0x20 ADD SWAP1 DUP2 MSTORE PUSH1 0x20 ADD PUSH0 KECCAK256 PUSH0 DUP3 DUP3 SLOAD PUSH2 0x1850 SWAP2 SWAP1 PUSH2 0x4D29 JUMP JUMPDEST SWAP3 POP POP DUP2 SWAP1 SSTORE POP PUSH1 0x1 PUSH1 0x10 PUSH0 DUP14 PUSH20 0xFFFFFFFFFFFFFFFFFFFFFFFFFFFFFFFFFFFFFFFF AND PUSH20 0xFFFFFFFFFFFFFFFFFFFFFFFFFFFFFFFFFFFFFFFF AND DUP2 MSTORE PUSH1 0x20 ADD SWAP1 DUP2 MSTORE PUSH1 0x20 ADD PUSH0 KECCAK256 PUSH0 DUP3 DUP3 SLOAD PUSH2 0x18A4 SWAP2 SWAP1 PUSH2 0x4D29 JUMP JUMPDEST SWAP3 POP POP DUP2 SWAP1 SSTORE POP CALLER PUSH20 0xFFFFFFFFFFFFFFFFFFFFFFFFFFFFFFFFFFFFFFFF AND DUP12 PUSH20 0xFFFFFFFFFFFFFFFFFFFFFFFFFFFFFFFFFFFFFFFF AND PUSH32 0x94258731B227953EDD7E3BCD6098888AA4EAFEAD455F8E2E15FCBB8669C60C2A DUP12 DUP12 DUP12 DUP16 PUSH1 0x40 MLOAD PUSH2 0x190E SWAP5 SWAP4 SWAP3 SWAP2 SWAP1 PUSH2 0x51CF JUMP JUMPDEST PUSH1 0x40 MLOAD DUP1 SWAP2 SUB SWAP1 LOG3 POP POP POP POP PUSH2 0x1922 PUSH2 0x2770 JUMP JUMPDEST POP POP POP POP POP POP POP JUMP JUMPDEST PUSH0 PUSH1 0x60 DUP1 PUSH0 PUSH0 PUSH0 PUSH1 0x60 PUSH2 0x193C PUSH2 0x2B64 JUMP JUMPDEST PUSH2 0x1944 PUSH2 0x2B9F JUMP JUMPDEST CHAINID ADDRESS PUSH0 PUSH0 SHL PUSH0 PUSH8 0xFFFFFFFFFFFFFFFF DUP2 GT ISZERO PUSH2 0x1963 JUMPI PUSH2 0x1962 PUSH2 0x4709 JUMP JUMPDEST JUMPDEST PUSH1 0x40 MLOAD SWAP1 DUP1 DUP3 MSTORE DUP1 PUSH1 0x20 MUL PUSH1 0x20 ADD DUP3 ADD PUSH1 0x40 MSTORE DUP1 ISZERO PUSH2 0x1991 JUMPI DUP2 PUSH1 0x20 ADD PUSH1 0x20 DUP3 MUL DUP1 CALLDATASIZE DUP4 CALLDATACOPY DUP1 DUP3 ADD SWAP2 POP POP SWAP1 POP JUMPDEST POP PUSH32 0xF00000000000000000000000000000000000000000000000000000000000000 SWAP6 SWAP5 SWAP4 SWAP3 SWAP2 SWAP1 SWAP7 POP SWAP7 POP SWAP7 POP SWAP7 POP SWAP7 POP SWAP7 POP SWAP7 POP SWAP1 SWAP2 SWAP3 SWAP4 SWAP5 SWAP6 SWAP7 JUMP JUMPDEST PUSH0 PUSH0 SHL PUSH2 0x19DC DUP2 PUSH2 0x2849 JUMP JUMPDEST PUSH2 0x1A06 PUSH32 0x1F18E249044142F95A61B39BAD5F99F3C70699C83BB85A1AD87FE9E68BD85D1 DUP4 PUSH2 0x2947 JUMP JUMPDEST POP DUP2 PUSH20 0xFFFFFFFFFFFFFFFFFFFFFFFFFFFFFFFFFFFFFFFF AND PUSH32 0x1B0B878D06167E60E076B932DF41DE2B519D804C80445961E705FFBC98091F87 PUSH1 0x40 MLOAD PUSH1 0x40 MLOAD DUP1 SWAP2 SUB SWAP1 LOG2 POP POP JUMP JUMPDEST PUSH0 PUSH1 0x6 PUSH0 DUP5 DUP2 MSTORE PUSH1 0x20 ADD SWAP1 DUP2 MSTORE PUSH1 0x20 ADD PUSH0 KECCAK256 PUSH0 ADD PUSH0 DUP4 PUSH20 0xFFFFFFFFFFFFFFFFFFFFFFFFFFFFFFFFFFFFFFFF AND PUSH20 0xFFFFFFFFFFFFFFFFFFFFFFFFFFFFFFFFFFFFFFFF AND DUP2 MSTORE PUSH1 0x20 ADD SWAP1 DUP2 MSTORE PUSH1 0x20 ADD PUSH0 KECCAK256 PUSH0 SWAP1 SLOAD SWAP1 PUSH2 0x100 EXP SWAP1 DIV PUSH1 0xFF AND SWAP1 POP SWAP3 SWAP2 POP POP JUMP JUMPDEST PUSH1 0x60 PUSH1 0x1 DUP1 SLOAD PUSH2 0x1AC1 SWAP1 PUSH2 0x4A6A JUMP JUMPDEST DUP1 PUSH1 0x1F ADD PUSH1 0x20 DUP1 SWAP2 DIV MUL PUSH1 0x20 ADD PUSH1 0x40 MLOAD SWAP1 DUP2 ADD PUSH1 0x40 MSTORE DUP1 SWAP3 SWAP2 SWAP1 DUP2 DUP2 MSTORE PUSH1 0x20 ADD DUP3 DUP1 SLOAD PUSH2 0x1AED SWAP1 PUSH2 0x4A6A JUMP JUMPDEST DUP1 ISZERO PUSH2 0x1B38 JUMPI DUP1 PUSH1 0x1F LT PUSH2 0x1B0F JUMPI PUSH2 0x100 DUP1 DUP4 SLOAD DIV MUL DUP4 MSTORE SWAP2 PUSH1 0x20 ADD SWAP2 PUSH2 0x1B38 JUMP JUMPDEST DUP3 ADD SWAP2 SWAP1 PUSH0 MSTORE PUSH1 0x20 PUSH0 KECCAK256 SWAP1 JUMPDEST DUP2 SLOAD DUP2 MSTORE SWAP1 PUSH1 0x1 ADD SWAP1 PUSH1 0x20 ADD DUP1 DUP4 GT PUSH2 0x1B1B JUMPI DUP3 SWAP1 SUB PUSH1 0x1F AND DUP3 ADD SWAP2 JUMPDEST POP POP POP POP POP SWAP1 POP SWAP1 JUMP JUMPDEST PUSH1 0x11 PUSH1 0x20 MSTORE DUP2 PUSH0 MSTORE PUSH1 0x40 PUSH0 KECCAK256 PUSH1 0x20 MSTORE DUP1 PUSH0 MSTORE PUSH1 0x40 PUSH0 KECCAK256 PUSH0 SWAP2 POP SWAP2 POP SWAP1 SLOAD SWAP1 PUSH2 0x100 EXP SWAP1 DIV PUSH1 0xFF AND DUP2 JUMP JUMPDEST PUSH0 PUSH0 SHL DUP2 JUMP JUMPDEST PUSH1 0x40 MLOAD PUSH32 0x8C379A000000000000000000000000000000000000000000000000000000000 DUP2 MSTORE PUSH1 0x4 ADD PUSH2 0x1BA4 SWAP1 PUSH2 0x4AE4 JUMP JUMPDEST PUSH1 0x40 MLOAD DUP1 SWAP2 SUB SWAP1 REVERT JUMPDEST PUSH0 PUSH0 SHL PUSH2 0x1BB9 DUP2 PUSH2 0x2849 JUMP JUMPDEST PUSH2 0x1BE3 PUSH32 0x1F18E249044142F95A61B39BAD5F99F3C70699C83BB85A1AD87FE9E68BD85D1 DUP4 PUSH2 0x285D JUMP JUMPDEST POP DUP2 PUSH20 0xFFFFFFFFFFFFFFFFFFFFFFFFFFFFFFFFFFFFFFFF AND PUSH32 0xBFB62B1FBB00013554ED3FF21CA179A519AEE08CCF015AED3482362436B6B35 PUSH1 0x40 MLOAD PUSH1 0x40 MLOAD DUP1 SWAP2 SUB SWAP1 LOG2 POP POP JUMP JUMPDEST PUSH2 0x1C36 DUP5 DUP5 DUP5 PUSH2 0xC24 JUMP JUMPDEST PUSH2 0x1C4A PUSH2 0x1C41 PUSH2 0x277A JUMP JUMPDEST DUP6 DUP6 DUP6 DUP6 PUSH2 0x2BDA JUMP JUMPDEST POP POP POP POP JUMP JUMPDEST PUSH1 0xF PUSH1 0x20 MSTORE DUP1 PUSH0 MSTORE PUSH1 0x40 PUSH0 KECCAK256 PUSH0 SWAP2 POP SWAP1 POP SLOAD DUP2 JUMP JUMPDEST PUSH1 0xD PUSH1 0x20 MSTORE DUP1 PUSH0 MSTORE PUSH1 0x40 PUSH0 KECCAK256 PUSH0 SWAP2 POP SWAP1 POP SLOAD DUP2 JUMP JUMPDEST PUSH1 0x60 PUSH1 0xC PUSH0 DUP4 PUSH20 0xFFFFFFFFFFFFFFFFFFFFFFFFFFFFFFFFFFFFFFFF AND PUSH20 0xFFFFFFFFFFFFFFFFFFFFFFFFFFFFFFFFFFFFFFFF AND DUP2 MSTORE PUSH1 0x20 ADD SWAP1 DUP2 MSTORE PUSH1 0x20 ADD PUSH0 KECCAK256 DUP1 SLOAD DUP1 PUSH1 0x20 MUL PUSH1 0x20 ADD PUSH1 0x40 MLOAD SWAP1 DUP2 ADD PUSH1 0x40 MSTORE DUP1 SWAP3 SWAP2 SWAP1 DUP2 DUP2 MSTORE PUSH1 0x20 ADD DUP3 DUP1 SLOAD DUP1 ISZERO PUSH2 0x1D01 JUMPI PUSH1 0x20 MUL DUP3 ADD SWAP2 SWAP1 PUSH0 MSTORE PUSH1 0x20 PUSH0 KECCAK256 SWAP1 JUMPDEST DUP2 SLOAD DUP2 MSTORE PUSH1 0x20 ADD SWAP1 PUSH1 0x1 ADD SWAP1 DUP1 DUP4 GT PUSH2 0x1CED JUMPI JUMPDEST POP POP POP POP POP SWAP1 POP SWAP2 SWAP1 POP JUMP JUMPDEST PUSH1 0x60 PUSH0 PUSH20 0xFFFFFFFFFFFFFFFFFFFFFFFFFFFFFFFFFFFFFFFF AND PUSH2 0x1D2F DUP4 PUSH2 0x2737 JUMP JUMPDEST PUSH20 0xFFFFFFFFFFFFFFFFFFFFFFFFFFFFFFFFFFFFFFFF AND SUB PUSH2 0x1D85 JUMPI PUSH1 0x40 MLOAD PUSH32 0x8C379A000000000000000000000000000000000000000000000000000000000 DUP2 MSTORE PUSH1 0x4 ADD PUSH2 0x1D7C SWAP1 PUSH2 0x4B4C JUMP JUMPDEST PUSH1 0x40 MLOAD DUP1 SWAP2 SUB SWAP1 REVERT JUMPDEST PUSH0 PUSH1 0xB PUSH0 DUP5 DUP2 MSTORE PUSH1 0x20 ADD SWAP1 DUP2 MSTORE PUSH1 0x20 ADD PUSH0 KECCAK256 PUSH1 0x40 MLOAD DUP1 PUSH1 0xC0 ADD PUSH1 0x40 MSTORE SWAP1 DUP2 PUSH0 DUP3 ADD PUSH0 SWAP1 SLOAD SWAP1 PUSH2 0x100 EXP SWAP1 DIV PUSH20 0xFFFFFFFFFFFFFFFFFFFFFFFFFFFFFFFFFFFFFFFF AND PUSH20 0xFFFFFFFFFFFFFFFFFFFFFFFFFFFFFFFFFFFFFFFF AND PUSH20 0xFFFFFFFFFFFFFFFFFFFFFFFFFFFFFFFFFFFFFFFF AND DUP2 MSTORE PUSH1 0x20 ADD PUSH1 0x1 DUP3 ADD SLOAD DUP2 MSTORE PUSH1 0x20 ADD PUSH1 0x2 DUP3 ADD PUSH0 SWAP1 SLOAD SWAP1 PUSH2 0x100 EXP SWAP1 DIV PUSH8 0xFFFFFFFFFFFFFFFF AND PUSH8 0xFFFFFFFFFFFFFFFF AND PUSH8 0xFFFFFFFFFFFFFFFF AND DUP2 MSTORE PUSH1 0x20 ADD PUSH1 0x2 DUP3 ADD PUSH1 0x8 SWAP1 SLOAD SWAP1 PUSH2 0x100 EXP SWAP1 DIV PUSH2 0xFFFF AND PUSH2 0xFFFF AND PUSH2 0xFFFF AND DUP2 MSTORE PUSH1 0x20 ADD PUSH1 0x2 DUP3 ADD PUSH1 0xA SWAP1 SLOAD SWAP1 PUSH2 0x100 EXP SWAP1 DIV PUSH2 0xFFFF AND PUSH2 0xFFFF AND PUSH2 0xFFFF AND DUP2 MSTORE PUSH1 0x20 ADD PUSH1 0x2 DUP3 ADD PUSH1 0xC SWAP1 SLOAD SWAP1 PUSH2 0x100 EXP SWAP1 DIV PUSH1 0xFF AND ISZERO ISZERO ISZERO ISZERO DUP2 MSTORE POP POP SWAP1 POP PUSH2 0x1E97 DUP4 PUSH2 0x2D86 JUMP JUMPDEST PUSH2 0x1EA4 DUP3 PUSH1 0x20 ADD MLOAD PUSH2 0x2E50 JUMP JUMPDEST PUSH1 0x40 MLOAD PUSH1 0x20 ADD PUSH2 0x1EB5 SWAP3 SWAP2 SWAP1 PUSH2 0x5306 JUMP JUMPDEST PUSH1 0x40 MLOAD PUSH1 0x20 DUP2 DUP4 SUB SUB DUP2 MSTORE SWAP1 PUSH1 0x40 MSTORE SWAP2 POP POP SWAP2 SWAP1 POP JUMP JUMPDEST PUSH2 0x1ED5 DUP3 PUSH2 0xD23 JUMP JUMPDEST PUSH2 0x1EDE DUP2 PUSH2 0x2849 JUMP JUMPDEST PUSH2 0x1EE8 DUP4 DUP4 PUSH2 0x2947 JUMP JUMPDEST POP POP POP POP JUMP JUMPDEST PUSH2 0x1EF6 PUSH2 0x26E8 JUMP JUMPDEST PUSH2 0x1F20 PUSH32 0x1F18E249044142F95A61B39BAD5F99F3C70699C83BB85A1AD87FE9E68BD85D1 CALLER PUSH2 0x1A4E JUMP JUMPDEST DUP1 PUSH2 0x1F33 JUMPI POP PUSH2 0x1F32 PUSH0 PUSH0 SHL CALLER PUSH2 0x1A4E JUMP JUMPDEST JUMPDEST PUSH2 0x1F72 JUMPI PUSH1 0x40 MLOAD PUSH32 0x8C379A000000000000000000000000000000000000000000000000000000000 DUP2 MSTORE PUSH1 0x4 ADD PUSH2 0x1F69 SWAP1 PUSH2 0x4C1C JUMP JUMPDEST PUSH1 0x40 MLOAD DUP1 SWAP2 SUB SWAP1 REVERT JUMPDEST PUSH0 PUSH20 0xFFFFFFFFFFFFFFFFFFFFFFFFFFFFFFFFFFFFFFFF AND DUP5 PUSH20 0xFFFFFFFFFFFFFFFFFFFFFFFFFFFFFFFFFFFFFFFF AND SUB PUSH2 0x1FE0 JUMPI PUSH1 0x40 MLOAD PUSH32 0x8C379A000000000000000000000000000000000000000000000000000000000 DUP2 MSTORE PUSH1 0x4 ADD PUSH2 0x1FD7 SWAP1 PUSH2 0x4DA6 JUMP JUMPDEST PUSH1 0x40 MLOAD DUP1 SWAP2 SUB SWAP1 REVERT JUMPDEST PUSH0 PUSH0 SHL DUP2 SUB PUSH2 0x2024 JUMPI PUSH1 0x40 MLOAD PUSH32 0x8C379A000000000000000000000000000000000000000000000000000000000 DUP2 MSTORE PUSH1 0x4 ADD PUSH2 0x201B SWAP1 PUSH2 0x4F68 JUMP JUMPDEST PUSH1 0x40 MLOAD DUP1 SWAP2 SUB SWAP1 REVERT JUMPDEST PUSH1 0x11 PUSH0 DUP6 PUSH20 0xFFFFFFFFFFFFFFFFFFFFFFFFFFFFFFFFFFFFFFFF AND PUSH20 0xFFFFFFFFFFFFFFFFFFFFFFFFFFFFFFFFFFFFFFFF AND DUP2 MSTORE PUSH1 0x20 ADD SWAP1 DUP2 MSTORE PUSH1 0x20 ADD PUSH0 KECCAK256 PUSH0 DUP3 DUP2 MSTORE PUSH1 0x20 ADD SWAP1 DUP2 MSTORE PUSH1 0x20 ADD PUSH0 KECCAK256 PUSH0 SWAP1 SLOAD SWAP1 PUSH2 0x100 EXP SWAP1 DIV PUSH1 0xFF AND ISZERO PUSH2 0x20BD JUMPI PUSH1 0x40 MLOAD PUSH32 0x8C379A000000000000000000000000000000000000000000000000000000000 DUP2 MSTORE PUSH1 0x4 ADD PUSH2 0x20B4 SWAP1 PUSH2 0x4FD0 JUMP JUMPDEST PUSH1 0x40 MLOAD DUP1 SWAP2 SUB SWAP1 REVERT JUMPDEST PUSH1 0x1 DUP3 PUSH4 0xFFFFFFFF AND LT ISZERO DUP1 ISZERO PUSH2 0x20DC JUMPI POP PUSH2 0x3E8 DUP3 PUSH4 0xFFFFFFFF AND GT ISZERO JUMPDEST PUSH2 0x211B JUMPI PUSH1 0x40 MLOAD PUSH32 0x8C379A000000000000000000000000000000000000000000000000000000000 DUP2 MSTORE PUSH1 0x4 ADD PUSH2 0x2112 SWAP1 PUSH2 0x5038 JUMP JUMPDEST PUSH1 0x40 MLOAD DUP1 SWAP2 SUB SWAP1 REVERT JUMPDEST PUSH1 0x1 PUSH1 0x11 PUSH0 DUP7 PUSH20 0xFFFFFFFFFFFFFFFFFFFFFFFFFFFFFFFFFFFFFFFF AND PUSH20 0xFFFFFFFFFFFFFFFFFFFFFFFFFFFFFFFFFFFFFFFF AND DUP2 MSTORE PUSH1 0x20 ADD SWAP1 DUP2 MSTORE PUSH1 0x20 ADD PUSH0 KECCAK256 PUSH0 DUP4 DUP2 MSTORE PUSH1 0x20 ADD SWAP1 DUP2 MSTORE PUSH1 0x20 ADD PUSH0 KECCAK256 PUSH0 PUSH2 0x100 EXP DUP2 SLOAD DUP2 PUSH1 0xFF MUL NOT AND SWAP1 DUP4 ISZERO ISZERO MUL OR SWAP1 SSTORE POP PUSH0 PUSH2 0x2189 DUP5 PUSH2 0x2AFD JUMP JUMPDEST DUP4 PUSH4 0xFFFFFFFF AND PUSH2 0x219A SWAP2 SWAP1 PUSH2 0x4C67 JUMP JUMPDEST SWAP1 POP DUP1 PUSH1 0xF PUSH0 DUP8 PUSH20 0xFFFFFFFFFFFFFFFFFFFFFFFFFFFFFFFFFFFFFFFF AND PUSH20 0xFFFFFFFFFFFFFFFFFFFFFFFFFFFFFFFFFFFFFFFF AND DUP2 MSTORE PUSH1 0x20 ADD SWAP1 DUP2 MSTORE PUSH1 0x20 ADD PUSH0 KECCAK256 PUSH0 DUP3 DUP3 SLOAD PUSH2 0x21E8 SWAP2 SWAP1 PUSH2 0x4D29 JUMP JUMPDEST SWAP3 POP POP DUP2 SWAP1 SSTORE POP PUSH1 0x1 PUSH1 0x10 PUSH0 DUP8 PUSH20 0xFFFFFFFFFFFFFFFFFFFFFFFFFFFFFFFFFFFFFFFF AND PUSH20 0xFFFFFFFFFFFFFFFFFFFFFFFFFFFFFFFFFFFFFFFF AND DUP2 MSTORE PUSH1 0x20 ADD SWAP1 DUP2 MSTORE PUSH1 0x20 ADD PUSH0 KECCAK256 PUSH0 DUP3 DUP3 SLOAD PUSH2 0x223C SWAP2 SWAP1 PUSH2 0x4D29 JUMP JUMPDEST SWAP3 POP POP DUP2 SWAP1 SSTORE POP CALLER PUSH20 0xFFFFFFFFFFFFFFFFFFFFFFFFFFFFFFFFFFFFFFFF AND DUP6 PUSH20 0xFFFFFFFFFFFFFFFFFFFFFFFFFFFFFFFFFFFFFFFF AND PUSH32 0x94258731B227953EDD7E3BCD6098888AA4EAFEAD455F8E2E15FCBB8669C60C2A DUP7 DUP7 DUP7 TIMESTAMP PUSH1 0x40 MLOAD PUSH2 0x22A6 SWAP5 SWAP4 SWAP3 SWAP2 SWAP1 PUSH2 0x51CF JUMP JUMPDEST PUSH1 0x40 MLOAD DUP1 SWAP2 SUB SWAP1 LOG3 POP PUSH2 0x22B7 PUSH2 0x2770 JUMP JUMPDEST POP POP POP POP JUMP JUMPDEST PUSH1 0xB PUSH1 0x20 MSTORE DUP1 PUSH0 MSTORE PUSH1 0x40 PUSH0 KECCAK256 PUSH0 SWAP2 POP SWAP1 POP DUP1 PUSH0 ADD PUSH0 SWAP1 SLOAD SWAP1 PUSH2 0x100 EXP SWAP1 DIV PUSH20 0xFFFFFFFFFFFFFFFFFFFFFFFFFFFFFFFFFFFFFFFF AND SWAP1 DUP1 PUSH1 0x1 ADD SLOAD SWAP1 DUP1 PUSH1 0x2 ADD PUSH0 SWAP1 SLOAD SWAP1 PUSH2 0x100 EXP SWAP1 DIV PUSH8 0xFFFFFFFFFFFFFFFF AND SWAP1 DUP1 PUSH1 0x2 ADD PUSH1 0x8 SWAP1 SLOAD SWAP1 PUSH2 0x100 EXP SWAP1 DIV PUSH2 0xFFFF AND SWAP1 DUP1 PUSH1 0x2 ADD PUSH1 0xA SWAP1 SLOAD SWAP1 PUSH2 0x100 EXP SWAP1 DIV PUSH2 0xFFFF AND SWAP1 DUP1 PUSH1 0x2 ADD PUSH1 0xC SWAP1 SLOAD SWAP1 PUSH2 0x100 EXP SWAP1 DIV PUSH1 0xFF AND SWAP1 POP DUP7 JUMP JUMPDEST PUSH0 PUSH1 0x5 PUSH0 DUP5 PUSH20 0xFFFFFFFFFFFFFFFFFFFFFFFFFFFFFFFFFFFFFFFF AND PUSH20 0xFFFFFFFFFFFFFFFFFFFFFFFFFFFFFFFFFFFFFFFF AND DUP2 MSTORE PUSH1 0x20 ADD SWAP1 DUP2 MSTORE PUSH1 0x20 ADD PUSH0 KECCAK256 PUSH0 DUP4 PUSH20 0xFFFFFFFFFFFFFFFFFFFFFFFFFFFFFFFFFFFFFFFF AND PUSH20 0xFFFFFFFFFFFFFFFFFFFFFFFFFFFFFFFFFFFFFFFF AND DUP2 MSTORE PUSH1 0x20 ADD SWAP1 DUP2 MSTORE PUSH1 0x20 ADD PUSH0 KECCAK256 PUSH0 SWAP1 SLOAD SWAP1 PUSH2 0x100 EXP SWAP1 DIV PUSH1 0xFF AND SWAP1 POP SWAP3 SWAP2 POP POP JUMP JUMPDEST PUSH0 PUSH0 PUSH0 PUSH0 PUSH0 PUSH0 PUSH20 0xFFFFFFFFFFFFFFFFFFFFFFFFFFFFFFFFFFFFFFFF AND PUSH2 0x2403 DUP8 PUSH2 0x2737 JUMP JUMPDEST PUSH20 0xFFFFFFFFFFFFFFFFFFFFFFFFFFFFFFFFFFFFFFFF AND SUB PUSH2 0x2434 JUMPI PUSH0 PUSH0 PUSH0 PUSH0 PUSH0 SHL PUSH0 SWAP5 POP SWAP5 POP SWAP5 POP SWAP5 POP SWAP5 POP PUSH2 0x25A7 JUMP JUMPDEST PUSH0 PUSH1 0xB PUSH0 DUP9 DUP2 MSTORE PUSH1 0x20 ADD SWAP1 DUP2 MSTORE PUSH1 0x20 ADD PUSH0 KECCAK256 PUSH1 0x40 MLOAD DUP1 PUSH1 0xC0 ADD PUSH1 0x40 MSTORE SWAP1 DUP2 PUSH0 DUP3 ADD PUSH0 SWAP1 SLOAD SWAP1 PUSH2 0x100 EXP SWAP1 DIV PUSH20 0xFFFFFFFFFFFFFFFFFFFFFFFFFFFFFFFFFFFFFFFF AND PUSH20 0xFFFFFFFFFFFFFFFFFFFFFFFFFFFFFFFFFFFFFFFF AND PUSH20 0xFFFFFFFFFFFFFFFFFFFFFFFFFFFFFFFFFFFFFFFF AND DUP2 MSTORE PUSH1 0x20 ADD PUSH1 0x1 DUP3 ADD SLOAD DUP2 MSTORE PUSH1 0x20 ADD PUSH1 0x2 DUP3 ADD PUSH0 SWAP1 SLOAD SWAP1 PUSH2 0x100 EXP SWAP1 DIV PUSH8 0xFFFFFFFFFFFFFFFF AND PUSH8 0xFFFFFFFFFFFFFFFF AND PUSH8 0xFFFFFFFFFFFFFFFF AND DUP2 MSTORE PUSH1 0x20 ADD PUSH1 0x2 DUP3 ADD PUSH1 0x8 SWAP1 SLOAD SWAP1 PUSH2 0x100 EXP SWAP1 DIV PUSH2 0xFFFF AND PUSH2 0xFFFF AND PUSH2 0xFFFF AND DUP2 MSTORE PUSH1 0x20 ADD PUSH1 0x2 DUP3 ADD PUSH1 0xA SWAP1 SLOAD SWAP1 PUSH2 0x100 EXP SWAP1 DIV PUSH2 0xFFFF AND PUSH2 0xFFFF AND PUSH2 0xFFFF AND DUP2 MSTORE PUSH1 0x20 ADD PUSH1 0x2 DUP3 ADD PUSH1 0xC SWAP1 SLOAD SWAP1 PUSH2 0x100 EXP SWAP1 DIV PUSH1 0xFF AND ISZERO ISZERO ISZERO ISZERO DUP2 MSTORE POP POP SWAP1 POP PUSH2 0x2546 DUP8 PUSH2 0x1365 JUMP JUMPDEST SWAP5 POP DUP1 PUSH1 0xA0 ADD MLOAD ISZERO DUP1 ISZERO PUSH2 0x2589 JUMPI POP PUSH0 PUSH20 0xFFFFFFFFFFFFFFFFFFFFFFFFFFFFFFFFFFFFFFFF AND DUP2 PUSH0 ADD MLOAD PUSH20 0xFFFFFFFFFFFFFFFFFFFFFFFFFFFFFFFFFFFFFFFF AND EQ ISZERO JUMPDEST SWAP6 POP DUP6 DUP6 DUP3 PUSH0 ADD MLOAD DUP4 PUSH1 0x20 ADD MLOAD DUP5 PUSH1 0x40 ADD MLOAD SWAP6 POP SWAP6 POP SWAP6 POP SWAP6 POP SWAP6 POP POP JUMPDEST SWAP2 SWAP4 SWAP6 SWAP1 SWAP3 SWAP5 POP JUMP JUMPDEST PUSH0 PUSH32 0x7965DB0B00000000000000000000000000000000000000000000000000000000 PUSH28 0xFFFFFFFFFFFFFFFFFFFFFFFFFFFFFFFFFFFFFFFFFFFFFFFFFFFFFFFF NOT AND DUP3 PUSH28 0xFFFFFFFFFFFFFFFFFFFFFFFFFFFFFFFFFFFFFFFFFFFFFFFFFFFFFFFF NOT AND EQ DUP1 PUSH2 0x2622 JUMPI POP PUSH2 0x2621 DUP3 PUSH2 0x3012 JUMP JUMPDEST JUMPDEST SWAP1 POP SWAP2 SWAP1 POP JUMP JUMPDEST PUSH0 PUSH0 PUSH2 0x2634 DUP4 PUSH2 0x2737 JUMP JUMPDEST SWAP1 POP PUSH0 PUSH20 0xFFFFFFFFFFFFFFFFFFFFFFFFFFFFFFFFFFFFFFFF AND DUP2 PUSH20 0xFFFFFFFFFFFFFFFFFFFFFFFFFFFFFFFFFFFFFFFF AND SUB PUSH2 0x26A6 JUMPI DUP3 PUSH1 0x40 MLOAD PUSH32 0x7E27328900000000000000000000000000000000000000000000000000000000 DUP2 MSTORE PUSH1 0x4 ADD PUSH2 0x269D SWAP2 SWAP1 PUSH2 0x4058 JUMP JUMPDEST PUSH1 0x40 MLOAD DUP1 SWAP2 SUB SWAP1 REVERT JUMPDEST DUP1 SWAP2 POP POP SWAP2 SWAP1 POP JUMP JUMPDEST PUSH0 PUSH1 0x4 PUSH0 DUP4 DUP2 MSTORE PUSH1 0x20 ADD SWAP1 DUP2 MSTORE PUSH1 0x20 ADD PUSH0 KECCAK256 PUSH0 SWAP1 SLOAD SWAP1 PUSH2 0x100 EXP SWAP1 DIV PUSH20 0xFFFFFFFFFFFFFFFFFFFFFFFFFFFFFFFFFFFFFFFF AND SWAP1 POP SWAP2 SWAP1 POP JUMP JUMPDEST PUSH1 0x2 PUSH1 0x9 SLOAD SUB PUSH2 0x272D JUMPI PUSH1 0x40 MLOAD PUSH32 0x8C379A000000000000000000000000000000000000000000000000000000000 DUP2 MSTORE PUSH1 0x4 ADD PUSH2 0x2724 SWAP1 PUSH2 0x5389 JUMP JUMPDEST PUSH1 0x40 MLOAD DUP1 SWAP2 SUB SWAP1 REVERT JUMPDEST PUSH1 0x2 PUSH1 0x9 DUP2 SWAP1 SSTORE POP JUMP JUMPDEST PUSH0 PUSH1 0x2 PUSH0 DUP4 DUP2 MSTORE PUSH1 0x20 ADD SWAP1 DUP2 MSTORE PUSH1 0x20 ADD PUSH0 KECCAK256 PUSH0 SWAP1 SLOAD SWAP1 PUSH2 0x100 EXP SWAP1 DIV PUSH20 0xFFFFFFFFFFFFFFFFFFFFFFFFFFFFFFFFFFFFFFFF AND SWAP1 POP SWAP2 SWAP1 POP JUMP JUMPDEST PUSH1 0x1 PUSH1 0x9 DUP2 SWAP1 SSTORE POP JUMP JUMPDEST PUSH0 CALLER SWAP1 POP SWAP1 JUMP JUMPDEST PUSH0 PUSH2 0x278B DUP4 PUSH2 0x2737 JUMP JUMPDEST SWAP1 POP PUSH0 PUSH20 0xFFFFFFFFFFFFFFFFFFFFFFFFFFFFFFFFFFFFFFFF AND DUP2 PUSH20 0xFFFFFFFFFFFFFFFFFFFFFFFFFFFFFFFFFFFFFFFF AND EQ ISZERO DUP1 ISZERO PUSH2 0x27F5 JUMPI POP PUSH0 PUSH20 0xFFFFFFFFFFFFFFFFFFFFFFFFFFFFFFFFFFFFFFFF AND DUP5 PUSH20 0xFFFFFFFFFFFFFFFFFFFFFFFFFFFFFFFFFFFFFFFF AND EQ ISZERO JUMPDEST ISZERO PUSH2 0x2835 JUMPI PUSH1 0x40 MLOAD PUSH32 0x8C379A000000000000000000000000000000000000000000000000000000000 DUP2 MSTORE PUSH1 0x4 ADD PUSH2 0x282C SWAP1 PUSH2 0x53F1 JUMP JUMPDEST PUSH1 0x40 MLOAD DUP1 SWAP2 SUB SWAP1 REVERT JUMPDEST PUSH2 0x2840 DUP5 DUP5 DUP5 PUSH2 0x30F3 JUMP JUMPDEST SWAP1 POP SWAP4 SWAP3 POP POP POP JUMP JUMPDEST PUSH2 0x285A DUP2 PUSH2 0x2855 PUSH2 0x277A JUMP JUMPDEST PUSH2 0x32FE JUMP JUMPDEST POP JUMP JUMPDEST PUSH0 PUSH2 0x2868 DUP4 DUP4 PUSH2 0x1A4E JUMP JUMPDEST PUSH2 0x293D JUMPI PUSH1 0x1 PUSH1 0x6 PUSH0 DUP6 DUP2 MSTORE PUSH1 0x20 ADD SWAP1 DUP2 MSTORE PUSH1 0x20 ADD PUSH0 KECCAK256 PUSH0 ADD PUSH0 DUP5 PUSH20 0xFFFFFFFFFFFFFFFFFFFFFFFFFFFFFFFFFFFFFFFF AND PUSH20 0xFFFFFFFFFFFFFFFFFFFFFFFFFFFFFFFFFFFFFFFF AND DUP2 MSTORE PUSH1 0x20 ADD SWAP1 DUP2 MSTORE PUSH1 0x20 ADD PUSH0 KECCAK256 PUSH0 PUSH2 0x100 EXP DUP2 SLOAD DUP2 PUSH1 0xFF MUL NOT AND SWAP1 DUP4 ISZERO ISZERO MUL OR SWAP1 SSTORE POP PUSH2 0x28DA PUSH2 0x277A JUMP JUMPDEST PUSH20 0xFFFFFFFFFFFFFFFFFFFFFFFFFFFFFFFFFFFFFFFF AND DUP3 PUSH20 0xFFFFFFFFFFFFFFFFFFFFFFFFFFFFFFFFFFFFFFFF AND DUP5 PUSH32 0x2F8788117E7EFF1D82E926EC794901D17C78024A50270940304540A733656F0D PUSH1 0x40 MLOAD PUSH1 0x40 MLOAD DUP1 SWAP2 SUB SWAP1 LOG4 PUSH1 0x1 SWAP1 POP PUSH2 0x2941 JUMP JUMPDEST PUSH0 SWAP1 POP JUMPDEST SWAP3 SWAP2 POP POP JUMP JUMPDEST PUSH0 PUSH2 0x2952 DUP4 DUP4 PUSH2 0x1A4E JUMP JUMPDEST ISZERO PUSH2 0x2A27 JUMPI PUSH0 PUSH1 0x6 PUSH0 DUP6 DUP2 MSTORE PUSH1 0x20 ADD SWAP1 DUP2 MSTORE PUSH1 0x20 ADD PUSH0 KECCAK256 PUSH0 ADD PUSH0 DUP5 PUSH20 0xFFFFFFFFFFFFFFFFFFFFFFFFFFFFFFFFFFFFFFFF AND PUSH20 0xFFFFFFFFFFFFFFFFFFFFFFFFFFFFFFFFFFFFFFFF AND DUP2 MSTORE PUSH1 0x20 ADD SWAP1 DUP2 MSTORE PUSH1 0x20 ADD PUSH0 KECCAK256 PUSH0 PUSH2 0x100 EXP DUP2 SLOAD DUP2 PUSH1 0xFF MUL NOT AND SWAP1 DUP4 ISZERO ISZERO MUL OR SWAP1 SSTORE POP PUSH2 0x29C4 PUSH2 0x277A JUMP JUMPDEST PUSH20 0xFFFFFFFFFFFFFFFFFFFFFFFFFFFFFFFFFFFFFFFF AND DUP3 PUSH20 0xFFFFFFFFFFFFFFFFFFFFFFFFFFFFFFFFFFFFFFFF AND DUP5 PUSH32 0xF6391F5C32D9C69D2A47EA670B442974B53935D1EDC7FD64EB21E047A839171B PUSH1 0x40 MLOAD PUSH1 0x40 MLOAD DUP1 SWAP2 SUB SWAP1 LOG4 PUSH1 0x1 SWAP1 POP PUSH2 0x2A2B JUMP JUMPDEST PUSH0 SWAP1 POP JUMPDEST SWAP3 SWAP2 POP POP JUMP JUMPDEST PUSH0 PUSH0 DUP3 SUB PUSH2 0x2A41 JUMPI PUSH0 SWAP1 POP PUSH2 0x2A98 JUMP JUMPDEST PUSH0 PUSH1 0x2 PUSH1 0x1 DUP5 PUSH2 0x2A51 SWAP2 SWAP1 PUSH2 0x4D29 JUMP JUMPDEST PUSH2 0x2A5B SWAP2 SWAP1 PUSH2 0x543C JUMP JUMPDEST SWAP1 POP DUP3 SWAP2 POP JUMPDEST DUP2 DUP2 LT ISZERO PUSH2 0x2A96 JUMPI DUP1 SWAP2 POP PUSH1 0x2 DUP2 DUP3 DUP6 PUSH2 0x2A7B SWAP2 SWAP1 PUSH2 0x543C JUMP JUMPDEST PUSH2 0x2A85 SWAP2 SWAP1 PUSH2 0x4D29 JUMP JUMPDEST PUSH2 0x2A8F SWAP2 SWAP1 PUSH2 0x543C JUMP JUMPDEST SWAP1 POP PUSH2 0x2A61 JUMP JUMPDEST POP JUMPDEST SWAP2 SWAP1 POP JUMP JUMPDEST PUSH2 0x2AB6 DUP3 DUP3 PUSH1 0x40 MLOAD DUP1 PUSH1 0x20 ADD PUSH1 0x40 MSTORE DUP1 PUSH0 DUP2 MSTORE POP PUSH2 0x334F JUMP JUMPDEST POP POP JUMP JUMPDEST PUSH0 PUSH2 0x2ACC PUSH2 0x2AC6 PUSH2 0x3372 JUMP JUMPDEST DUP4 PUSH2 0x3428 JUMP JUMPDEST SWAP1 POP SWAP2 SWAP1 POP JUMP JUMPDEST PUSH0 PUSH0 PUSH0 PUSH0 PUSH2 0x2AE1 DUP7 DUP7 PUSH2 0x3468 JUMP JUMPDEST SWAP3 POP SWAP3 POP SWAP3 POP PUSH2 0x2AF1 DUP3 DUP3 PUSH2 0x34BD JUMP JUMPDEST DUP3 SWAP4 POP POP POP POP SWAP3 SWAP2 POP POP JUMP JUMPDEST PUSH0 PUSH1 0x1 DUP3 PUSH4 0xFFFFFFFF AND SUB PUSH2 0x2B15 JUMPI PUSH1 0x3 SWAP1 POP PUSH2 0x2B5F JUMP JUMPDEST PUSH1 0x2 DUP3 PUSH4 0xFFFFFFFF AND SUB PUSH2 0x2B2C JUMPI PUSH1 0x4 SWAP1 POP PUSH2 0x2B5F JUMP JUMPDEST PUSH1 0x3 DUP3 PUSH4 0xFFFFFFFF AND SUB PUSH2 0x2B43 JUMPI PUSH1 0x5 SWAP1 POP PUSH2 0x2B5F JUMP JUMPDEST PUSH1 0x4 DUP3 PUSH4 0xFFFFFFFF AND SUB PUSH2 0x2B5A JUMPI PUSH1 0x5 SWAP1 POP PUSH2 0x2B5F JUMP JUMPDEST PUSH1 0x2 SWAP1 POP JUMPDEST SWAP2 SWAP1 POP JUMP JUMPDEST PUSH1 0x60 PUSH2 0x2B9A PUSH1 0x7 PUSH32 0x0 PUSH2 0x361F SWAP1 SWAP2 SWAP1 PUSH4 0xFFFFFFFF AND JUMP JUMPDEST SWAP1 POP SWAP1 JUMP JUMPDEST PUSH1 0x60 PUSH2 0x2BD5 PUSH1 0x8 PUSH32 0x0 PUSH2 0x361F SWAP1 SWAP2 SWAP1 PUSH4 0xFFFFFFFF AND JUMP JUMPDEST SWAP1 POP SWAP1 JUMP JUMPDEST PUSH0 DUP4 PUSH20 0xFFFFFFFFFFFFFFFFFFFFFFFFFFFFFFFFFFFFFFFF AND EXTCODESIZE GT ISZERO PUSH2 0x2D7F JUMPI DUP3 PUSH20 0xFFFFFFFFFFFFFFFFFFFFFFFFFFFFFFFFFFFFFFFF AND PUSH4 0x150B7A02 DUP7 DUP7 DUP6 DUP6 PUSH1 0x40 MLOAD DUP6 PUSH4 0xFFFFFFFF AND PUSH1 0xE0 SHL DUP2 MSTORE PUSH1 0x4 ADD PUSH2 0x2C38 SWAP5 SWAP4 SWAP3 SWAP2 SWAP1 PUSH2 0x54BE JUMP JUMPDEST PUSH1 0x20 PUSH1 0x40 MLOAD DUP1 DUP4 SUB DUP2 PUSH0 DUP8 GAS CALL SWAP3 POP POP POP DUP1 ISZERO PUSH2 0x2C73 JUMPI POP PUSH1 0x40 MLOAD RETURNDATASIZE PUSH1 0x1F NOT PUSH1 0x1F DUP3 ADD AND DUP3 ADD DUP1 PUSH1 0x40 MSTORE POP DUP2 ADD SWAP1 PUSH2 0x2C70 SWAP2 SWAP1 PUSH2 0x551C JUMP JUMPDEST PUSH1 0x1 JUMPDEST PUSH2 0x2CF4 JUMPI RETURNDATASIZE DUP1 PUSH0 DUP2 EQ PUSH2 0x2CA1 JUMPI PUSH1 0x40 MLOAD SWAP2 POP PUSH1 0x1F NOT PUSH1 0x3F RETURNDATASIZE ADD AND DUP3 ADD PUSH1 0x40 MSTORE RETURNDATASIZE DUP3 MSTORE RETURNDATASIZE PUSH0 PUSH1 0x20 DUP5 ADD RETURNDATACOPY PUSH2 0x2CA6 JUMP JUMPDEST PUSH1 0x60 SWAP2 POP JUMPDEST POP PUSH0 DUP2 MLOAD SUB PUSH2 0x2CEC JUMPI DUP4 PUSH1 0x40 MLOAD PUSH32 0x64A0AE9200000000000000000000000000000000000000000000000000000000 DUP2 MSTORE PUSH1 0x4 ADD PUSH2 0x2CE3 SWAP2 SWAP1 PUSH2 0x4165 JUMP JUMPDEST PUSH1 0x40 MLOAD DUP1 SWAP2 SUB SWAP1 REVERT JUMPDEST DUP1 MLOAD PUSH1 0x20 DUP3 ADD REVERT JUMPDEST PUSH4 0x150B7A02 PUSH1 0xE0 SHL PUSH28 0xFFFFFFFFFFFFFFFFFFFFFFFFFFFFFFFFFFFFFFFFFFFFFFFFFFFFFFFF NOT AND DUP2 PUSH28 0xFFFFFFFFFFFFFFFFFFFFFFFFFFFFFFFFFFFFFFFFFFFFFFFFFFFFFFFF NOT AND EQ PUSH2 0x2D7D JUMPI DUP4 PUSH1 0x40 MLOAD PUSH32 0x64A0AE9200000000000000000000000000000000000000000000000000000000 DUP2 MSTORE PUSH1 0x4 ADD PUSH2 0x2D74 SWAP2 SWAP1 PUSH2 0x4165 JUMP JUMPDEST PUSH1 0x40 MLOAD DUP1 SWAP2 SUB SWAP1 REVERT JUMPDEST POP JUMPDEST POP POP POP POP POP JUMP JUMPDEST PUSH1 0x60 PUSH0 PUSH1 0x1 PUSH2 0x2D94 DUP5 PUSH2 0x36CC JUMP JUMPDEST ADD SWAP1 POP PUSH0 DUP2 PUSH8 0xFFFFFFFFFFFFFFFF DUP2 GT ISZERO PUSH2 0x2DB2 JUMPI PUSH2 0x2DB1 PUSH2 0x4709 JUMP JUMPDEST JUMPDEST PUSH1 0x40 MLOAD SWAP1 DUP1 DUP3 MSTORE DUP1 PUSH1 0x1F ADD PUSH1 0x1F NOT AND PUSH1 0x20 ADD DUP3 ADD PUSH1 0x40 MSTORE DUP1 ISZERO PUSH2 0x2DE4 JUMPI DUP2 PUSH1 0x20 ADD PUSH1 0x1 DUP3 MUL DUP1 CALLDATASIZE DUP4 CALLDATACOPY DUP1 DUP3 ADD SWAP2 POP POP SWAP1 POP JUMPDEST POP SWAP1 POP PUSH0 DUP3 PUSH1 0x20 DUP4 ADD ADD SWAP1 POP JUMPDEST PUSH1 0x1 ISZERO PUSH2 0x2E45 JUMPI DUP1 DUP1 PUSH1 0x1 SWAP1 SUB SWAP2 POP POP PUSH32 0x3031323334353637383961626364656600000000000000000000000000000000 PUSH1 0xA DUP7 MOD BYTE DUP2 MSTORE8 PUSH1 0xA DUP6 DUP2 PUSH2 0x2E3A JUMPI PUSH2 0x2E39 PUSH2 0x540F JUMP JUMPDEST JUMPDEST DIV SWAP5 POP PUSH0 DUP6 SUB PUSH2 0x2DF1 JUMPI JUMPDEST DUP2 SWAP4 POP POP POP POP SWAP2 SWAP1 POP JUMP JUMPDEST PUSH1 0x60 PUSH0 PUSH1 0x40 MLOAD DUP1 PUSH1 0x40 ADD PUSH1 0x40 MSTORE DUP1 PUSH1 0x10 DUP2 MSTORE PUSH1 0x20 ADD PUSH32 0x3031323334353637383961626364656600000000000000000000000000000000 DUP2 MSTORE POP SWAP1 POP PUSH0 PUSH1 0x40 PUSH8 0xFFFFFFFFFFFFFFFF DUP2 GT ISZERO PUSH2 0x2EA7 JUMPI PUSH2 0x2EA6 PUSH2 0x4709 JUMP JUMPDEST JUMPDEST PUSH1 0x40 MLOAD SWAP1 DUP1 DUP3 MSTORE DUP1 PUSH1 0x1F ADD PUSH1 0x1F NOT AND PUSH1 0x20 ADD DUP3 ADD PUSH1 0x40 MSTORE DUP1 ISZERO PUSH2 0x2ED9 JUMPI DUP2 PUSH1 0x20 ADD PUSH1 0x1 DUP3 MUL DUP1 CALLDATASIZE DUP4 CALLDATACOPY DUP1 DUP3 ADD SWAP2 POP POP SWAP1 POP JUMPDEST POP SWAP1 POP PUSH0 PUSH0 SWAP1 POP JUMPDEST PUSH1 0x20 DUP2 LT ISZERO PUSH2 0x3007 JUMPI PUSH0 DUP6 DUP3 PUSH1 0x20 DUP2 LT PUSH2 0x2EFE JUMPI PUSH2 0x2EFD PUSH2 0x5547 JUMP JUMPDEST JUMPDEST BYTE PUSH1 0xF8 SHL PUSH1 0xF8 SHR SWAP1 POP DUP4 PUSH1 0x4 DUP3 PUSH1 0xFF AND SWAP1 SHR PUSH1 0xFF AND DUP2 MLOAD DUP2 LT PUSH2 0x2F24 JUMPI PUSH2 0x2F23 PUSH2 0x5547 JUMP JUMPDEST JUMPDEST PUSH1 0x20 ADD ADD MLOAD PUSH1 0xF8 SHR PUSH1 0xF8 SHL DUP4 PUSH1 0x2 DUP5 PUSH2 0x2F3D SWAP2 SWAP1 PUSH2 0x4C67 JUMP JUMPDEST DUP2 MLOAD DUP2 LT PUSH2 0x2F4E JUMPI PUSH2 0x2F4D PUSH2 0x5547 JUMP JUMPDEST JUMPDEST PUSH1 0x20 ADD ADD SWAP1 PUSH31 0xFFFFFFFFFFFFFFFFFFFFFFFFFFFFFFFFFFFFFFFFFFFFFFFFFFFFFFFFFFFFFF NOT AND SWAP1 DUP2 PUSH0 BYTE SWAP1 MSTORE8 POP DUP4 PUSH1 0xF DUP3 AND PUSH1 0xFF AND DUP2 MLOAD DUP2 LT PUSH2 0x2F95 JUMPI PUSH2 0x2F94 PUSH2 0x5547 JUMP JUMPDEST JUMPDEST PUSH1 0x20 ADD ADD MLOAD PUSH1 0xF8 SHR PUSH1 0xF8 SHL DUP4 PUSH1 0x1 PUSH1 0x2 DUP6 PUSH2 0x2FB0 SWAP2 SWAP1 PUSH2 0x4C67 JUMP JUMPDEST PUSH2 0x2FBA SWAP2 SWAP1 PUSH2 0x4D29 JUMP JUMPDEST DUP2 MLOAD DUP2 LT PUSH2 0x2FCB JUMPI PUSH2 0x2FCA PUSH2 0x5547 JUMP JUMPDEST JUMPDEST PUSH1 0x20 ADD ADD SWAP1 PUSH31 0xFFFFFFFFFFFFFFFFFFFFFFFFFFFFFFFFFFFFFFFFFFFFFFFFFFFFFFFFFFFFFF NOT AND SWAP1 DUP2 PUSH0 BYTE SWAP1 MSTORE8 POP POP DUP1 DUP1 PUSH1 0x1 ADD SWAP2 POP POP PUSH2 0x2EE1 JUMP JUMPDEST POP DUP1 SWAP3 POP POP POP SWAP2 SWAP1 POP JUMP JUMPDEST PUSH0 PUSH32 0x80AC58CD00000000000000000000000000000000000000000000000000000000 PUSH28 0xFFFFFFFFFFFFFFFFFFFFFFFFFFFFFFFFFFFFFFFFFFFFFFFFFFFFFFFF NOT AND DUP3 PUSH28 0xFFFFFFFFFFFFFFFFFFFFFFFFFFFFFFFFFFFFFFFFFFFFFFFFFFFFFFFF NOT AND EQ DUP1 PUSH2 0x30DC JUMPI POP PUSH32 0x5B5E139F00000000000000000000000000000000000000000000000000000000 PUSH28 0xFFFFFFFFFFFFFFFFFFFFFFFFFFFFFFFFFFFFFFFFFFFFFFFFFFFFFFFF NOT AND DUP3 PUSH28 0xFFFFFFFFFFFFFFFFFFFFFFFFFFFFFFFFFFFFFFFFFFFFFFFFFFFFFFFF NOT AND EQ JUMPDEST DUP1 PUSH2 0x30EC JUMPI POP PUSH2 0x30EB DUP3 PUSH2 0x381D JUMP JUMPDEST JUMPDEST SWAP1 POP SWAP2 SWAP1 POP JUMP JUMPDEST PUSH0 PUSH0 PUSH2 0x30FE DUP5 PUSH2 0x2737 JUMP JUMPDEST SWAP1 POP PUSH0 PUSH20 0xFFFFFFFFFFFFFFFFFFFFFFFFFFFFFFFFFFFFFFFF AND DUP4 PUSH20 0xFFFFFFFFFFFFFFFFFFFFFFFFFFFFFFFFFFFFFFFF AND EQ PUSH2 0x313F JUMPI PUSH2 0x313E DUP2 DUP5 DUP7 PUSH2 0x3886 JUMP JUMPDEST JUMPDEST PUSH0 PUSH20 0xFFFFFFFFFFFFFFFFFFFFFFFFFFFFFFFFFFFFFFFF AND DUP2 PUSH20 0xFFFFFFFFFFFFFFFFFFFFFFFFFFFFFFFFFFFFFFFF AND EQ PUSH2 0x31CA JUMPI PUSH2 0x317E PUSH0 DUP6 PUSH0 PUSH0 PUSH2 0x3949 JUMP JUMPDEST PUSH1 0x1 PUSH1 0x3 PUSH0 DUP4 PUSH20 0xFFFFFFFFFFFFFFFFFFFFFFFFFFFFFFFFFFFFFFFF AND PUSH20 0xFFFFFFFFFFFFFFFFFFFFFFFFFFFFFFFFFFFFFFFF AND DUP2 MSTORE PUSH1 0x20 ADD SWAP1 DUP2 MSTORE PUSH1 0x20 ADD PUSH0 KECCAK256 PUSH0 DUP3 DUP3 SLOAD SUB SWAP3 POP POP DUP2 SWAP1 SSTORE POP JUMPDEST PUSH0 PUSH20 0xFFFFFFFFFFFFFFFFFFFFFFFFFFFFFFFFFFFFFFFF AND DUP6 PUSH20 0xFFFFFFFFFFFFFFFFFFFFFFFFFFFFFFFFFFFFFFFF AND EQ PUSH2 0x3249 JUMPI PUSH1 0x1 PUSH1 0x3 PUSH0 DUP8 PUSH20 0xFFFFFFFFFFFFFFFFFFFFFFFFFFFFFFFFFFFFFFFF AND PUSH20 0xFFFFFFFFFFFFFFFFFFFFFFFFFFFFFFFFFFFFFFFF AND DUP2 MSTORE PUSH1 0x20 ADD SWAP1 DUP2 MSTORE PUSH1 0x20 ADD PUSH0 KECCAK256 PUSH0 DUP3 DUP3 SLOAD ADD SWAP3 POP POP DUP2 SWAP1 SSTORE POP JUMPDEST DUP5 PUSH1 0x2 PUSH0 DUP7 DUP2 MSTORE PUSH1 0x20 ADD SWAP1 DUP2 MSTORE PUSH1 0x20 ADD PUSH0 KECCAK256 PUSH0 PUSH2 0x100 EXP DUP2 SLOAD DUP2 PUSH20 0xFFFFFFFFFFFFFFFFFFFFFFFFFFFFFFFFFFFFFFFF MUL NOT AND SWAP1 DUP4 PUSH20 0xFFFFFFFFFFFFFFFFFFFFFFFFFFFFFFFFFFFFFFFF AND MUL OR SWAP1 SSTORE POP DUP4 DUP6 PUSH20 0xFFFFFFFFFFFFFFFFFFFFFFFFFFFFFFFFFFFFFFFF AND DUP3 PUSH20 0xFFFFFFFFFFFFFFFFFFFFFFFFFFFFFFFFFFFFFFFF AND PUSH32 0xDDF252AD1BE2C89B69C2B068FC378DAA952BA7F163C4A11628F55A4DF523B3EF PUSH1 0x40 MLOAD PUSH1 0x40 MLOAD DUP1 SWAP2 SUB SWAP1 LOG4 DUP1 SWAP2 POP POP SWAP4 SWAP3 POP POP POP JUMP JUMPDEST PUSH2 0x3308 DUP3 DUP3 PUSH2 0x1A4E JUMP JUMPDEST PUSH2 0x334B JUMPI DUP1 DUP3 PUSH1 0x40 MLOAD PUSH32 0xE2517D3F00000000000000000000000000000000000000000000000000000000 DUP2 MSTORE PUSH1 0x4 ADD PUSH2 0x3342 SWAP3 SWAP2 SWAP1 PUSH2 0x5574 JUMP JUMPDEST PUSH1 0x40 MLOAD DUP1 SWAP2 SUB SWAP1 REVERT JUMPDEST POP POP JUMP JUMPDEST PUSH2 0x3359 DUP4 DUP4 PUSH2 0x3B08 JUMP JUMPDEST PUSH2 0x336D PUSH2 0x3364 PUSH2 0x277A JUMP JUMPDEST PUSH0 DUP6 DUP6 DUP6 PUSH2 0x2BDA JUMP JUMPDEST POP POP POP JUMP JUMPDEST PUSH0 PUSH32 0x0 PUSH20 0xFFFFFFFFFFFFFFFFFFFFFFFFFFFFFFFFFFFFFFFF AND ADDRESS PUSH20 0xFFFFFFFFFFFFFFFFFFFFFFFFFFFFFFFFFFFFFFFF AND EQ DUP1 ISZERO PUSH2 0x33ED JUMPI POP PUSH32 0x0 CHAINID EQ JUMPDEST ISZERO PUSH2 0x341A JUMPI PUSH32 0x0 SWAP1 POP PUSH2 0x3425 JUMP JUMPDEST PUSH2 0x3422 PUSH2 0x3BFB JUMP JUMPDEST SWAP1 POP JUMPDEST SWAP1 JUMP JUMPDEST PUSH0 PUSH1 0x40 MLOAD PUSH32 0x1901000000000000000000000000000000000000000000000000000000000000 DUP2 MSTORE DUP4 PUSH1 0x2 DUP3 ADD MSTORE DUP3 PUSH1 0x22 DUP3 ADD MSTORE PUSH1 0x42 DUP2 KECCAK256 SWAP2 POP POP SWAP3 SWAP2 POP POP JUMP JUMPDEST PUSH0 PUSH0 PUSH0 PUSH1 0x41 DUP5 MLOAD SUB PUSH2 0x34A8 JUMPI PUSH0 PUSH0 PUSH0 PUSH1 0x20 DUP8 ADD MLOAD SWAP3 POP PUSH1 0x40 DUP8 ADD MLOAD SWAP2 POP PUSH1 0x60 DUP8 ADD MLOAD PUSH0 BYTE SWAP1 POP PUSH2 0x349A DUP9 DUP3 DUP6 DUP6 PUSH2 0x3C90 JUMP JUMPDEST SWAP6 POP SWAP6 POP SWAP6 POP POP POP POP PUSH2 0x34B6 JUMP JUMPDEST PUSH0 PUSH1 0x2 DUP6 MLOAD PUSH0 SHL SWAP3 POP SWAP3 POP SWAP3 POP JUMPDEST SWAP3 POP SWAP3 POP SWAP3 JUMP JUMPDEST PUSH0 PUSH1 0x3 DUP2 GT ISZERO PUSH2 0x34D0 JUMPI PUSH2 0x34CF PUSH2 0x559B JUMP JUMPDEST JUMPDEST DUP3 PUSH1 0x3 DUP2 GT ISZERO PUSH2 0x34E3 JUMPI PUSH2 0x34E2 PUSH2 0x559B JUMP JUMPDEST JUMPDEST SUB ISZERO PUSH2 0x361B JUMPI PUSH1 0x1 PUSH1 0x3 DUP2 GT ISZERO PUSH2 0x34FD JUMPI PUSH2 0x34FC PUSH2 0x559B JUMP JUMPDEST JUMPDEST DUP3 PUSH1 0x3 DUP2 GT ISZERO PUSH2 0x3510 JUMPI PUSH2 0x350F PUSH2 0x559B JUMP JUMPDEST JUMPDEST SUB PUSH2 0x3547 JUMPI PUSH1 0x40 MLOAD PUSH32 0xF645EEDF00000000000000000000000000000000000000000000000000000000 DUP2 MSTORE PUSH1 0x4 ADD PUSH1 0x40 MLOAD DUP1 SWAP2 SUB SWAP1 REVERT JUMPDEST PUSH1 0x2 PUSH1 0x3 DUP2 GT ISZERO PUSH2 0x355B JUMPI PUSH2 0x355A PUSH2 0x559B JUMP JUMPDEST JUMPDEST DUP3 PUSH1 0x3 DUP2 GT ISZERO PUSH2 0x356E JUMPI PUSH2 0x356D PUSH2 0x559B JUMP JUMPDEST JUMPDEST SUB PUSH2 0x35B2 JUMPI DUP1 PUSH0 SHR PUSH1 0x40 MLOAD PUSH32 0xFCE698F700000000000000000000000000000000000000000000000000000000 DUP2 MSTORE PUSH1 0x4 ADD PUSH2 0x35A9 SWAP2 SWAP1 PUSH2 0x4058 JUMP JUMPDEST PUSH1 0x40 MLOAD DUP1 SWAP2 SUB SWAP1 REVERT JUMPDEST PUSH1 0x3 DUP1 DUP2 GT ISZERO PUSH2 0x35C5 JUMPI PUSH2 0x35C4 PUSH2 0x559B JUMP JUMPDEST JUMPDEST DUP3 PUSH1 0x3 DUP2 GT ISZERO PUSH2 0x35D8 JUMPI PUSH2 0x35D7 PUSH2 0x559B JUMP JUMPDEST JUMPDEST SUB PUSH2 0x361A JUMPI DUP1 PUSH1 0x40 MLOAD PUSH32 0xD78BCE0C00000000000000000000000000000000000000000000000000000000 DUP2 MSTORE PUSH1 0x4 ADD PUSH2 0x3611 SWAP2 SWAP1 PUSH2 0x41D4 JUMP JUMPDEST PUSH1 0x40 MLOAD DUP1 SWAP2 SUB SWAP1 REVERT JUMPDEST JUMPDEST POP POP JUMP JUMPDEST PUSH1 0x60 PUSH1 0xFF PUSH0 SHL DUP4 EQ PUSH2 0x363B JUMPI PUSH2 0x3634 DUP4 PUSH2 0x3D77 JUMP JUMPDEST SWAP1 POP PUSH2 0x36C6 JUMP JUMPDEST DUP2 DUP1 SLOAD PUSH2 0x3647 SWAP1 PUSH2 0x4A6A JUMP JUMPDEST DUP1 PUSH1 0x1F ADD PUSH1 0x20 DUP1 SWAP2 DIV MUL PUSH1 0x20 ADD PUSH1 0x40 MLOAD SWAP1 DUP2 ADD PUSH1 0x40 MSTORE DUP1 SWAP3 SWAP2 SWAP1 DUP2 DUP2 MSTORE PUSH1 0x20 ADD DUP3 DUP1 SLOAD PUSH2 0x3673 SWAP1 PUSH2 0x4A6A JUMP JUMPDEST DUP1 ISZERO PUSH2 0x36BE JUMPI DUP1 PUSH1 0x1F LT PUSH2 0x3695 JUMPI PUSH2 0x100 DUP1 DUP4 SLOAD DIV MUL DUP4 MSTORE SWAP2 PUSH1 0x20 ADD SWAP2 PUSH2 0x36BE JUMP JUMPDEST DUP3 ADD SWAP2 SWAP1 PUSH0 MSTORE PUSH1 0x20 PUSH0 KECCAK256 SWAP1 JUMPDEST DUP2 SLOAD DUP2 MSTORE SWAP1 PUSH1 0x1 ADD SWAP1 PUSH1 0x20 ADD DUP1 DUP4 GT PUSH2 0x36A1 JUMPI DUP3 SWAP1 SUB PUSH1 0x1F AND DUP3 ADD SWAP2 JUMPDEST POP POP POP POP POP SWAP1 POP JUMPDEST SWAP3 SWAP2 POP POP JUMP JUMPDEST PUSH0 PUSH0 PUSH0 SWAP1 POP PUSH27 0x184F03E93FF9F4DAA797ED6E38ED64BF6A1F010000000000000000 DUP4 LT PUSH2 0x3728 JUMPI PUSH27 0x184F03E93FF9F4DAA797ED6E38ED64BF6A1F010000000000000000 DUP4 DUP2 PUSH2 0x371E JUMPI PUSH2 0x371D PUSH2 0x540F JUMP JUMPDEST JUMPDEST DIV SWAP3 POP PUSH1 0x40 DUP2 ADD SWAP1 POP JUMPDEST PUSH14 0x4EE2D6D415B85ACEF8100000000 DUP4 LT PUSH2 0x3765 JUMPI PUSH14 0x4EE2D6D415B85ACEF8100000000 DUP4 DUP2 PUSH2 0x375B JUMPI PUSH2 0x375A PUSH2 0x540F JUMP JUMPDEST JUMPDEST DIV SWAP3 POP PUSH1 0x20 DUP2 ADD SWAP1 POP JUMPDEST PUSH7 0x2386F26FC10000 DUP4 LT PUSH2 0x3794 JUMPI PUSH7 0x2386F26FC10000 DUP4 DUP2 PUSH2 0x378A JUMPI PUSH2 0x3789 PUSH2 0x540F JUMP JUMPDEST JUMPDEST DIV SWAP3 POP PUSH1 0x10 DUP2 ADD SWAP1 POP JUMPDEST PUSH4 0x5F5E100 DUP4 LT PUSH2 0x37BD JUMPI PUSH4 0x5F5E100 DUP4 DUP2 PUSH2 0x37B3 JUMPI PUSH2 0x37B2 PUSH2 0x540F JUMP JUMPDEST JUMPDEST DIV SWAP3 POP PUSH1 0x8 DUP2 ADD SWAP1 POP JUMPDEST PUSH2 0x2710 DUP4 LT PUSH2 0x37E2 JUMPI PUSH2 0x2710 DUP4 DUP2 PUSH2 0x37D8 JUMPI PUSH2 0x37D7 PUSH2 0x540F JUMP JUMPDEST JUMPDEST DIV SWAP3 POP PUSH1 0x4 DUP2 ADD SWAP1 POP JUMPDEST PUSH1 0x64 DUP4 LT PUSH2 0x3805 JUMPI PUSH1 0x64 DUP4 DUP2 PUSH2 0x37FB JUMPI PUSH2 0x37FA PUSH2 0x540F JUMP JUMPDEST JUMPDEST DIV SWAP3 POP PUSH1 0x2 DUP2 ADD SWAP1 POP JUMPDEST PUSH1 0xA DUP4 LT PUSH2 0x3814 JUMPI PUSH1 0x1 DUP2 ADD SWAP1 POP JUMPDEST DUP1 SWAP2 POP POP SWAP2 SWAP1 POP JUMP JUMPDEST PUSH0 PUSH32 0x1FFC9A700000000000000000000000000000000000000000000000000000000 PUSH28 0xFFFFFFFFFFFFFFFFFFFFFFFFFFFFFFFFFFFFFFFFFFFFFFFFFFFFFFFF NOT AND DUP3 PUSH28 0xFFFFFFFFFFFFFFFFFFFFFFFFFFFFFFFFFFFFFFFFFFFFFFFFFFFFFFFF NOT AND EQ SWAP1 POP SWAP2 SWAP1 POP JUMP JUMPDEST PUSH2 0x3891 DUP4 DUP4 DUP4 PUSH2 0x3DE9 JUMP JUMPDEST PUSH2 0x3944 JUMPI PUSH0 PUSH20 0xFFFFFFFFFFFFFFFFFFFFFFFFFFFFFFFFFFFFFFFF AND DUP4 PUSH20 0xFFFFFFFFFFFFFFFFFFFFFFFFFFFFFFFFFFFFFFFF AND SUB PUSH2 0x3905 JUMPI DUP1 PUSH1 0x40 MLOAD PUSH32 0x7E27328900000000000000000000000000000000000000000000000000000000 DUP2 MSTORE PUSH1 0x4 ADD PUSH2 0x38FC SWAP2 SWAP1 PUSH2 0x4058 JUMP JUMPDEST PUSH1 0x40 MLOAD DUP1 SWAP2 SUB SWAP1 REVERT JUMPDEST DUP2 DUP2 PUSH1 0x40 MLOAD PUSH32 0x177E802F00000000000000000000000000000000000000000000000000000000 DUP2 MSTORE PUSH1 0x4 ADD PUSH2 0x393B SWAP3 SWAP2 SWAP1 PUSH2 0x55C8 JUMP JUMPDEST PUSH1 0x40 MLOAD DUP1 SWAP2 SUB SWAP1 REVERT JUMPDEST POP POP POP JUMP JUMPDEST DUP1 DUP1 PUSH2 0x3981 JUMPI POP PUSH0 PUSH20 0xFFFFFFFFFFFFFFFFFFFFFFFFFFFFFFFFFFFFFFFF AND DUP3 PUSH20 0xFFFFFFFFFFFFFFFFFFFFFFFFFFFFFFFFFFFFFFFF AND EQ ISZERO JUMPDEST ISZERO PUSH2 0x3AB3 JUMPI PUSH0 PUSH2 0x3990 DUP5 PUSH2 0x2629 JUMP JUMPDEST SWAP1 POP PUSH0 PUSH20 0xFFFFFFFFFFFFFFFFFFFFFFFFFFFFFFFFFFFFFFFF AND DUP4 PUSH20 0xFFFFFFFFFFFFFFFFFFFFFFFFFFFFFFFFFFFFFFFF AND EQ ISZERO DUP1 ISZERO PUSH2 0x39FA JUMPI POP DUP3 PUSH20 0xFFFFFFFFFFFFFFFFFFFFFFFFFFFFFFFFFFFFFFFF AND DUP2 PUSH20 0xFFFFFFFFFFFFFFFFFFFFFFFFFFFFFFFFFFFFFFFF AND EQ ISZERO JUMPDEST DUP1 ISZERO PUSH2 0x3A0D JUMPI POP PUSH2 0x3A0B DUP2 DUP5 PUSH2 0x2350 JUMP JUMPDEST ISZERO JUMPDEST ISZERO PUSH2 0x3A4F JUMPI DUP3 PUSH1 0x40 MLOAD PUSH32 0xA9FBF51F00000000000000000000000000000000000000000000000000000000 DUP2 MSTORE PUSH1 0x4 ADD PUSH2 0x3A46 SWAP2 SWAP1 PUSH2 0x4165 JUMP JUMPDEST PUSH1 0x40 MLOAD DUP1 SWAP2 SUB SWAP1 REVERT JUMPDEST DUP2 ISZERO PUSH2 0x3AB1 JUMPI DUP4 DUP6 PUSH20 0xFFFFFFFFFFFFFFFFFFFFFFFFFFFFFFFFFFFFFFFF AND DUP3 PUSH20 0xFFFFFFFFFFFFFFFFFFFFFFFFFFFFFFFFFFFFFFFF AND PUSH32 0x8C5BE1E5EBEC7D5BD14F71427D1E84F3DD0314C0F7B2291E5B200AC8C7C3B925 PUSH1 0x40 MLOAD PUSH1 0x40 MLOAD DUP1 SWAP2 SUB SWAP1 LOG4 JUMPDEST POP JUMPDEST DUP4 PUSH1 0x4 PUSH0 DUP6 DUP2 MSTORE PUSH1 0x20 ADD SWAP1 DUP2 MSTORE PUSH1 0x20 ADD PUSH0 KECCAK256 PUSH0 PUSH2 0x100 EXP DUP2 SLOAD DUP2 PUSH20 0xFFFFFFFFFFFFFFFFFFFFFFFFFFFFFFFFFFFFFFFF MUL NOT AND SWAP1 DUP4 PUSH20 0xFFFFFFFFFFFFFFFFFFFFFFFFFFFFFFFFFFFFFFFF AND MUL OR SWAP1 SSTORE POP POP POP POP POP JUMP JUMPDEST PUSH0 PUSH20 0xFFFFFFFFFFFFFFFFFFFFFFFFFFFFFFFFFFFFFFFF AND DUP3 PUSH20 0xFFFFFFFFFFFFFFFFFFFFFFFFFFFFFFFFFFFFFFFF AND SUB PUSH2 0x3B78 JUMPI PUSH0 PUSH1 0x40 MLOAD PUSH32 0x64A0AE9200000000000000000000000000000000000000000000000000000000 DUP2 MSTORE PUSH1 0x4 ADD PUSH2 0x3B6F SWAP2 SWAP1 PUSH2 0x4165 JUMP JUMPDEST PUSH1 0x40 MLOAD DUP1 SWAP2 SUB SWAP1 REVERT JUMPDEST PUSH0 PUSH2 0x3B84 DUP4 DUP4 PUSH0 PUSH2 0x2781 JUMP JUMPDEST SWAP1 POP PUSH0 PUSH20 0xFFFFFFFFFFFFFFFFFFFFFFFFFFFFFFFFFFFFFFFF AND DUP2 PUSH20 0xFFFFFFFFFFFFFFFFFFFFFFFFFFFFFFFFFFFFFFFF AND EQ PUSH2 0x3BF6 JUMPI PUSH0 PUSH1 0x40 MLOAD PUSH32 0x73C6AC6E00000000000000000000000000000000000000000000000000000000 DUP2 MSTORE PUSH1 0x4 ADD PUSH2 0x3BED SWAP2 SWAP1 PUSH2 0x4165 JUMP JUMPDEST PUSH1 0x40 MLOAD DUP1 SWAP2 SUB SWAP1 REVERT JUMPDEST POP POP POP JUMP JUMPDEST PUSH0 PUSH32 0x8B73C3C69BB8FE3D512ECC4CF759CC79239F7B179B0FFACAA9A75D522B39400F PUSH32 0x0 PUSH32 0x0 CHAINID ADDRESS PUSH1 0x40 MLOAD PUSH1 0x20 ADD PUSH2 0x3C75 SWAP6 SWAP5 SWAP4 SWAP3 SWAP2 SWAP1 PUSH2 0x55EF JUMP JUMPDEST PUSH1 0x40 MLOAD PUSH1 0x20 DUP2 DUP4 SUB SUB DUP2 MSTORE SWAP1 PUSH1 0x40 MSTORE DUP1 MLOAD SWAP1 PUSH1 0x20 ADD KECCAK256 SWAP1 POP SWAP1 JUMP JUMPDEST PUSH0 PUSH0 PUSH0 PUSH32 0x7FFFFFFFFFFFFFFFFFFFFFFFFFFFFFFF5D576E7357A4501DDFE92F46681B20A0 DUP5 PUSH0 SHR GT ISZERO PUSH2 0x3CCC JUMPI PUSH0 PUSH1 0x3 DUP6 SWAP3 POP SWAP3 POP SWAP3 POP PUSH2 0x3D6D JUMP JUMPDEST PUSH0 PUSH1 0x1 DUP9 DUP9 DUP9 DUP9 PUSH1 0x40 MLOAD PUSH0 DUP2 MSTORE PUSH1 0x20 ADD PUSH1 0x40 MSTORE PUSH1 0x40 MLOAD PUSH2 0x3CEF SWAP5 SWAP4 SWAP3 SWAP2 SWAP1 PUSH2 0x565B JUMP JUMPDEST PUSH1 0x20 PUSH1 0x40 MLOAD PUSH1 0x20 DUP2 SUB SWAP1 DUP1 DUP5 SUB SWAP1 DUP6 GAS STATICCALL ISZERO DUP1 ISZERO PUSH2 0x3D0F JUMPI RETURNDATASIZE PUSH0 PUSH0 RETURNDATACOPY RETURNDATASIZE PUSH0 REVERT JUMPDEST POP POP POP PUSH1 0x20 PUSH1 0x40 MLOAD SUB MLOAD SWAP1 POP PUSH0 PUSH20 0xFFFFFFFFFFFFFFFFFFFFFFFFFFFFFFFFFFFFFFFF AND DUP2 PUSH20 0xFFFFFFFFFFFFFFFFFFFFFFFFFFFFFFFFFFFFFFFF AND SUB PUSH2 0x3D60 JUMPI PUSH0 PUSH1 0x1 PUSH0 PUSH0 SHL SWAP4 POP SWAP4 POP SWAP4 POP POP PUSH2 0x3D6D JUMP JUMPDEST DUP1 PUSH0 PUSH0 PUSH0 SHL SWAP4 POP SWAP4 POP SWAP4 POP POP JUMPDEST SWAP5 POP SWAP5 POP SWAP5 SWAP2 POP POP JUMP JUMPDEST PUSH1 0x60 PUSH0 PUSH2 0x3D83 DUP4 PUSH2 0x3EA9 JUMP JUMPDEST SWAP1 POP PUSH0 PUSH1 0x20 PUSH8 0xFFFFFFFFFFFFFFFF DUP2 GT ISZERO PUSH2 0x3DA1 JUMPI PUSH2 0x3DA0 PUSH2 0x4709 JUMP JUMPDEST JUMPDEST PUSH1 0x40 MLOAD SWAP1 DUP1 DUP3 MSTORE DUP1 PUSH1 0x1F ADD PUSH1 0x1F NOT AND PUSH1 0x20 ADD DUP3 ADD PUSH1 0x40 MSTORE DUP1 ISZERO PUSH2 0x3DD3 JUMPI DUP2 PUSH1 0x20 ADD PUSH1 0x1 DUP3 MUL DUP1 CALLDATASIZE DUP4 CALLDATACOPY DUP1 DUP3 ADD SWAP2 POP POP SWAP1 POP JUMPDEST POP SWAP1 POP DUP2 DUP2 MSTORE DUP4 PUSH1 0x20 DUP3 ADD MSTORE DUP1 SWAP3 POP POP POP SWAP2 SWAP1 POP JUMP JUMPDEST PUSH0 PUSH0 PUSH20 0xFFFFFFFFFFFFFFFFFFFFFFFFFFFFFFFFFFFFFFFF AND DUP4 PUSH20 0xFFFFFFFFFFFFFFFFFFFFFFFFFFFFFFFFFFFFFFFF AND EQ ISZERO DUP1 ISZERO PUSH2 0x3EA0 JUMPI POP DUP3 PUSH20 0xFFFFFFFFFFFFFFFFFFFFFFFFFFFFFFFFFFFFFFFF AND DUP5 PUSH20 0xFFFFFFFFFFFFFFFFFFFFFFFFFFFFFFFFFFFFFFFF AND EQ DUP1 PUSH2 0x3E61 JUMPI POP PUSH2 0x3E60 DUP5 DUP5 PUSH2 0x2350 JUMP JUMPDEST JUMPDEST DUP1 PUSH2 0x3E9F JUMPI POP DUP3 PUSH20 0xFFFFFFFFFFFFFFFFFFFFFFFFFFFFFFFFFFFFFFFF AND PUSH2 0x3E87 DUP4 PUSH2 0x26AF JUMP JUMPDEST PUSH20 0xFFFFFFFFFFFFFFFFFFFFFFFFFFFFFFFFFFFFFFFF AND EQ JUMPDEST JUMPDEST SWAP1 POP SWAP4 SWAP3 POP POP POP JUMP JUMPDEST PUSH0 PUSH0 PUSH1 0xFF DUP4 PUSH0 SHR AND SWAP1 POP PUSH1 0x1F DUP2 GT ISZERO PUSH2 0x3EEE JUMPI PUSH1 0x40 MLOAD PUSH32 0xB3512B0C00000000000000000000000000000000000000000000000000000000 DUP2 MSTORE PUSH1 0x4 ADD PUSH1 0x40 MLOAD DUP1 SWAP2 SUB SWAP1 REVERT JUMPDEST DUP1 SWAP2 POP POP SWAP2 SWAP1 POP JUMP JUMPDEST PUSH0 PUSH1 0x40 MLOAD SWAP1 POP SWAP1 JUMP JUMPDEST PUSH0 PUSH0 REVERT JUMPDEST PUSH0 PUSH0 REVERT JUMPDEST PUSH0 PUSH32 0xFFFFFFFF00000000000000000000000000000000000000000000000000000000 DUP3 AND SWAP1 POP SWAP2 SWAP1 POP JUMP JUMPDEST PUSH2 0x3F3C DUP2 PUSH2 0x3F08 JUMP JUMPDEST DUP2 EQ PUSH2 0x3F46 JUMPI PUSH0 PUSH0 REVERT JUMPDEST POP JUMP JUMPDEST PUSH0 DUP2 CALLDATALOAD SWAP1 POP PUSH2 0x3F57 DUP2 PUSH2 0x3F33 JUMP JUMPDEST SWAP3 SWAP2 POP POP JUMP JUMPDEST PUSH0 PUSH1 0x20 DUP3 DUP5 SUB SLT ISZERO PUSH2 0x3F72 JUMPI PUSH2 0x3F71 PUSH2 0x3F00 JUMP JUMPDEST JUMPDEST PUSH0 PUSH2 0x3F7F DUP5 DUP3 DUP6 ADD PUSH2 0x3F49 JUMP JUMPDEST SWAP2 POP POP SWAP3 SWAP2 POP POP JUMP JUMPDEST PUSH0 DUP2 ISZERO ISZERO SWAP1 POP SWAP2 SWAP1 POP JUMP JUMPDEST PUSH2 0x3F9C DUP2 PUSH2 0x3F88 JUMP JUMPDEST DUP3 MSTORE POP POP JUMP JUMPDEST PUSH0 PUSH1 0x20 DUP3 ADD SWAP1 POP PUSH2 0x3FB5 PUSH0 DUP4 ADD DUP5 PUSH2 0x3F93 JUMP JUMPDEST SWAP3 SWAP2 POP POP JUMP JUMPDEST PUSH0 PUSH20 0xFFFFFFFFFFFFFFFFFFFFFFFFFFFFFFFFFFFFFFFF DUP3 AND SWAP1 POP SWAP2 SWAP1 POP JUMP JUMPDEST PUSH0 PUSH2 0x3FE4 DUP3 PUSH2 0x3FBB JUMP JUMPDEST SWAP1 POP SWAP2 SWAP1 POP JUMP JUMPDEST PUSH2 0x3FF4 DUP2 PUSH2 0x3FDA JUMP JUMPDEST DUP2 EQ PUSH2 0x3FFE JUMPI PUSH0 PUSH0 REVERT JUMPDEST POP JUMP JUMPDEST PUSH0 DUP2 CALLDATALOAD SWAP1 POP PUSH2 0x400F DUP2 PUSH2 0x3FEB JUMP JUMPDEST SWAP3 SWAP2 POP POP JUMP JUMPDEST PUSH0 PUSH1 0x20 DUP3 DUP5 SUB SLT ISZERO PUSH2 0x402A JUMPI PUSH2 0x4029 PUSH2 0x3F00 JUMP JUMPDEST JUMPDEST PUSH0 PUSH2 0x4037 DUP5 DUP3 DUP6 ADD PUSH2 0x4001 JUMP JUMPDEST SWAP2 POP POP SWAP3 SWAP2 POP POP JUMP JUMPDEST PUSH0 DUP2 SWAP1 POP SWAP2 SWAP1 POP JUMP JUMPDEST PUSH2 0x4052 DUP2 PUSH2 0x4040 JUMP JUMPDEST DUP3 MSTORE POP POP JUMP JUMPDEST PUSH0 PUSH1 0x20 DUP3 ADD SWAP1 POP PUSH2 0x406B PUSH0 DUP4 ADD DUP5 PUSH2 0x4049 JUMP JUMPDEST SWAP3 SWAP2 POP POP JUMP JUMPDEST PUSH0 DUP2 MLOAD SWAP1 POP SWAP2 SWAP1 POP JUMP JUMPDEST PUSH0 DUP3 DUP3 MSTORE PUSH1 0x20 DUP3 ADD SWAP1 POP SWAP3 SWAP2 POP POP JUMP JUMPDEST DUP3 DUP2 DUP4 MCOPY PUSH0 DUP4 DUP4 ADD MSTORE POP POP POP JUMP JUMPDEST PUSH0 PUSH1 0x1F NOT PUSH1 0x1F DUP4 ADD AND SWAP1 POP SWAP2 SWAP1 POP JUMP JUMPDEST PUSH0 PUSH2 0x40B3 DUP3 PUSH2 0x4071 JUMP JUMPDEST PUSH2 0x40BD DUP2 DUP6 PUSH2 0x407B JUMP JUMPDEST SWAP4 POP PUSH2 0x40CD DUP2 DUP6 PUSH1 0x20 DUP7 ADD PUSH2 0x408B JUMP JUMPDEST PUSH2 0x40D6 DUP2 PUSH2 0x4099 JUMP JUMPDEST DUP5 ADD SWAP2 POP POP SWAP3 SWAP2 POP POP JUMP JUMPDEST PUSH0 PUSH1 0x20 DUP3 ADD SWAP1 POP DUP2 DUP2 SUB PUSH0 DUP4 ADD MSTORE PUSH2 0x40F9 DUP2 DUP5 PUSH2 0x40A9 JUMP JUMPDEST SWAP1 POP SWAP3 SWAP2 POP POP JUMP JUMPDEST PUSH2 0x410A DUP2 PUSH2 0x4040 JUMP JUMPDEST DUP2 EQ PUSH2 0x4114 JUMPI PUSH0 PUSH0 REVERT JUMPDEST POP JUMP JUMPDEST PUSH0 DUP2 CALLDATALOAD SWAP1 POP PUSH2 0x4125 DUP2 PUSH2 0x4101 JUMP JUMPDEST SWAP3 SWAP2 POP POP JUMP JUMPDEST PUSH0 PUSH1 0x20 DUP3 DUP5 SUB SLT ISZERO PUSH2 0x4140 JUMPI PUSH2 0x413F PUSH2 0x3F00 JUMP JUMPDEST JUMPDEST PUSH0 PUSH2 0x414D DUP5 DUP3 DUP6 ADD PUSH2 0x4117 JUMP JUMPDEST SWAP2 POP POP SWAP3 SWAP2 POP POP JUMP JUMPDEST PUSH2 0x415F DUP2 PUSH2 0x3FDA JUMP JUMPDEST DUP3 MSTORE POP POP JUMP JUMPDEST PUSH0 PUSH1 0x20 DUP3 ADD SWAP1 POP PUSH2 0x4178 PUSH0 DUP4 ADD DUP5 PUSH2 0x4156 JUMP JUMPDEST SWAP3 SWAP2 POP POP JUMP JUMPDEST PUSH0 PUSH0 PUSH1 0x40 DUP4 DUP6 SUB SLT ISZERO PUSH2 0x4194 JUMPI PUSH2 0x4193 PUSH2 0x3F00 JUMP JUMPDEST JUMPDEST PUSH0 PUSH2 0x41A1 DUP6 DUP3 DUP7 ADD PUSH2 0x4001 JUMP JUMPDEST SWAP3 POP POP PUSH1 0x20 PUSH2 0x41B2 DUP6 DUP3 DUP7 ADD PUSH2 0x4117 JUMP JUMPDEST SWAP2 POP POP SWAP3 POP SWAP3 SWAP1 POP JUMP JUMPDEST PUSH0 DUP2 SWAP1 POP SWAP2 SWAP1 POP JUMP JUMPDEST PUSH2 0x41CE DUP2 PUSH2 0x41BC JUMP JUMPDEST DUP3 MSTORE POP POP JUMP JUMPDEST PUSH0 PUSH1 0x20 DUP3 ADD SWAP1 POP PUSH2 0x41E7 PUSH0 DUP4 ADD DUP5 PUSH2 0x41C5 JUMP JUMPDEST SWAP3 SWAP2 POP POP JUMP JUMPDEST PUSH0 PUSH0 PUSH0 PUSH1 0x60 DUP5 DUP7 SUB SLT ISZERO PUSH2 0x4204 JUMPI PUSH2 0x4203 PUSH2 0x3F00 JUMP JUMPDEST JUMPDEST PUSH0 PUSH2 0x4211 DUP7 DUP3 DUP8 ADD PUSH2 0x4001 JUMP JUMPDEST SWAP4 POP POP PUSH1 0x20 PUSH2 0x4222 DUP7 DUP3 DUP8 ADD PUSH2 0x4001 JUMP JUMPDEST SWAP3 POP POP PUSH1 0x40 PUSH2 0x4233 DUP7 DUP3 DUP8 ADD PUSH2 0x4117 JUMP JUMPDEST SWAP2 POP POP SWAP3 POP SWAP3 POP SWAP3 JUMP JUMPDEST PUSH2 0x4246 DUP2 PUSH2 0x41BC JUMP JUMPDEST DUP2 EQ PUSH2 0x4250 JUMPI PUSH0 PUSH0 REVERT JUMPDEST POP JUMP JUMPDEST PUSH0 DUP2 CALLDATALOAD SWAP1 POP PUSH2 0x4261 DUP2 PUSH2 0x423D JUMP JUMPDEST SWAP3 SWAP2 POP POP JUMP JUMPDEST PUSH0 PUSH1 0x20 DUP3 DUP5 SUB SLT ISZERO PUSH2 0x427C JUMPI PUSH2 0x427B PUSH2 0x3F00 JUMP JUMPDEST JUMPDEST PUSH0 PUSH2 0x4289 DUP5 DUP3 DUP6 ADD PUSH2 0x4253 JUMP JUMPDEST SWAP2 POP POP SWAP3 SWAP2 POP POP JUMP JUMPDEST PUSH0 PUSH0 PUSH1 0x40 DUP4 DUP6 SUB SLT ISZERO PUSH2 0x42A8 JUMPI PUSH2 0x42A7 PUSH2 0x3F00 JUMP JUMPDEST JUMPDEST PUSH0 PUSH2 0x42B5 DUP6 DUP3 DUP7 ADD PUSH2 0x4253 JUMP JUMPDEST SWAP3 POP POP PUSH1 0x20 PUSH2 0x42C6 DUP6 DUP3 DUP7 ADD PUSH2 0x4001 JUMP JUMPDEST SWAP2 POP POP SWAP3 POP SWAP3 SWAP1 POP JUMP JUMPDEST PUSH0 PUSH2 0xFFFF DUP3 AND SWAP1 POP SWAP2 SWAP1 POP JUMP JUMPDEST PUSH2 0x42E6 DUP2 PUSH2 0x42D0 JUMP JUMPDEST DUP2 EQ PUSH2 0x42F0 JUMPI PUSH0 PUSH0 REVERT JUMPDEST POP JUMP JUMPDEST PUSH0 DUP2 CALLDATALOAD SWAP1 POP PUSH2 0x4301 DUP2 PUSH2 0x42DD JUMP JUMPDEST SWAP3 SWAP2 POP POP JUMP JUMPDEST PUSH0 PUSH0 PUSH0 PUSH0 PUSH1 0x80 DUP6 DUP8 SUB SLT ISZERO PUSH2 0x431F JUMPI PUSH2 0x431E PUSH2 0x3F00 JUMP JUMPDEST JUMPDEST PUSH0 PUSH2 0x432C DUP8 DUP3 DUP9 ADD PUSH2 0x4001 JUMP JUMPDEST SWAP5 POP POP PUSH1 0x20 PUSH2 0x433D DUP8 DUP3 DUP9 ADD PUSH2 0x4253 JUMP JUMPDEST SWAP4 POP POP PUSH1 0x40 PUSH2 0x434E DUP8 DUP3 DUP9 ADD PUSH2 0x42F3 JUMP JUMPDEST SWAP3 POP POP PUSH1 0x60 PUSH2 0x435F DUP8 DUP3 DUP9 ADD PUSH2 0x42F3 JUMP JUMPDEST SWAP2 POP POP SWAP3 SWAP6 SWAP2 SWAP5 POP SWAP3 POP JUMP JUMPDEST PUSH0 PUSH8 0xFFFFFFFFFFFFFFFF DUP3 AND SWAP1 POP SWAP2 SWAP1 POP JUMP JUMPDEST PUSH2 0x4387 DUP2 PUSH2 0x436B JUMP JUMPDEST DUP2 EQ PUSH2 0x4391 JUMPI PUSH0 PUSH0 REVERT JUMPDEST POP JUMP JUMPDEST PUSH0 DUP2 CALLDATALOAD SWAP1 POP PUSH2 0x43A2 DUP2 PUSH2 0x437E JUMP JUMPDEST SWAP3 SWAP2 POP POP JUMP JUMPDEST PUSH0 PUSH4 0xFFFFFFFF DUP3 AND SWAP1 POP SWAP2 SWAP1 POP JUMP JUMPDEST PUSH2 0x43C0 DUP2 PUSH2 0x43A8 JUMP JUMPDEST DUP2 EQ PUSH2 0x43CA JUMPI PUSH0 PUSH0 REVERT JUMPDEST POP JUMP JUMPDEST PUSH0 DUP2 CALLDATALOAD SWAP1 POP PUSH2 0x43DB DUP2 PUSH2 0x43B7 JUMP JUMPDEST SWAP3 SWAP2 POP POP JUMP JUMPDEST PUSH0 PUSH0 REVERT JUMPDEST PUSH0 PUSH0 REVERT JUMPDEST PUSH0 PUSH0 REVERT JUMPDEST PUSH0 PUSH0 DUP4 PUSH1 0x1F DUP5 ADD SLT PUSH2 0x4402 JUMPI PUSH2 0x4401 PUSH2 0x43E1 JUMP JUMPDEST JUMPDEST DUP3 CALLDATALOAD SWAP1 POP PUSH8 0xFFFFFFFFFFFFFFFF DUP2 GT ISZERO PUSH2 0x441F JUMPI PUSH2 0x441E PUSH2 0x43E5 JUMP JUMPDEST JUMPDEST PUSH1 0x20 DUP4 ADD SWAP2 POP DUP4 PUSH1 0x1 DUP3 MUL DUP4 ADD GT ISZERO PUSH2 0x443B JUMPI PUSH2 0x443A PUSH2 0x43E9 JUMP JUMPDEST JUMPDEST SWAP3 POP SWAP3 SWAP1 POP JUMP JUMPDEST PUSH0 PUSH0 PUSH0 PUSH0 PUSH0 PUSH0 PUSH0 PUSH1 0xC0 DUP9 DUP11 SUB SLT ISZERO PUSH2 0x445D JUMPI PUSH2 0x445C PUSH2 0x3F00 JUMP JUMPDEST JUMPDEST PUSH0 PUSH2 0x446A DUP11 DUP3 DUP12 ADD PUSH2 0x4001 JUMP JUMPDEST SWAP8 POP POP PUSH1 0x20 PUSH2 0x447B DUP11 DUP3 DUP12 ADD PUSH2 0x4394 JUMP JUMPDEST SWAP7 POP POP PUSH1 0x40 PUSH2 0x448C DUP11 DUP3 DUP12 ADD PUSH2 0x43CD JUMP JUMPDEST SWAP6 POP POP PUSH1 0x60 PUSH2 0x449D DUP11 DUP3 DUP12 ADD PUSH2 0x43CD JUMP JUMPDEST SWAP5 POP POP PUSH1 0x80 PUSH2 0x44AE DUP11 DUP3 DUP12 ADD PUSH2 0x4253 JUMP JUMPDEST SWAP4 POP POP PUSH1 0xA0 DUP9 ADD CALLDATALOAD PUSH8 0xFFFFFFFFFFFFFFFF DUP2 GT ISZERO PUSH2 0x44CF JUMPI PUSH2 0x44CE PUSH2 0x3F04 JUMP JUMPDEST JUMPDEST PUSH2 0x44DB DUP11 DUP3 DUP12 ADD PUSH2 0x43ED JUMP JUMPDEST SWAP3 POP SWAP3 POP POP SWAP3 SWAP6 SWAP9 SWAP2 SWAP5 SWAP8 POP SWAP3 SWAP6 POP JUMP JUMPDEST PUSH0 PUSH32 0xFF00000000000000000000000000000000000000000000000000000000000000 DUP3 AND SWAP1 POP SWAP2 SWAP1 POP JUMP JUMPDEST PUSH2 0x4520 DUP2 PUSH2 0x44EC JUMP JUMPDEST DUP3 MSTORE POP POP JUMP JUMPDEST PUSH0 DUP2 MLOAD SWAP1 POP SWAP2 SWAP1 POP JUMP JUMPDEST PUSH0 DUP3 DUP3 MSTORE PUSH1 0x20 DUP3 ADD SWAP1 POP SWAP3 SWAP2 POP POP JUMP JUMPDEST PUSH0 DUP2 SWAP1 POP PUSH1 0x20 DUP3 ADD SWAP1 POP SWAP2 SWAP1 POP JUMP JUMPDEST PUSH2 0x4558 DUP2 PUSH2 0x4040 JUMP JUMPDEST DUP3 MSTORE POP POP JUMP JUMPDEST PUSH0 PUSH2 0x4569 DUP4 DUP4 PUSH2 0x454F JUMP JUMPDEST PUSH1 0x20 DUP4 ADD SWAP1 POP SWAP3 SWAP2 POP POP JUMP JUMPDEST PUSH0 PUSH1 0x20 DUP3 ADD SWAP1 POP SWAP2 SWAP1 POP JUMP JUMPDEST PUSH0 PUSH2 0x458B DUP3 PUSH2 0x4526 JUMP JUMPDEST PUSH2 0x4595 DUP2 DUP6 PUSH2 0x4530 JUMP JUMPDEST SWAP4 POP PUSH2 0x45A0 DUP4 PUSH2 0x4540 JUMP JUMPDEST DUP1 PUSH0 JUMPDEST DUP4 DUP2 LT ISZERO PUSH2 0x45D0 JUMPI DUP2 MLOAD PUSH2 0x45B7 DUP9 DUP3 PUSH2 0x455E JUMP JUMPDEST SWAP8 POP PUSH2 0x45C2 DUP4 PUSH2 0x4575 JUMP JUMPDEST SWAP3 POP POP PUSH1 0x1 DUP2 ADD SWAP1 POP PUSH2 0x45A3 JUMP JUMPDEST POP DUP6 SWAP4 POP POP POP POP SWAP3 SWAP2 POP POP JUMP JUMPDEST PUSH0 PUSH1 0xE0 DUP3 ADD SWAP1 POP PUSH2 0x45F0 PUSH0 DUP4 ADD DUP11 PUSH2 0x4517 JUMP JUMPDEST DUP2 DUP2 SUB PUSH1 0x20 DUP4 ADD MSTORE PUSH2 0x4602 DUP2 DUP10 PUSH2 0x40A9 JUMP JUMPDEST SWAP1 POP DUP2 DUP2 SUB PUSH1 0x40 DUP4 ADD MSTORE PUSH2 0x4616 DUP2 DUP9 PUSH2 0x40A9 JUMP JUMPDEST SWAP1 POP PUSH2 0x4625 PUSH1 0x60 DUP4 ADD DUP8 PUSH2 0x4049 JUMP JUMPDEST PUSH2 0x4632 PUSH1 0x80 DUP4 ADD DUP7 PUSH2 0x4156 JUMP JUMPDEST PUSH2 0x463F PUSH1 0xA0 DUP4 ADD DUP6 PUSH2 0x41C5 JUMP JUMPDEST DUP2 DUP2 SUB PUSH1 0xC0 DUP4 ADD MSTORE PUSH2 0x4651 DUP2 DUP5 PUSH2 0x4581 JUMP JUMPDEST SWAP1 POP SWAP9 SWAP8 POP POP POP POP POP POP POP POP JUMP JUMPDEST PUSH0 PUSH0 PUSH1 0x40 DUP4 DUP6 SUB SLT ISZERO PUSH2 0x4675 JUMPI PUSH2 0x4674 PUSH2 0x3F00 JUMP JUMPDEST JUMPDEST PUSH0 PUSH2 0x4682 DUP6 DUP3 DUP7 ADD PUSH2 0x4001 JUMP JUMPDEST SWAP3 POP POP PUSH1 0x20 PUSH2 0x4693 DUP6 DUP3 DUP7 ADD PUSH2 0x4253 JUMP JUMPDEST SWAP2 POP POP SWAP3 POP SWAP3 SWAP1 POP JUMP JUMPDEST PUSH2 0x46A6 DUP2 PUSH2 0x3F88 JUMP JUMPDEST DUP2 EQ PUSH2 0x46B0 JUMPI PUSH0 PUSH0 REVERT JUMPDEST POP JUMP JUMPDEST PUSH0 DUP2 CALLDATALOAD SWAP1 POP PUSH2 0x46C1 DUP2 PUSH2 0x469D JUMP JUMPDEST SWAP3 SWAP2 POP POP JUMP JUMPDEST PUSH0 PUSH0 PUSH1 0x40 DUP4 DUP6 SUB SLT ISZERO PUSH2 0x46DD JUMPI PUSH2 0x46DC PUSH2 0x3F00 JUMP JUMPDEST JUMPDEST PUSH0 PUSH2 0x46EA DUP6 DUP3 DUP7 ADD PUSH2 0x4001 JUMP JUMPDEST SWAP3 POP POP PUSH1 0x20 PUSH2 0x46FB DUP6 DUP3 DUP7 ADD PUSH2 0x46B3 JUMP JUMPDEST SWAP2 POP POP SWAP3 POP SWAP3 SWAP1 POP JUMP JUMPDEST PUSH0 PUSH0 REVERT JUMPDEST PUSH32 0x4E487B7100000000000000000000000000000000000000000000000000000000 PUSH0 MSTORE PUSH1 0x41 PUSH1 0x4 MSTORE PUSH1 0x24 PUSH0 REVERT JUMPDEST PUSH2 0x473F DUP3 PUSH2 0x4099 JUMP JUMPDEST DUP2 ADD DUP2 DUP2 LT PUSH8 0xFFFFFFFFFFFFFFFF DUP3 GT OR ISZERO PUSH2 0x475E JUMPI PUSH2 0x475D PUSH2 0x4709 JUMP JUMPDEST JUMPDEST DUP1 PUSH1 0x40 MSTORE POP POP POP JUMP JUMPDEST PUSH0 PUSH2 0x4770 PUSH2 0x3EF7 JUMP JUMPDEST SWAP1 POP PUSH2 0x477C DUP3 DUP3 PUSH2 0x4736 JUMP JUMPDEST SWAP2 SWAP1 POP JUMP JUMPDEST PUSH0 PUSH8 0xFFFFFFFFFFFFFFFF DUP3 GT ISZERO PUSH2 0x479B JUMPI PUSH2 0x479A PUSH2 0x4709 JUMP JUMPDEST JUMPDEST PUSH2 0x47A4 DUP3 PUSH2 0x4099 JUMP JUMPDEST SWAP1 POP PUSH1 0x20 DUP2 ADD SWAP1 POP SWAP2 SWAP1 POP JUMP JUMPDEST DUP3 DUP2 DUP4 CALLDATACOPY PUSH0 DUP4 DUP4 ADD MSTORE POP POP POP JUMP JUMPDEST PUSH0 PUSH2 0x47D1 PUSH2 0x47CC DUP5 PUSH2 0x4781 JUMP JUMPDEST PUSH2 0x4767 JUMP JUMPDEST SWAP1 POP DUP3 DUP2 MSTORE PUSH1 0x20 DUP2 ADD DUP5 DUP5 DUP5 ADD GT ISZERO PUSH2 0x47ED JUMPI PUSH2 0x47EC PUSH2 0x4705 JUMP JUMPDEST JUMPDEST PUSH2 0x47F8 DUP5 DUP3 DUP6 PUSH2 0x47B1 JUMP JUMPDEST POP SWAP4 SWAP3 POP POP POP JUMP JUMPDEST PUSH0 DUP3 PUSH1 0x1F DUP4 ADD SLT PUSH2 0x4814 JUMPI PUSH2 0x4813 PUSH2 0x43E1 JUMP JUMPDEST JUMPDEST DUP2 CALLDATALOAD PUSH2 0x4824 DUP5 DUP3 PUSH1 0x20 DUP7 ADD PUSH2 0x47BF JUMP JUMPDEST SWAP2 POP POP SWAP3 SWAP2 POP POP JUMP JUMPDEST PUSH0 PUSH0 PUSH0 PUSH0 PUSH1 0x80 DUP6 DUP8 SUB SLT ISZERO PUSH2 0x4845 JUMPI PUSH2 0x4844 PUSH2 0x3F00 JUMP JUMPDEST JUMPDEST PUSH0 PUSH2 0x4852 DUP8 DUP3 DUP9 ADD PUSH2 0x4001 JUMP JUMPDEST SWAP5 POP POP PUSH1 0x20 PUSH2 0x4863 DUP8 DUP3 DUP9 ADD PUSH2 0x4001 JUMP JUMPDEST SWAP4 POP POP PUSH1 0x40 PUSH2 0x4874 DUP8 DUP3 DUP9 ADD PUSH2 0x4117 JUMP JUMPDEST SWAP3 POP POP PUSH1 0x60 DUP6 ADD CALLDATALOAD PUSH8 0xFFFFFFFFFFFFFFFF DUP2 GT ISZERO PUSH2 0x4895 JUMPI PUSH2 0x4894 PUSH2 0x3F04 JUMP JUMPDEST JUMPDEST PUSH2 0x48A1 DUP8 DUP3 DUP9 ADD PUSH2 0x4800 JUMP JUMPDEST SWAP2 POP POP SWAP3 SWAP6 SWAP2 SWAP5 POP SWAP3 POP JUMP JUMPDEST PUSH0 PUSH1 0x20 DUP3 ADD SWAP1 POP DUP2 DUP2 SUB PUSH0 DUP4 ADD MSTORE PUSH2 0x48C5 DUP2 DUP5 PUSH2 0x4581 JUMP JUMPDEST SWAP1 POP SWAP3 SWAP2 POP POP JUMP JUMPDEST PUSH0 PUSH0 PUSH0 PUSH0 PUSH1 0x80 DUP6 DUP8 SUB SLT ISZERO PUSH2 0x48E5 JUMPI PUSH2 0x48E4 PUSH2 0x3F00 JUMP JUMPDEST JUMPDEST PUSH0 PUSH2 0x48F2 DUP8 DUP3 DUP9 ADD PUSH2 0x4001 JUMP JUMPDEST SWAP5 POP POP PUSH1 0x20 PUSH2 0x4903 DUP8 DUP3 DUP9 ADD PUSH2 0x43CD JUMP JUMPDEST SWAP4 POP POP PUSH1 0x40 PUSH2 0x4914 DUP8 DUP3 DUP9 ADD PUSH2 0x43CD JUMP JUMPDEST SWAP3 POP POP PUSH1 0x60 PUSH2 0x4925 DUP8 DUP3 DUP9 ADD PUSH2 0x4253 JUMP JUMPDEST SWAP2 POP POP SWAP3 SWAP6 SWAP2 SWAP5 POP SWAP3 POP JUMP JUMPDEST PUSH2 0x493A DUP2 PUSH2 0x436B JUMP JUMPDEST DUP3 MSTORE POP POP JUMP JUMPDEST PUSH2 0x4949 DUP2 PUSH2 0x42D0 JUMP JUMPDEST DUP3 MSTORE POP POP JUMP JUMPDEST PUSH0 PUSH1 0xC0 DUP3 ADD SWAP1 POP PUSH2 0x4962 PUSH0 DUP4 ADD DUP10 PUSH2 0x4156 JUMP JUMPDEST PUSH2 0x496F PUSH1 0x20 DUP4 ADD DUP9 PUSH2 0x41C5 JUMP JUMPDEST PUSH2 0x497C PUSH1 0x40 DUP4 ADD DUP8 PUSH2 0x4931 JUMP JUMPDEST PUSH2 0x4989 PUSH1 0x60 DUP4 ADD DUP7 PUSH2 0x4940 JUMP JUMPDEST PUSH2 0x4996 PUSH1 0x80 DUP4 ADD DUP6 PUSH2 0x4940 JUMP JUMPDEST PUSH2 0x49A3 PUSH1 0xA0 DUP4 ADD DUP5 PUSH2 0x3F93 JUMP JUMPDEST SWAP8 SWAP7 POP POP POP POP POP POP POP JUMP JUMPDEST PUSH0 PUSH0 PUSH1 0x40 DUP4 DUP6 SUB SLT ISZERO PUSH2 0x49C4 JUMPI PUSH2 0x49C3 PUSH2 0x3F00 JUMP JUMPDEST JUMPDEST PUSH0 PUSH2 0x49D1 DUP6 DUP3 DUP7 ADD PUSH2 0x4001 JUMP JUMPDEST SWAP3 POP POP PUSH1 0x20 PUSH2 0x49E2 DUP6 DUP3 DUP7 ADD PUSH2 0x4001 JUMP JUMPDEST SWAP2 POP POP SWAP3 POP SWAP3 SWAP1 POP JUMP JUMPDEST PUSH0 PUSH1 0xA0 DUP3 ADD SWAP1 POP PUSH2 0x49FF PUSH0 DUP4 ADD DUP9 PUSH2 0x3F93 JUMP JUMPDEST PUSH2 0x4A0C PUSH1 0x20 DUP4 ADD DUP8 PUSH2 0x4156 JUMP JUMPDEST PUSH2 0x4A19 PUSH1 0x40 DUP4 ADD DUP7 PUSH2 0x4156 JUMP JUMPDEST PUSH2 0x4A26 PUSH1 0x60 DUP4 ADD DUP6 PUSH2 0x41C5 JUMP JUMPDEST PUSH2 0x4A33 PUSH1 0x80 DUP4 ADD DUP5 PUSH2 0x4931 JUMP JUMPDEST SWAP7 SWAP6 POP POP POP POP POP POP JUMP JUMPDEST PUSH32 0x4E487B7100000000000000000000000000000000000000000000000000000000 PUSH0 MSTORE PUSH1 0x22 PUSH1 0x4 MSTORE PUSH1 0x24 PUSH0 REVERT JUMPDEST PUSH0 PUSH1 0x2 DUP3 DIV SWAP1 POP PUSH1 0x1 DUP3 AND DUP1 PUSH2 0x4A81 JUMPI PUSH1 0x7F DUP3 AND SWAP2 POP JUMPDEST PUSH1 0x20 DUP3 LT DUP2 SUB PUSH2 0x4A94 JUMPI PUSH2 0x4A93 PUSH2 0x4A3D JUMP JUMPDEST JUMPDEST POP SWAP2 SWAP1 POP JUMP JUMPDEST PUSH32 0x5342543A20617070726F76616C732064697361626C6564000000000000000000 PUSH0 DUP3 ADD MSTORE POP JUMP JUMPDEST PUSH0 PUSH2 0x4ACE PUSH1 0x17 DUP4 PUSH2 0x407B JUMP JUMPDEST SWAP2 POP PUSH2 0x4AD9 DUP3 PUSH2 0x4A9A JUMP JUMPDEST PUSH1 0x20 DUP3 ADD SWAP1 POP SWAP2 SWAP1 POP JUMP JUMPDEST PUSH0 PUSH1 0x20 DUP3 ADD SWAP1 POP DUP2 DUP2 SUB PUSH0 DUP4 ADD MSTORE PUSH2 0x4AFB DUP2 PUSH2 0x4AC2 JUMP JUMPDEST SWAP1 POP SWAP2 SWAP1 POP JUMP JUMPDEST PUSH32 0x6E6F20746F6B656E000000000000000000000000000000000000000000000000 PUSH0 DUP3 ADD MSTORE POP JUMP JUMPDEST PUSH0 PUSH2 0x4B36 PUSH1 0x8 DUP4 PUSH2 0x407B JUMP JUMPDEST SWAP2 POP PUSH2 0x4B41 DUP3 PUSH2 0x4B02 JUMP JUMPDEST PUSH1 0x20 DUP3 ADD SWAP1 POP SWAP2 SWAP1 POP JUMP JUMPDEST PUSH0 PUSH1 0x20 DUP3 ADD SWAP1 POP DUP2 DUP2 SUB PUSH0 DUP4 ADD MSTORE PUSH2 0x4B63 DUP2 PUSH2 0x4B2A JUMP JUMPDEST SWAP1 POP SWAP2 SWAP1 POP JUMP JUMPDEST PUSH32 0x616C7265616479207265766F6B65640000000000000000000000000000000000 PUSH0 DUP3 ADD MSTORE POP JUMP JUMPDEST PUSH0 PUSH2 0x4B9E PUSH1 0xF DUP4 PUSH2 0x407B JUMP JUMPDEST SWAP2 POP PUSH2 0x4BA9 DUP3 PUSH2 0x4B6A JUMP JUMPDEST PUSH1 0x20 DUP3 ADD SWAP1 POP SWAP2 SWAP1 POP JUMP JUMPDEST PUSH0 PUSH1 0x20 DUP3 ADD SWAP1 POP DUP2 DUP2 SUB PUSH0 DUP4 ADD MSTORE PUSH2 0x4BCB DUP2 PUSH2 0x4B92 JUMP JUMPDEST SWAP1 POP SWAP2 SWAP1 POP JUMP JUMPDEST PUSH32 0x6E6F206175746800000000000000000000000000000000000000000000000000 PUSH0 DUP3 ADD MSTORE POP JUMP JUMPDEST PUSH0 PUSH2 0x4C06 PUSH1 0x7 DUP4 PUSH2 0x407B JUMP JUMPDEST SWAP2 POP PUSH2 0x4C11 DUP3 PUSH2 0x4BD2 JUMP JUMPDEST PUSH1 0x20 DUP3 ADD SWAP1 POP SWAP2 SWAP1 POP JUMP JUMPDEST PUSH0 PUSH1 0x20 DUP3 ADD SWAP1 POP DUP2 DUP2 SUB PUSH0 DUP4 ADD MSTORE PUSH2 0x4C33 DUP2 PUSH2 0x4BFA JUMP JUMPDEST SWAP1 POP SWAP2 SWAP1 POP JUMP JUMPDEST PUSH32 0x4E487B7100000000000000000000000000000000000000000000000000000000 PUSH0 MSTORE PUSH1 0x11 PUSH1 0x4 MSTORE PUSH1 0x24 PUSH0 REVERT JUMPDEST PUSH0 PUSH2 0x4C71 DUP3 PUSH2 0x4040 JUMP JUMPDEST SWAP2 POP PUSH2 0x4C7C DUP4 PUSH2 0x4040 JUMP JUMPDEST SWAP3 POP DUP3 DUP3 MUL PUSH2 0x4C8A DUP2 PUSH2 0x4040 JUMP JUMPDEST SWAP2 POP DUP3 DUP3 DIV DUP5 EQ DUP4 ISZERO OR PUSH2 0x4CA1 JUMPI PUSH2 0x4CA0 PUSH2 0x4C3A JUMP JUMPDEST JUMPDEST POP SWAP3 SWAP2 POP POP JUMP JUMPDEST PUSH0 PUSH2 0x4CB2 DUP3 PUSH2 0x4040 JUMP JUMPDEST SWAP2 POP PUSH2 0x4CBD DUP4 PUSH2 0x4040 JUMP JUMPDEST SWAP3 POP DUP3 DUP3 SUB SWAP1 POP DUP2 DUP2 GT ISZERO PUSH2 0x4CD5 JUMPI PUSH2 0x4CD4 PUSH2 0x4C3A JUMP JUMPDEST JUMPDEST SWAP3 SWAP2 POP POP JUMP JUMPDEST PUSH0 PUSH1 0x20 DUP3 ADD SWAP1 POP PUSH2 0x4CEE PUSH0 DUP4 ADD DUP5 PUSH2 0x4931 JUMP JUMPDEST SWAP3 SWAP2 POP POP JUMP JUMPDEST PUSH0 PUSH1 0x60 DUP3 ADD SWAP1 POP PUSH2 0x4D07 PUSH0 DUP4 ADD DUP7 PUSH2 0x4156 JUMP JUMPDEST PUSH2 0x4D14 PUSH1 0x20 DUP4 ADD DUP6 PUSH2 0x4049 JUMP JUMPDEST PUSH2 0x4D21 PUSH1 0x40 DUP4 ADD DUP5 PUSH2 0x4156 JUMP JUMPDEST SWAP5 SWAP4 POP POP POP POP JUMP JUMPDEST PUSH0 PUSH2 0x4D33 DUP3 PUSH2 0x4040 JUMP JUMPDEST SWAP2 POP PUSH2 0x4D3E DUP4 PUSH2 0x4040 JUMP JUMPDEST SWAP3 POP DUP3 DUP3 ADD SWAP1 POP DUP1 DUP3 GT ISZERO PUSH2 0x4D56 JUMPI PUSH2 0x4D55 PUSH2 0x4C3A JUMP JUMPDEST JUMPDEST SWAP3 SWAP2 POP POP JUMP JUMPDEST PUSH32 0x626164206C6561726E6572000000000000000000000000000000000000000000 PUSH0 DUP3 ADD MSTORE POP JUMP JUMPDEST PUSH0 PUSH2 0x4D90 PUSH1 0xB DUP4 PUSH2 0x407B JUMP JUMPDEST SWAP2 POP PUSH2 0x4D9B DUP3 PUSH2 0x4D5C JUMP JUMPDEST PUSH1 0x20 DUP3 ADD SWAP1 POP SWAP2 SWAP1 POP JUMP JUMPDEST PUSH0 PUSH1 0x20 DUP3 ADD SWAP1 POP DUP2 DUP2 SUB PUSH0 DUP4 ADD MSTORE PUSH2 0x4DBD DUP2 PUSH2 0x4D84 JUMP JUMPDEST SWAP1 POP SWAP2 SWAP1 POP JUMP JUMPDEST PUSH32 0x6261642068617368000000000000000000000000000000000000000000000000 PUSH0 DUP3 ADD MSTORE POP JUMP JUMPDEST PUSH0 PUSH2 0x4DF8 PUSH1 0x8 DUP4 PUSH2 0x407B JUMP JUMPDEST SWAP2 POP PUSH2 0x4E03 DUP3 PUSH2 0x4DC4 JUMP JUMPDEST PUSH1 0x20 DUP3 ADD SWAP1 POP SWAP2 SWAP1 POP JUMP JUMPDEST PUSH0 PUSH1 0x20 DUP3 ADD SWAP1 POP DUP2 DUP2 SUB PUSH0 DUP4 ADD MSTORE PUSH2 0x4E25 DUP2 PUSH2 0x4DEC JUMP JUMPDEST SWAP1 POP SWAP2 SWAP1 POP JUMP JUMPDEST PUSH32 0x6C6576656C20312E2E3130300000000000000000000000000000000000000000 PUSH0 DUP3 ADD MSTORE POP JUMP JUMPDEST PUSH0 PUSH2 0x4E60 PUSH1 0xC DUP4 PUSH2 0x407B JUMP JUMPDEST SWAP2 POP PUSH2 0x4E6B DUP3 PUSH2 0x4E2C JUMP JUMPDEST PUSH1 0x20 DUP3 ADD SWAP1 POP SWAP2 SWAP1 POP JUMP JUMPDEST PUSH0 PUSH1 0x20 DUP3 ADD SWAP1 POP DUP2 DUP2 SUB PUSH0 DUP4 ADD MSTORE PUSH2 0x4E8D DUP2 PUSH2 0x4E54 JUMP JUMPDEST SWAP1 POP SWAP2 SWAP1 POP JUMP JUMPDEST PUSH0 PUSH2 0x4E9E DUP3 PUSH2 0x4040 JUMP JUMPDEST SWAP2 POP PUSH32 0xFFFFFFFFFFFFFFFFFFFFFFFFFFFFFFFFFFFFFFFFFFFFFFFFFFFFFFFFFFFFFFFF DUP3 SUB PUSH2 0x4ED0 JUMPI PUSH2 0x4ECF PUSH2 0x4C3A JUMP JUMPDEST JUMPDEST PUSH1 0x1 DUP3 ADD SWAP1 POP SWAP2 SWAP1 POP JUMP JUMPDEST PUSH0 PUSH1 0x80 DUP3 ADD SWAP1 POP PUSH2 0x4EEE PUSH0 DUP4 ADD DUP8 PUSH2 0x41C5 JUMP JUMPDEST PUSH2 0x4EFB PUSH1 0x20 DUP4 ADD DUP7 PUSH2 0x4940 JUMP JUMPDEST PUSH2 0x4F08 PUSH1 0x40 DUP4 ADD DUP6 PUSH2 0x4940 JUMP JUMPDEST PUSH2 0x4F15 PUSH1 0x60 DUP4 ADD DUP5 PUSH2 0x4931 JUMP JUMPDEST SWAP6 SWAP5 POP POP POP POP POP JUMP JUMPDEST PUSH32 0x6261642072656600000000000000000000000000000000000000000000000000 PUSH0 DUP3 ADD MSTORE POP JUMP JUMPDEST PUSH0 PUSH2 0x4F52 PUSH1 0x7 DUP4 PUSH2 0x407B JUMP JUMPDEST SWAP2 POP PUSH2 0x4F5D DUP3 PUSH2 0x4F1E JUMP JUMPDEST PUSH1 0x20 DUP3 ADD SWAP1 POP SWAP2 SWAP1 POP JUMP JUMPDEST PUSH0 PUSH1 0x20 DUP3 ADD SWAP1 POP DUP2 DUP2 SUB PUSH0 DUP4 ADD MSTORE PUSH2 0x4F7F DUP2 PUSH2 0x4F46 JUMP JUMPDEST SWAP1 POP SWAP2 SWAP1 POP JUMP JUMPDEST PUSH32 0x7265662075736564000000000000000000000000000000000000000000000000 PUSH0 DUP3 ADD MSTORE POP JUMP JUMPDEST PUSH0 PUSH2 0x4FBA PUSH1 0x8 DUP4 PUSH2 0x407B JUMP JUMPDEST SWAP2 POP PUSH2 0x4FC5 DUP3 PUSH2 0x4F86 JUMP JUMPDEST PUSH1 0x20 DUP3 ADD SWAP1 POP SWAP2 SWAP1 POP JUMP JUMPDEST PUSH0 PUSH1 0x20 DUP3 ADD SWAP1 POP DUP2 DUP2 SUB PUSH0 DUP4 ADD MSTORE PUSH2 0x4FE7 DUP2 PUSH2 0x4FAE JUMP JUMPDEST SWAP1 POP SWAP2 SWAP1 POP JUMP JUMPDEST PUSH32 0x77656967687420312E2E31303030000000000000000000000000000000000000 PUSH0 DUP3 ADD MSTORE POP JUMP JUMPDEST PUSH0 PUSH2 0x5022 PUSH1 0xE DUP4 PUSH2 0x407B JUMP JUMPDEST SWAP2 POP PUSH2 0x502D DUP3 PUSH2 0x4FEE JUMP JUMPDEST PUSH1 0x20 DUP3 ADD SWAP1 POP SWAP2 SWAP1 POP JUMP JUMPDEST PUSH0 PUSH1 0x20 DUP3 ADD SWAP1 POP DUP2 DUP2 SUB PUSH0 DUP4 ADD MSTORE PUSH2 0x504F DUP2 PUSH2 0x5016 JUMP JUMPDEST SWAP1 POP SWAP2 SWAP1 POP JUMP JUMPDEST PUSH0 PUSH2 0x5060 DUP3 PUSH2 0x436B JUMP JUMPDEST SWAP2 POP PUSH2 0x506B DUP4 PUSH2 0x436B JUMP JUMPDEST SWAP3 POP DUP3 DUP3 ADD SWAP1 POP PUSH8 0xFFFFFFFFFFFFFFFF DUP2 GT ISZERO PUSH2 0x508B JUMPI PUSH2 0x508A PUSH2 0x4C3A JUMP JUMPDEST JUMPDEST SWAP3 SWAP2 POP POP JUMP JUMPDEST PUSH32 0x6675747572652074730000000000000000000000000000000000000000000000 PUSH0 DUP3 ADD MSTORE POP JUMP JUMPDEST PUSH0 PUSH2 0x50C5 PUSH1 0x9 DUP4 PUSH2 0x407B JUMP JUMPDEST SWAP2 POP PUSH2 0x50D0 DUP3 PUSH2 0x5091 JUMP JUMPDEST PUSH1 0x20 DUP3 ADD SWAP1 POP SWAP2 SWAP1 POP JUMP JUMPDEST PUSH0 PUSH1 0x20 DUP3 ADD SWAP1 POP DUP2 DUP2 SUB PUSH0 DUP4 ADD MSTORE PUSH2 0x50F2 DUP2 PUSH2 0x50B9 JUMP JUMPDEST SWAP1 POP SWAP2 SWAP1 POP JUMP JUMPDEST PUSH2 0x5102 DUP2 PUSH2 0x43A8 JUMP JUMPDEST DUP3 MSTORE POP POP JUMP JUMPDEST PUSH0 PUSH1 0xC0 DUP3 ADD SWAP1 POP PUSH2 0x511B PUSH0 DUP4 ADD DUP10 PUSH2 0x41C5 JUMP JUMPDEST PUSH2 0x5128 PUSH1 0x20 DUP4 ADD DUP9 PUSH2 0x4156 JUMP JUMPDEST PUSH2 0x5135 PUSH1 0x40 DUP4 ADD DUP8 PUSH2 0x4931 JUMP JUMPDEST PUSH2 0x5142 PUSH1 0x60 DUP4 ADD DUP7 PUSH2 0x50F9 JUMP JUMPDEST PUSH2 0x514F PUSH1 0x80 DUP4 ADD DUP6 PUSH2 0x50F9 JUMP JUMPDEST PUSH2 0x515C PUSH1 0xA0 DUP4 ADD DUP5 PUSH2 0x41C5 JUMP JUMPDEST SWAP8 SWAP7 POP POP POP POP POP POP POP JUMP JUMPDEST PUSH32 0x6261642073696700000000000000000000000000000000000000000000000000 PUSH0 DUP3 ADD MSTORE POP JUMP JUMPDEST PUSH0 PUSH2 0x519B PUSH1 0x7 DUP4 PUSH2 0x407B JUMP JUMPDEST SWAP2 POP PUSH2 0x51A6 DUP3 PUSH2 0x5167 JUMP JUMPDEST PUSH1 0x20 DUP3 ADD SWAP1 POP SWAP2 SWAP1 POP JUMP JUMPDEST PUSH0 PUSH1 0x20 DUP3 ADD SWAP1 POP DUP2 DUP2 SUB PUSH0 DUP4 ADD MSTORE PUSH2 0x51C8 DUP2 PUSH2 0x518F JUMP JUMPDEST SWAP1 POP SWAP2 SWAP1 POP JUMP JUMPDEST PUSH0 PUSH1 0x80 DUP3 ADD SWAP1 POP PUSH2 0x51E2 PUSH0 DUP4 ADD DUP8 PUSH2 0x50F9 JUMP JUMPDEST PUSH2 0x51EF PUSH1 0x20 DUP4 ADD DUP7 PUSH2 0x50F9 JUMP JUMPDEST PUSH2 0x51FC PUSH1 0x40 DUP4 ADD DUP6 PUSH2 0x41C5 JUMP JUMPDEST PUSH2 0x5209 PUSH1 0x60 DUP4 ADD DUP5 PUSH2 0x4931 JUMP JUMPDEST SWAP6 SWAP5 POP POP POP POP POP JUMP JUMPDEST PUSH0 DUP2 SWAP1 POP SWAP3 SWAP2 POP POP JUMP JUMPDEST PUSH32 0x646174613A746578742F706C61696E2C536B696C6C4C65646765722532304372 PUSH0 DUP3 ADD MSTORE PUSH32 0x6564656E7469616C253230230000000000000000000000000000000000000000 PUSH1 0x20 DUP3 ADD MSTORE POP JUMP JUMPDEST PUSH0 PUSH2 0x5276 PUSH1 0x2C DUP4 PUSH2 0x5212 JUMP JUMPDEST SWAP2 POP PUSH2 0x5281 DUP3 PUSH2 0x521C JUMP JUMPDEST PUSH1 0x2C DUP3 ADD SWAP1 POP SWAP2 SWAP1 POP JUMP JUMPDEST PUSH0 PUSH2 0x5296 DUP3 PUSH2 0x4071 JUMP JUMPDEST PUSH2 0x52A0 DUP2 DUP6 PUSH2 0x5212 JUMP JUMPDEST SWAP4 POP PUSH2 0x52B0 DUP2 DUP6 PUSH1 0x20 DUP7 ADD PUSH2 0x408B JUMP JUMPDEST DUP1 DUP5 ADD SWAP2 POP POP SWAP3 SWAP2 POP POP JUMP JUMPDEST PUSH32 0x2532306861736825334130780000000000000000000000000000000000000000 PUSH0 DUP3 ADD MSTORE POP JUMP JUMPDEST PUSH0 PUSH2 0x52F0 PUSH1 0xC DUP4 PUSH2 0x5212 JUMP JUMPDEST SWAP2 POP PUSH2 0x52FB DUP3 PUSH2 0x52BC JUMP JUMPDEST PUSH1 0xC DUP3 ADD SWAP1 POP SWAP2 SWAP1 POP JUMP JUMPDEST PUSH0 PUSH2 0x5310 DUP3 PUSH2 0x526A JUMP JUMPDEST SWAP2 POP PUSH2 0x531C DUP3 DUP6 PUSH2 0x528C JUMP JUMPDEST SWAP2 POP PUSH2 0x5327 DUP3 PUSH2 0x52E4 JUMP JUMPDEST SWAP2 POP PUSH2 0x5333 DUP3 DUP5 PUSH2 0x528C JUMP JUMPDEST SWAP2 POP DUP2 SWAP1 POP SWAP4 SWAP3 POP POP POP JUMP JUMPDEST PUSH32 0x5265656E7472616E637947756172643A207265656E7472616E742063616C6C00 PUSH0 DUP3 ADD MSTORE POP JUMP JUMPDEST PUSH0 PUSH2 0x5373 PUSH1 0x1F DUP4 PUSH2 0x407B JUMP JUMPDEST SWAP2 POP PUSH2 0x537E DUP3 PUSH2 0x533F JUMP JUMPDEST PUSH1 0x20 DUP3 ADD SWAP1 POP SWAP2 SWAP1 POP JUMP JUMPDEST PUSH0 PUSH1 0x20 DUP3 ADD SWAP1 POP DUP2 DUP2 SUB PUSH0 DUP4 ADD MSTORE PUSH2 0x53A0 DUP2 PUSH2 0x5367 JUMP JUMPDEST SWAP1 POP SWAP2 SWAP1 POP JUMP JUMPDEST PUSH32 0x5342543A206E6F6E2D7472616E7366657261626C650000000000000000000000 PUSH0 DUP3 ADD MSTORE POP JUMP JUMPDEST PUSH0 PUSH2 0x53DB PUSH1 0x15 DUP4 PUSH2 0x407B JUMP JUMPDEST SWAP2 POP PUSH2 0x53E6 DUP3 PUSH2 0x53A7 JUMP JUMPDEST PUSH1 0x20 DUP3 ADD SWAP1 POP SWAP2 SWAP1 POP JUMP JUMPDEST PUSH0 PUSH1 0x20 DUP3 ADD SWAP1 POP DUP2 DUP2 SUB PUSH0 DUP4 ADD MSTORE PUSH2 0x5408 DUP2 PUSH2 0x53CF JUMP JUMPDEST SWAP1 POP SWAP2 SWAP1 POP JUMP JUMPDEST PUSH32 0x4E487B7100000000000000000000000000000000000000000000000000000000 PUSH0 MSTORE PUSH1 0x12 PUSH1 0x4 MSTORE PUSH1 0x24 PUSH0 REVERT JUMPDEST PUSH0 PUSH2 0x5446 DUP3 PUSH2 0x4040 JUMP JUMPDEST SWAP2 POP PUSH2 0x5451 DUP4 PUSH2 0x4040 JUMP JUMPDEST SWAP3 POP DUP3 PUSH2 0x5461 JUMPI PUSH2 0x5460 PUSH2 0x540F JUMP JUMPDEST JUMPDEST DUP3 DUP3 DIV SWAP1 POP SWAP3 SWAP2 POP POP JUMP JUMPDEST PUSH0 DUP2 MLOAD SWAP1 POP SWAP2 SWAP1 POP JUMP JUMPDEST PUSH0 DUP3 DUP3 MSTORE PUSH1 0x20 DUP3 ADD SWAP1 POP SWAP3 SWAP2 POP POP JUMP JUMPDEST PUSH0 PUSH2 0x5490 DUP3 PUSH2 0x546C JUMP JUMPDEST PUSH2 0x549A DUP2 DUP6 PUSH2 0x5476 JUMP JUMPDEST SWAP4 POP PUSH2 0x54AA DUP2 DUP6 PUSH1 0x20 DUP7 ADD PUSH2 0x408B JUMP JUMPDEST PUSH2 0x54B3 DUP2 PUSH2 0x4099 JUMP JUMPDEST DUP5 ADD SWAP2 POP POP SWAP3 SWAP2 POP POP JUMP JUMPDEST PUSH0 PUSH1 0x80 DUP3 ADD SWAP1 POP PUSH2 0x54D1 PUSH0 DUP4 ADD DUP8 PUSH2 0x4156 JUMP JUMPDEST PUSH2 0x54DE PUSH1 0x20 DUP4 ADD DUP7 PUSH2 0x4156 JUMP JUMPDEST PUSH2 0x54EB PUSH1 0x40 DUP4 ADD DUP6 PUSH2 0x4049 JUMP JUMPDEST DUP2 DUP2 SUB PUSH1 0x60 DUP4 ADD MSTORE PUSH2 0x54FD DUP2 DUP5 PUSH2 0x5486 JUMP JUMPDEST SWAP1 POP SWAP6 SWAP5 POP POP POP POP POP JUMP JUMPDEST PUSH0 DUP2 MLOAD SWAP1 POP PUSH2 0x5516 DUP2 PUSH2 0x3F33 JUMP JUMPDEST SWAP3 SWAP2 POP POP JUMP JUMPDEST PUSH0 PUSH1 0x20 DUP3 DUP5 SUB SLT ISZERO PUSH2 0x5531 JUMPI PUSH2 0x5530 PUSH2 0x3F00 JUMP JUMPDEST JUMPDEST PUSH0 PUSH2 0x553E DUP5 DUP3 DUP6 ADD PUSH2 0x5508 JUMP JUMPDEST SWAP2 POP POP SWAP3 SWAP2 POP POP JUMP JUMPDEST PUSH32 0x4E487B7100000000000000000000000000000000000000000000000000000000 PUSH0 MSTORE PUSH1 0x32 PUSH1 0x4 MSTORE PUSH1 0x24 PUSH0 REVERT JUMPDEST PUSH0 PUSH1 0x40 DUP3 ADD SWAP1 POP PUSH2 0x5587 PUSH0 DUP4 ADD DUP6 PUSH2 0x4156 JUMP JUMPDEST PUSH2 0x5594 PUSH1 0x20 DUP4 ADD DUP5 PUSH2 0x41C5 JUMP JUMPDEST SWAP4 SWAP3 POP POP POP JUMP JUMPDEST PUSH32 0x4E487B7100000000000000000000000000000000000000000000000000000000 PUSH0 MSTORE PUSH1 0x21 PUSH1 0x4 MSTORE PUSH1 0x24 PUSH0 REVERT JUMPDEST PUSH0 PUSH1 0x40 DUP3 ADD SWAP1 POP PUSH2 0x55DB PUSH0 DUP4 ADD DUP6 PUSH2 0x4156 JUMP JUMPDEST PUSH2 0x55E8 PUSH1 0x20 DUP4 ADD DUP5 PUSH2 0x4049 JUMP JUMPDEST SWAP4 SWAP3 POP POP POP JUMP JUMPDEST PUSH0 PUSH1 0xA0 DUP3 ADD SWAP1 POP PUSH2 0x5602 PUSH0 DUP4 ADD DUP9 PUSH2 0x41C5 JUMP JUMPDEST PUSH2 0x560F PUSH1 0x20 DUP4 ADD DUP8 PUSH2 0x41C5 JUMP JUMPDEST PUSH2 0x561C PUSH1 0x40 DUP4 ADD DUP7 PUSH2 0x41C5 JUMP JUMPDEST PUSH2 0x5629 PUSH1 0x60 DUP4 ADD DUP6 PUSH2 0x4049 JUMP JUMPDEST PUSH2 0x5636 PUSH1 0x80 DUP4 ADD DUP5 PUSH2 0x4156 JUMP JUMPDEST SWAP7 SWAP6 POP POP POP POP POP POP JUMP JUMPDEST PUSH0 PUSH1 0xFF DUP3 AND SWAP1 POP SWAP2 SWAP1 POP JUMP JUMPDEST PUSH2 0x5655 DUP2 PUSH2 0x5640 JUMP JUMPDEST DUP3 MSTORE POP POP JUMP JUMPDEST PUSH0 PUSH1 0x80 DUP3 ADD SWAP1 POP PUSH2 0x566E PUSH0 DUP4 ADD DUP8 PUSH2 0x41C5 JUMP JUMPDEST PUSH2 0x567B PUSH1 0x20 DUP4 ADD DUP7 PUSH2 0x564C JUMP JUMPDEST PUSH2 0x5688 PUSH1 0x40 DUP4 ADD DUP6 PUSH2 0x41C5 JUMP JUMPDEST PUSH2 0x5695 PUSH1 0x60 DUP4 ADD DUP5 PUSH2 0x41C5 JUMP JUMPDEST SWAP6 SWAP5 POP POP POP POP POP JUMP INVALID LOG2 PUSH5 0x6970667358 0x22 SLT KECCAK256 0xC1 0xD SGT MCOPY EXTCODESIZE GT GT SWAP4 GASLIMIT 0xEB 0xC9 0xEA CREATE2 0x26 BLOBBASEFEE 0xC6 0xAE SLOAD 0x2B DELEGATECALL 0xD7 MULMOD 0xAD TSTORE SWAP13 0x2A 0xA9 BLOBBASEFEE RETURNCONTRACT 0xC5 0x2A EXTDELEGATECALL PUSH5 0x736F6C6343 STOP ADDMOD 0x1E STOP CALLER "
		},
		"gasEstimates": {
			"creation": {
				"codeDepositCost": "4445600",
				"executionCost": "infinite",
				"totalCost": "infinite"
			},
			"external": {
				"ADMIN_ROLE()": "462",
				"DEFAULT_ADMIN_ROLE()": "418",
				"INSTITUTION_ROLE()": "415",
				"addInstitution(address)": "infinite",
				"approve(address,uint256)": "946",
				"balanceOf(address)": "infinite",
				"contributionCount(address)": "2871",
				"contributionScoreSum(address)": "2869",
				"credentialCount(address)": "2891",
				"credentialScoreSum(address)": "2891",
				"credentials(uint256)": "infinite",
				"credentialsOf(address)": "infinite",
				"eip712Domain()": "infinite",
				"getApproved(uint256)": "infinite",
				"getRoleAdmin(bytes32)": "infinite",
				"grantRole(bytes32,address)": "infinite",
				"hasRole(bytes32,address)": "3233",
				"isApprovedForAll(address,address)": "infinite",
				"issueCredential(address,bytes32,uint16,uint16)": "infinite",
				"logContributionTrusted(address,uint32,uint32,bytes32)": "infinite",
				"logContributionWithSig(address,uint64,uint32,uint32,bytes32,bytes)": "infinite",
				"name()": "infinite",
				"ownerOf(uint256)": "infinite",
				"removeInstitution(address)": "infinite",
				"renounceRole(bytes32,address)": "infinite",
				"reputationScore(address)": "infinite",
				"revokeCredential(uint256)": "infinite",
				"revokeRole(bytes32,address)": "infinite",
				"safeTransferFrom(address,address,uint256)": "infinite",
				"safeTransferFrom(address,address,uint256,bytes)": "infinite",
				"setApprovalForAll(address,bool)": "1017",
				"supportsInterface(bytes4)": "986",
				"symbol()": "infinite",
				"tokenURI(uint256)": "infinite",
				"transferFrom(address,address,uint256)": "infinite",
				"usedRefs(address,bytes32)": "3137",
				"verifyCredential(uint256)": "infinite"
			},
			"internal": {
				"_isqrt(uint256)": "infinite",
				"_kindMultiplier(uint32)": "154",
				"_toHex32(bytes32)": "infinite",
				"_update(address,uint256,address)": "infinite"
			}
		},
		"methodIdentifiers": {
			"ADMIN_ROLE()": "75b238fc",
			"DEFAULT_ADMIN_ROLE()": "a217fddf",
			"INSTITUTION_ROLE()": "1b929c21",
			"addInstitution(address)": "af5b2291",
			"approve(address,uint256)": "095ea7b3",
			"balanceOf(address)": "70a08231",
			"contributionCount(address)": "05295cba",
			"contributionScoreSum(address)": "c1c2dbdd",
			"credentialCount(address)": "69989ffb",
			"credentialScoreSum(address)": "c3171bf1",
			"credentials(uint256)": "e0574e3f",
			"credentialsOf(address)": "c40c3250",
			"eip712Domain()": "84b0196e",
			"getApproved(uint256)": "081812fc",
			"getRoleAdmin(bytes32)": "248a9ca3",
			"grantRole(bytes32,address)": "2f2ff15d",
			"hasRole(bytes32,address)": "91d14854",
			"isApprovedForAll(address,address)": "e985e9c5",
			"issueCredential(address,bytes32,uint16,uint16)": "532cdb5a",
			"logContributionTrusted(address,uint32,uint32,bytes32)": "d852b9a8",
			"logContributionWithSig(address,uint64,uint32,uint32,bytes32,bytes)": "796ed77b",
			"name()": "06fdde03",
			"ownerOf(uint256)": "6352211e",
			"removeInstitution(address)": "8747d5ed",
			"renounceRole(bytes32,address)": "36568abe",
			"reputationScore(address)": "50d061cb",
			"revokeCredential(uint256)": "1b87278d",
			"revokeRole(bytes32,address)": "d547741f",
			"safeTransferFrom(address,address,uint256)": "42842e0e",
			"safeTransferFrom(address,address,uint256,bytes)": "b88d4fde",
			"setApprovalForAll(address,bool)": "a22cb465",
			"supportsInterface(bytes4)": "01ffc9a7",
			"symbol()": "95d89b41",
			"tokenURI(uint256)": "c87b56dd",
			"transferFrom(address,address,uint256)": "23b872dd",
			"usedRefs(address,bytes32)": "9b356295",
			"verifyCredential(uint256)": "f2a91b1c"
		}
	},
	"abi": [
		{
			"inputs": [
				{
					"internalType": "address",
					"name": "admin",
					"type": "address"
				}
			],
			"stateMutability": "nonpayable",
			"type": "constructor"
		},
		{
			"inputs": [],
			"name": "AccessControlBadConfirmation",
			"type": "error"
		},
		{
			"inputs": [
				{
					"internalType": "address",
					"name": "account",
					"type": "address"
				},
				{
					"internalType": "bytes32",
					"name": "neededRole",
					"type": "bytes32"
				}
			],
			"name": "AccessControlUnauthorizedAccount",
			"type": "error"
		},
		{
			"inputs": [],
			"name": "ECDSAInvalidSignature",
			"type": "error"
		},
		{
			"inputs": [
				{
					"internalType": "uint256",
					"name": "length",
					"type": "uint256"
				}
			],
			"name": "ECDSAInvalidSignatureLength",
			"type": "error"
		},
		{
			"inputs": [
				{
					"internalType": "bytes32",
					"name": "s",
					"type": "bytes32"
				}
			],
			"name": "ECDSAInvalidSignatureS",
			"type": "error"
		},
		{
			"inputs": [
				{
					"internalType": "address",
					"name": "sender",
					"type": "address"
				},
				{
					"internalType": "uint256",
					"name": "tokenId",
					"type": "uint256"
				},
				{
					"internalType": "address",
					"name": "owner",
					"type": "address"
				}
			],
			"name": "ERC721IncorrectOwner",
			"type": "error"
		},
		{
			"inputs": [
				{
					"internalType": "address",
					"name": "operator",
					"type": "address"
				},
				{
					"internalType": "uint256",
					"name": "tokenId",
					"type": "uint256"
				}
			],
			"name": "ERC721InsufficientApproval",
			"type": "error"
		},
		{
			"inputs": [
				{
					"internalType": "address",
					"name": "approver",
					"type": "address"
				}
			],
			"name": "ERC721InvalidApprover",
			"type": "error"
		},
		{
			"inputs": [
				{
					"internalType": "address",
					"name": "operator",
					"type": "address"
				}
			],
			"name": "ERC721InvalidOperator",
			"type": "error"
		},
		{
			"inputs": [
				{
					"internalType": "address",
					"name": "owner",
					"type": "address"
				}
			],
			"name": "ERC721InvalidOwner",
			"type": "error"
		},
		{
			"inputs": [
				{
					"internalType": "address",
					"name": "receiver",
					"type": "address"
				}
			],
			"name": "ERC721InvalidReceiver",
			"type": "error"
		},
		{
			"inputs": [
				{
					"internalType": "address",
					"name": "sender",
					"type": "address"
				}
			],
			"name": "ERC721InvalidSender",
			"type": "error"
		},
		{
			"inputs": [
				{
					"internalType": "uint256",
					"name": "tokenId",
					"type": "uint256"
				}
			],
			"name": "ERC721NonexistentToken",
			"type": "error"
		},
		{
			"inputs": [],
			"name": "InvalidShortString",
			"type": "error"
		},
		{
			"inputs": [
				{
					"internalType": "string",
					"name": "str",
					"type": "string"
				}
			],
			"name": "StringTooLong",
			"type": "error"
		},
		{
			"anonymous": false,
			"inputs": [
				{
					"indexed": true,
					"internalType": "address",
					"name": "owner",
					"type": "address"
				},
				{
					"indexed": true,
					"internalType": "address",
					"name": "approved",
					"type": "address"
				},
				{
					"indexed": true,
					"internalType": "uint256",
					"name": "tokenId",
					"type": "uint256"
				}
			],
			"name": "Approval",
			"type": "event"
		},
		{
			"anonymous": false,
			"inputs": [
				{
					"indexed": true,
					"internalType": "address",
					"name": "owner",
					"type": "address"
				},
				{
					"indexed": true,
					"internalType": "address",
					"name": "operator",
					"type": "address"
				},
				{
					"indexed": false,
					"internalType": "bool",
					"name": "approved",
					"type": "bool"
				}
			],
			"name": "ApprovalForAll",
			"type": "event"
		},
		{
			"anonymous": false,
			"inputs": [
				{
					"indexed": true,
					"internalType": "address",
					"name": "learner",
					"type": "address"
				},
				{
					"indexed": true,
					"internalType": "address",
					"name": "logger",
					"type": "address"
				},
				{
					"indexed": false,
					"internalType": "uint32",
					"name": "kind",
					"type": "uint32"
				},
				{
					"indexed": false,
					"internalType": "uint32",
					"name": "weight",
					"type": "uint32"
				},
				{
					"indexed": false,
					"internalType": "bytes32",
					"name": "ref",
					"type": "bytes32"
				},
				{
					"indexed": false,
					"internalType": "uint64",
					"name": "timestamp",
					"type": "uint64"
				}
			],
			"name": "ContributionLogged",
			"type": "event"
		},
		{
			"anonymous": false,
			"inputs": [
				{
					"indexed": true,
					"internalType": "uint256",
					"name": "tokenId",
					"type": "uint256"
				},
				{
					"indexed": true,
					"internalType": "address",
					"name": "learner",
					"type": "address"
				},
				{
					"indexed": true,
					"internalType": "address",
					"name": "issuer",
					"type": "address"
				},
				{
					"indexed": false,
					"internalType": "bytes32",
					"name": "credentialHash",
					"type": "bytes32"
				},
				{
					"indexed": false,
					"internalType": "uint16",
					"name": "level",
					"type": "uint16"
				},
				{
					"indexed": false,
					"internalType": "uint16",
					"name": "category",
					"type": "uint16"
				},
				{
					"indexed": false,
					"internalType": "uint64",
					"name": "issuedAt",
					"type": "uint64"
				}
			],
			"name": "CredentialIssued",
			"type": "event"
		},
		{
			"anonymous": false,
			"inputs": [
				{
					"indexed": true,
					"internalType": "uint256",
					"name": "tokenId",
					"type": "uint256"
				},
				{
					"indexed": true,
					"internalType": "address",
					"name": "issuer",
					"type": "address"
				},
				{
					"indexed": false,
					"internalType": "uint64",
					"name": "revokedAt",
					"type": "uint64"
				}
			],
			"name": "CredentialRevoked",
			"type": "event"
		},
		{
			"anonymous": false,
			"inputs": [],
			"name": "EIP712DomainChanged",
			"type": "event"
		},
		{
			"anonymous": false,
			"inputs": [
				{
					"indexed": true,
					"internalType": "address",
					"name": "institution",
					"type": "address"
				}
			],
			"name": "InstitutionAdded",
			"type": "event"
		},
		{
			"anonymous": false,
			"inputs": [
				{
					"indexed": true,
					"internalType": "address",
					"name": "institution",
					"type": "address"
				}
			],
			"name": "InstitutionRemoved",
			"type": "event"
		},
		{
			"anonymous": false,
			"inputs": [
				{
					"indexed": true,
					"internalType": "bytes32",
					"name": "role",
					"type": "bytes32"
				},
				{
					"indexed": true,
					"internalType": "bytes32",
					"name": "previousAdminRole",
					"type": "bytes32"
				},
				{
					"indexed": true,
					"internalType": "bytes32",
					"name": "newAdminRole",
					"type": "bytes32"
				}
			],
			"name": "RoleAdminChanged",
			"type": "event"
		},
		{
			"anonymous": false,
			"inputs": [
				{
					"indexed": true,
					"internalType": "bytes32",
					"name": "role",
					"type": "bytes32"
				},
				{
					"indexed": true,
					"internalType": "address",
					"name": "account",
					"type": "address"
				},
				{
					"indexed": true,
					"internalType": "address",
					"name": "sender",
					"type": "address"
				}
			],
			"name": "RoleGranted",
			"type": "event"
		},
		{
			"anonymous": false,
			"inputs": [
				{
					"indexed": true,
					"internalType": "bytes32",
					"name": "role",
					"type": "bytes32"
				},
				{
					"indexed": true,
					"internalType": "address",
					"name": "account",
					"type": "address"
				},
				{
					"indexed": true,
					"internalType": "address",
					"name": "sender",
					"type": "address"
				}
			],
			"name": "RoleRevoked",
			"type": "event"
		},
		{
			"anonymous": false,
			"inputs": [
				{
					"indexed": true,
					"internalType": "address",
					"name": "from",
					"type": "address"
				},
				{
					"indexed": true,
					"internalType": "address",
					"name": "to",
					"type": "address"
				},
				{
					"indexed": true,
					"internalType": "uint256",
					"name": "tokenId",
					"type": "uint256"
				}
			],
			"name": "Transfer",
			"type": "event"
		},
		{
			"inputs": [],
			"name": "ADMIN_ROLE",
			"outputs": [
				{
					"internalType": "bytes32",
					"name": "",
					"type": "bytes32"
				}
			],
			"stateMutability": "view",
			"type": "function"
		},
		{
			"inputs": [],
			"name": "DEFAULT_ADMIN_ROLE",
			"outputs": [
				{
					"internalType": "bytes32",
					"name": "",
					"type": "bytes32"
				}
			],
			"stateMutability": "view",
			"type": "function"
		},
		{
			"inputs": [],
			"name": "INSTITUTION_ROLE",
			"outputs": [
				{
					"internalType": "bytes32",
					"name": "",
					"type": "bytes32"
				}
			],
			"stateMutability": "view",
			"type": "function"
		},
		{
			"inputs": [
				{
					"internalType": "address",
					"name": "institution",
					"type": "address"
				}
			],
			"name": "addInstitution",
			"outputs": [],
			"stateMutability": "nonpayable",
			"type": "function"
		},
		{
			"inputs": [
				{
					"internalType": "address",
					"name": "",
					"type": "address"
				},
				{
					"internalType": "uint256",
					"name": "",
					"type": "uint256"
				}
			],
			"name": "approve",
			"outputs": [],
			"stateMutability": "pure",
			"type": "function"
		},
		{
			"inputs": [
				{
					"internalType": "address",
					"name": "owner",
					"type": "address"
				}
			],
			"name": "balanceOf",
			"outputs": [
				{
					"internalType": "uint256",
					"name": "",
					"type": "uint256"
				}
			],
			"stateMutability": "view",
			"type": "function"
		},
		{
			"inputs": [
				{
					"internalType": "address",
					"name": "",
					"type": "address"
				}
			],
			"name": "contributionCount",
			"outputs": [
				{
					"internalType": "uint256",
					"name": "",
					"type": "uint256"
				}
			],
			"stateMutability": "view",
			"type": "function"
		},
		{
			"inputs": [
				{
					"internalType": "address",
					"name": "",
					"type": "address"
				}
			],
			"name": "contributionScoreSum",
			"outputs": [
				{
					"internalType": "uint256",
					"name": "",
					"type": "uint256"
				}
			],
			"stateMutability": "view",
			"type": "function"
		},
		{
			"inputs": [
				{
					"internalType": "address",
					"name": "",
					"type": "address"
				}
			],
			"name": "credentialCount",
			"outputs": [
				{
					"internalType": "uint256",
					"name": "",
					"type": "uint256"
				}
			],
			"stateMutability": "view",
			"type": "function"
		},
		{
			"inputs": [
				{
					"internalType": "address",
					"name": "",
					"type": "address"
				}
			],
			"name": "credentialScoreSum",
			"outputs": [
				{
					"internalType": "uint256",
					"name": "",
					"type": "uint256"
				}
			],
			"stateMutability": "view",
			"type": "function"
		},
		{
			"inputs": [
				{
					"internalType": "uint256",
					"name": "",
					"type": "uint256"
				}
			],
			"name": "credentials",
			"outputs": [
				{
					"internalType": "address",
					"name": "issuer",
					"type": "address"
				},
				{
					"internalType": "bytes32",
					"name": "credentialHash",
					"type": "bytes32"
				},
				{
					"internalType": "uint64",
					"name": "issuedAt",
					"type": "uint64"
				},
				{
					"internalType": "uint16",
					"name": "level",
					"type": "uint16"
				},
				{
					"internalType": "uint16",
					"name": "category",
					"type": "uint16"
				},
				{
					"internalType": "bool",
					"name": "revoked",
					"type": "bool"
				}
			],
			"stateMutability": "view",
			"type": "function"
		},
		{
			"inputs": [
				{
					"internalType": "address",
					"name": "learner",
					"type": "address"
				}
			],
			"name": "credentialsOf",
			"outputs": [
				{
					"internalType": "uint256[]",
					"name": "",
					"type": "uint256[]"
				}
			],
			"stateMutability": "view",
			"type": "function"
		},
		{
			"inputs": [],
			"name": "eip712Domain",
			"outputs": [
				{
					"internalType": "bytes1",
					"name": "fields",
					"type": "bytes1"
				},
				{
					"internalType": "string",
					"name": "name",
					"type": "string"
				},
				{
					"internalType": "string",
					"name": "version",
					"type": "string"
				},
				{
					"internalType": "uint256",
					"name": "chainId",
					"type": "uint256"
				},
				{
					"internalType": "address",
					"name": "verifyingContract",
					"type": "address"
				},
				{
					"internalType": "bytes32",
					"name": "salt",
					"type": "bytes32"
				},
				{
					"internalType": "uint256[]",
					"name": "extensions",
					"type": "uint256[]"
				}
			],
			"stateMutability": "view",
			"type": "function"
		},
		{
			"inputs": [
				{
					"internalType": "uint256",
					"name": "tokenId",
					"type": "uint256"
				}
			],
			"name": "getApproved",
			"outputs": [
				{
					"internalType": "address",
					"name": "",
					"type": "address"
				}
			],
			"stateMutability": "view",
			"type": "function"
		},
		{
			"inputs": [
				{
					"internalType": "bytes32",
					"name": "role",
					"type": "bytes32"
				}
			],
			"name": "getRoleAdmin",
			"outputs": [
				{
					"internalType": "bytes32",
					"name": "",
					"type": "bytes32"
				}
			],
			"stateMutability": "view",
			"type": "function"
		},
		{
			"inputs": [
				{
					"internalType": "bytes32",
					"name": "role",
					"type": "bytes32"
				},
				{
					"internalType": "address",
					"name": "account",
					"type": "address"
				}
			],
			"name": "grantRole",
			"outputs": [],
			"stateMutability": "nonpayable",
			"type": "function"
		},
		{
			"inputs": [
				{
					"internalType": "bytes32",
					"name": "role",
					"type": "bytes32"
				},
				{
					"internalType": "address",
					"name": "account",
					"type": "address"
				}
			],
			"name": "hasRole",
			"outputs": [
				{
					"internalType": "bool",
					"name": "",
					"type": "bool"
				}
			],
			"stateMutability": "view",
			"type": "function"
		},
		{
			"inputs": [
				{
					"internalType": "address",
					"name": "owner",
					"type": "address"
				},
				{
					"internalType": "address",
					"name": "operator",
					"type": "address"
				}
			],
			"name": "isApprovedForAll",
			"outputs": [
				{
					"internalType": "bool",
					"name": "",
					"type": "bool"
				}
			],
			"stateMutability": "view",
			"type": "function"
		},
		{
			"inputs": [
				{
					"internalType": "address",
					"name": "learner",
					"type": "address"
				},
				{
					"internalType": "bytes32",
					"name": "credentialHash",
					"type": "bytes32"
				},
				{
					"internalType": "uint16",
					"name": "level",
					"type": "uint16"
				},
				{
					"internalType": "uint16",
					"name": "category",
					"type": "uint16"
				}
			],
			"name": "issueCredential",
			"outputs": [
				{
					"internalType": "uint256",
					"name": "tokenId",
					"type": "uint256"
				}
			],
			"stateMutability": "nonpayable",
			"type": "function"
		},
		{
			"inputs": [
				{
					"internalType": "address",
					"name": "learner",
					"type": "address"
				},
				{
					"internalType": "uint32",
					"name": "kind",
					"type": "uint32"
				},
				{
					"internalType": "uint32",
					"name": "weight",
					"type": "uint32"
				},
				{
					"internalType": "bytes32",
					"name": "ref",
					"type": "bytes32"
				}
			],
			"name": "logContributionTrusted",
			"outputs": [],
			"stateMutability": "nonpayable",
			"type": "function"
		},
		{
			"inputs": [
				{
					"internalType": "address",
					"name": "learner",
					"type": "address"
				},
				{
					"internalType": "uint64",
					"name": "timestamp",
					"type": "uint64"
				},
				{
					"internalType": "uint32",
					"name": "kind",
					"type": "uint32"
				},
				{
					"internalType": "uint32",
					"name": "weight",
					"type": "uint32"
				},
				{
					"internalType": "bytes32",
					"name": "ref",
					"type": "bytes32"
				},
				{
					"internalType": "bytes",
					"name": "signature",
					"type": "bytes"
				}
			],
			"name": "logContributionWithSig",
			"outputs": [],
			"stateMutability": "nonpayable",
			"type": "function"
		},
		{
			"inputs": [],
			"name": "name",
			"outputs": [
				{
					"internalType": "string",
					"name": "",
					"type": "string"
				}
			],
			"stateMutability": "view",
			"type": "function"
		},
		{
			"inputs": [
				{
					"internalType": "uint256",
					"name": "tokenId",
					"type": "uint256"
				}
			],
			"name": "ownerOf",
			"outputs": [
				{
					"internalType": "address",
					"name": "",
					"type": "address"
				}
			],
			"stateMutability": "view",
			"type": "function"
		},
		{
			"inputs": [
				{
					"internalType": "address",
					"name": "institution",
					"type": "address"
				}
			],
			"name": "removeInstitution",
			"outputs": [],
			"stateMutability": "nonpayable",
			"type": "function"
		},
		{
			"inputs": [
				{
					"internalType": "bytes32",
					"name": "role",
					"type": "bytes32"
				},
				{
					"internalType": "address",
					"name": "callerConfirmation",
					"type": "address"
				}
			],
			"name": "renounceRole",
			"outputs": [],
			"stateMutability": "nonpayable",
			"type": "function"
		},
		{
			"inputs": [
				{
					"internalType": "address",
					"name": "learner",
					"type": "address"
				}
			],
			"name": "reputationScore",
			"outputs": [
				{
					"internalType": "uint256",
					"name": "",
					"type": "uint256"
				}
			],
			"stateMutability": "view",
			"type": "function"
		},
		{
			"inputs": [
				{
					"internalType": "uint256",
					"name": "tokenId",
					"type": "uint256"
				}
			],
			"name": "revokeCredential",
			"outputs": [],
			"stateMutability": "nonpayable",
			"type": "function"
		},
		{
			"inputs": [
				{
					"internalType": "bytes32",
					"name": "role",
					"type": "bytes32"
				},
				{
					"internalType": "address",
					"name": "account",
					"type": "address"
				}
			],
			"name": "revokeRole",
			"outputs": [],
			"stateMutability": "nonpayable",
			"type": "function"
		},
		{
			"inputs": [
				{
					"internalType": "address",
					"name": "from",
					"type": "address"
				},
				{
					"internalType": "address",
					"name": "to",
					"type": "address"
				},
				{
					"internalType": "uint256",
					"name": "tokenId",
					"type": "uint256"
				}
			],
			"name": "safeTransferFrom",
			"outputs": [],
			"stateMutability": "nonpayable",
			"type": "function"
		},
		{
			"inputs": [
				{
					"internalType": "address",
					"name": "from",
					"type": "address"
				},
				{
					"internalType": "address",
					"name": "to",
					"type": "address"
				},
				{
					"internalType": "uint256",
					"name": "tokenId",
					"type": "uint256"
				},
				{
					"internalType": "bytes",
					"name": "data",
					"type": "bytes"
				}
			],
			"name": "safeTransferFrom",
			"outputs": [],
			"stateMutability": "nonpayable",
			"type": "function"
		},
		{
			"inputs": [
				{
					"internalType": "address",
					"name": "",
					"type": "address"
				},
				{
					"internalType": "bool",
					"name": "",
					"type": "bool"
				}
			],
			"name": "setApprovalForAll",
			"outputs": [],
			"stateMutability": "pure",
			"type": "function"
		},
		{
			"inputs": [
				{
					"internalType": "bytes4",
					"name": "interfaceId",
					"type": "bytes4"
				}
			],
			"name": "supportsInterface",
			"outputs": [
				{
					"internalType": "bool",
					"name": "",
					"type": "bool"
				}
			],
			"stateMutability": "view",
			"type": "function"
		},
		{
			"inputs": [],
			"name": "symbol",
			"outputs": [
				{
					"internalType": "string",
					"name": "",
					"type": "string"
				}
			],
			"stateMutability": "view",
			"type": "function"
		},
		{
			"inputs": [
				{
					"internalType": "uint256",
					"name": "tokenId",
					"type": "uint256"
				}
			],
			"name": "tokenURI",
			"outputs": [
				{
					"internalType": "string",
					"name": "",
					"type": "string"
				}
			],
			"stateMutability": "view",
			"type": "function"
		},
		{
			"inputs": [
				{
					"internalType": "address",
					"name": "from",
					"type": "address"
				},
				{
					"internalType": "address",
					"name": "to",
					"type": "address"
				},
				{
					"internalType": "uint256",
					"name": "tokenId",
					"type": "uint256"
				}
			],
			"name": "transferFrom",
			"outputs": [],
			"stateMutability": "nonpayable",
			"type": "function"
		},
		{
			"inputs": [
				{
					"internalType": "address",
					"name": "",
					"type": "address"
				},
				{
					"internalType": "bytes32",
					"name": "",
					"type": "bytes32"
				}
			],
			"name": "usedRefs",
			"outputs": [
				{
					"internalType": "bool",
					"name": "",
					"type": "bool"
				}
			],
			"stateMutability": "view",
			"type": "function"
		},
		{
			"inputs": [
				{
					"internalType": "uint256",
					"name": "tokenId",
					"type": "uint256"
				}
			],
			"name": "verifyCredential",
			"outputs": [
				{
					"internalType": "bool",
					"name": "valid",
					"type": "bool"
				},
				{
					"internalType": "address",
					"name": "learner",
					"type": "address"
				},
				{
					"internalType": "address",
					"name": "issuer",
					"type": "address"
				},
				{
					"internalType": "bytes32",
					"name": "credentialHash",
					"type": "bytes32"
				},
				{
					"internalType": "uint64",
					"name": "issuedAt",
					"type": "uint64"
				}
			],
			"stateMutability": "view",
			"type": "function"
		}
	]
}